{
	"contracts/SimpleSwap.sol": {
		"SimpleSwap": {
			"abi": [
				{
					"inputs": [
						{
							"internalType": "contract ISwapRouter",
							"name": "_swapRouter",
							"type": "address"
						}
					],
					"stateMutability": "nonpayable",
					"type": "constructor"
				},
				{
					"inputs": [],
					"name": "TKN",
					"outputs": [
						{
							"internalType": "address",
							"name": "",
							"type": "address"
						}
					],
					"stateMutability": "view",
					"type": "function"
				},
				{
					"inputs": [],
					"name": "VTRU",
					"outputs": [
						{
							"internalType": "address",
							"name": "",
							"type": "address"
						}
					],
					"stateMutability": "view",
					"type": "function"
				},
				{
					"inputs": [],
					"name": "feeTier",
					"outputs": [
						{
							"internalType": "uint24",
							"name": "",
							"type": "uint24"
						}
					],
					"stateMutability": "view",
					"type": "function"
				},
				{
					"inputs": [],
					"name": "swapRouter",
					"outputs": [
						{
							"internalType": "contract ISwapRouter",
							"name": "",
							"type": "address"
						}
					],
					"stateMutability": "view",
					"type": "function"
				},
				{
					"inputs": [
						{
							"internalType": "uint256",
							"name": "amountIn",
							"type": "uint256"
						}
					],
					"name": "swapVTRUForTKN",
					"outputs": [
						{
							"internalType": "uint256",
							"name": "amountOut",
							"type": "uint256"
						}
					],
					"stateMutability": "nonpayable",
					"type": "function"
				}
			],
			"devdoc": {
				"kind": "dev",
				"methods": {},
				"version": 1
			},
			"evm": {
				"assembly": "    /* \"contracts/SimpleSwap.sol\":232:1845  contract SimpleSwap {... */\n  mstore(0x40, 0xa0)\n    /* \"contracts/SimpleSwap.sol\":504:582  constructor(ISwapRouter _swapRouter) {... */\n  callvalue\n  dup1\n  iszero\n  tag_1\n  jumpi\n  0x00\n  dup1\n  revert\ntag_1:\n  pop\n  mload(0x40)\n  sub(codesize, bytecodeSize)\n  dup1\n  bytecodeSize\n  dup4\n  codecopy\n  dup2\n  dup2\n  add\n  0x40\n  mstore\n  dup2\n  add\n  swap1\n  tag_2\n  swap2\n  swap1\n  tag_3\n  jump\t// in\ntag_2:\n    /* \"contracts/SimpleSwap.sol\":564:575  _swapRouter */\n  dup1\n    /* \"contracts/SimpleSwap.sol\":551:575  swapRouter = _swapRouter */\n  0xffffffffffffffffffffffffffffffffffffffff\n  and\n  0x80\n  dup2\n  0xffffffffffffffffffffffffffffffffffffffff\n  and\n  dup2\n  mstore\n  pop\n  pop\n    /* \"contracts/SimpleSwap.sol\":504:582  constructor(ISwapRouter _swapRouter) {... */\n  pop\n    /* \"contracts/SimpleSwap.sol\":232:1845  contract SimpleSwap {... */\n  jump(tag_6)\n    /* \"#utility.yul\":88:205   */\ntag_8:\n    /* \"#utility.yul\":197:198   */\n  0x00\n    /* \"#utility.yul\":194:195   */\n  dup1\n    /* \"#utility.yul\":187:199   */\n  revert\n    /* \"#utility.yul\":334:460   */\ntag_10:\n    /* \"#utility.yul\":371:378   */\n  0x00\n    /* \"#utility.yul\":411:453   */\n  0xffffffffffffffffffffffffffffffffffffffff\n    /* \"#utility.yul\":404:409   */\n  dup3\n    /* \"#utility.yul\":400:454   */\n  and\n    /* \"#utility.yul\":389:454   */\n  swap1\n  pop\n    /* \"#utility.yul\":334:460   */\n  swap2\n  swap1\n  pop\n  jump\t// out\n    /* \"#utility.yul\":466:562   */\ntag_11:\n    /* \"#utility.yul\":503:510   */\n  0x00\n    /* \"#utility.yul\":532:556   */\n  tag_21\n    /* \"#utility.yul\":550:555   */\n  dup3\n    /* \"#utility.yul\":532:556   */\n  tag_10\n  jump\t// in\ntag_21:\n    /* \"#utility.yul\":521:556   */\n  swap1\n  pop\n    /* \"#utility.yul\":466:562   */\n  swap2\n  swap1\n  pop\n  jump\t// out\n    /* \"#utility.yul\":568:683   */\ntag_12:\n    /* \"#utility.yul\":624:631   */\n  0x00\n    /* \"#utility.yul\":653:677   */\n  tag_23\n    /* \"#utility.yul\":671:676   */\n  dup3\n    /* \"#utility.yul\":653:677   */\n  tag_11\n  jump\t// in\ntag_23:\n    /* \"#utility.yul\":642:677   */\n  swap1\n  pop\n    /* \"#utility.yul\":568:683   */\n  swap2\n  swap1\n  pop\n  jump\t// out\n    /* \"#utility.yul\":689:849   */\ntag_13:\n    /* \"#utility.yul\":781:824   */\n  tag_25\n    /* \"#utility.yul\":818:823   */\n  dup2\n    /* \"#utility.yul\":781:824   */\n  tag_12\n  jump\t// in\ntag_25:\n    /* \"#utility.yul\":774:779   */\n  dup2\n    /* \"#utility.yul\":771:825   */\n  eq\n    /* \"#utility.yul\":761:843   */\n  tag_26\n  jumpi\n    /* \"#utility.yul\":839:840   */\n  0x00\n    /* \"#utility.yul\":836:837   */\n  dup1\n    /* \"#utility.yul\":829:841   */\n  revert\n    /* \"#utility.yul\":761:843   */\ntag_26:\n    /* \"#utility.yul\":689:849   */\n  pop\n  jump\t// out\n    /* \"#utility.yul\":855:1036   */\ntag_14:\n    /* \"#utility.yul\":931:936   */\n  0x00\n    /* \"#utility.yul\":962:968   */\n  dup2\n    /* \"#utility.yul\":956:969   */\n  mload\n    /* \"#utility.yul\":947:969   */\n  swap1\n  pop\n    /* \"#utility.yul\":978:1030   */\n  tag_28\n    /* \"#utility.yul\":1024:1029   */\n  dup2\n    /* \"#utility.yul\":978:1030   */\n  tag_13\n  jump\t// in\ntag_28:\n    /* \"#utility.yul\":855:1036   */\n  swap3\n  swap2\n  pop\n  pop\n  jump\t// out\n    /* \"#utility.yul\":1042:1431   */\ntag_3:\n    /* \"#utility.yul\":1131:1137   */\n  0x00\n    /* \"#utility.yul\":1180:1182   */\n  0x20\n    /* \"#utility.yul\":1168:1177   */\n  dup3\n    /* \"#utility.yul\":1159:1166   */\n  dup5\n    /* \"#utility.yul\":1155:1178   */\n  sub\n    /* \"#utility.yul\":1151:1183   */\n  slt\n    /* \"#utility.yul\":1148:1267   */\n  iszero\n  tag_30\n  jumpi\n    /* \"#utility.yul\":1186:1265   */\n  tag_31\n  tag_8\n  jump\t// in\ntag_31:\n    /* \"#utility.yul\":1148:1267   */\ntag_30:\n    /* \"#utility.yul\":1306:1307   */\n  0x00\n    /* \"#utility.yul\":1331:1414   */\n  tag_32\n    /* \"#utility.yul\":1406:1413   */\n  dup5\n    /* \"#utility.yul\":1397:1403   */\n  dup3\n    /* \"#utility.yul\":1386:1395   */\n  dup6\n    /* \"#utility.yul\":1382:1404   */\n  add\n    /* \"#utility.yul\":1331:1414   */\n  tag_14\n  jump\t// in\ntag_32:\n    /* \"#utility.yul\":1321:1414   */\n  swap2\n  pop\n    /* \"#utility.yul\":1277:1424   */\n  pop\n    /* \"#utility.yul\":1042:1431   */\n  swap3\n  swap2\n  pop\n  pop\n  jump\t// out\n    /* \"contracts/SimpleSwap.sol\":232:1845  contract SimpleSwap {... */\ntag_6:\n  mload(0x80)\n  codecopy(0x00, dataOffset(sub_0), dataSize(sub_0))\n  0x00\n  assignImmutable(\"0x5fe7a1a414abe991afbda9a853d967f992c558068728d0e3ee148ed2656bb10a\")\n  return(0x00, dataSize(sub_0))\nstop\n\nsub_0: assembly {\n        /* \"contracts/SimpleSwap.sol\":232:1845  contract SimpleSwap {... */\n      mstore(0x40, 0x80)\n      callvalue\n      dup1\n      iszero\n      tag_1\n      jumpi\n      0x00\n      dup1\n      revert\n    tag_1:\n      pop\n      jumpi(tag_2, lt(calldatasize, 0x04))\n      shr(0xe0, calldataload(0x00))\n      dup1\n      0x6a5dae38\n      eq\n      tag_3\n      jumpi\n      dup1\n      0x72f5d98a\n      eq\n      tag_4\n      jumpi\n      dup1\n      0xab8feb02\n      eq\n      tag_5\n      jumpi\n      dup1\n      0xc31c9c07\n      eq\n      tag_6\n      jumpi\n      dup1\n      0xeb90cec1\n      eq\n      tag_7\n      jumpi\n    tag_2:\n      0x00\n      dup1\n      revert\n        /* \"contracts/SimpleSwap.sol\":381:454  address public constant VTRU = 0xAC51c04Cb72A5D0F56D71Baf3E2F2B28e6426922 */\n    tag_3:\n      tag_8\n      tag_9\n      jump\t// in\n    tag_8:\n      mload(0x40)\n      tag_10\n      swap2\n      swap1\n      tag_11\n      jump\t// in\n    tag_10:\n      mload(0x40)\n      dup1\n      swap2\n      sub\n      swap1\n      return\n        /* \"contracts/SimpleSwap.sol\":460:497  uint24 public constant feeTier = 3000 */\n    tag_4:\n      tag_12\n      tag_13\n      jump\t// in\n    tag_12:\n      mload(0x40)\n      tag_14\n      swap2\n      swap1\n      tag_15\n      jump\t// in\n    tag_14:\n      mload(0x40)\n      dup1\n      swap2\n      sub\n      swap1\n      return\n        /* \"contracts/SimpleSwap.sol\":303:375  address public constant TKN = 0x221c91a7fDb68C855a8A52CA7F18F2dcedAc8c2b */\n    tag_5:\n      tag_16\n      tag_17\n      jump\t// in\n    tag_16:\n      mload(0x40)\n      tag_18\n      swap2\n      swap1\n      tag_11\n      jump\t// in\n    tag_18:\n      mload(0x40)\n      dup1\n      swap2\n      sub\n      swap1\n      return\n        /* \"contracts/SimpleSwap.sol\":258:297  ISwapRouter public immutable swapRouter */\n    tag_6:\n      tag_19\n      tag_20\n      jump\t// in\n    tag_19:\n      mload(0x40)\n      tag_21\n      swap2\n      swap1\n      tag_22\n      jump\t// in\n    tag_21:\n      mload(0x40)\n      dup1\n      swap2\n      sub\n      swap1\n      return\n        /* \"contracts/SimpleSwap.sol\":588:1843  function swapVTRUForTKN(... */\n    tag_7:\n      tag_23\n      0x04\n      dup1\n      calldatasize\n      sub\n      dup2\n      add\n      swap1\n      tag_24\n      swap2\n      swap1\n      tag_25\n      jump\t// in\n    tag_24:\n      tag_26\n      jump\t// in\n    tag_23:\n      mload(0x40)\n      tag_27\n      swap2\n      swap1\n      tag_28\n      jump\t// in\n    tag_27:\n      mload(0x40)\n      dup1\n      swap2\n      sub\n      swap1\n      return\n        /* \"contracts/SimpleSwap.sol\":381:454  address public constant VTRU = 0xAC51c04Cb72A5D0F56D71Baf3E2F2B28e6426922 */\n    tag_9:\n        /* \"contracts/SimpleSwap.sol\":412:454  0xAC51c04Cb72A5D0F56D71Baf3E2F2B28e6426922 */\n      0xac51c04cb72a5d0f56d71baf3e2f2b28e6426922\n        /* \"contracts/SimpleSwap.sol\":381:454  address public constant VTRU = 0xAC51c04Cb72A5D0F56D71Baf3E2F2B28e6426922 */\n      dup2\n      jump\t// out\n        /* \"contracts/SimpleSwap.sol\":460:497  uint24 public constant feeTier = 3000 */\n    tag_13:\n        /* \"contracts/SimpleSwap.sol\":493:497  3000 */\n      0x0bb8\n        /* \"contracts/SimpleSwap.sol\":460:497  uint24 public constant feeTier = 3000 */\n      dup2\n      jump\t// out\n        /* \"contracts/SimpleSwap.sol\":303:375  address public constant TKN = 0x221c91a7fDb68C855a8A52CA7F18F2dcedAc8c2b */\n    tag_17:\n        /* \"contracts/SimpleSwap.sol\":333:375  0x221c91a7fDb68C855a8A52CA7F18F2dcedAc8c2b */\n      0x221c91a7fdb68c855a8a52ca7f18f2dcedac8c2b\n        /* \"contracts/SimpleSwap.sol\":303:375  address public constant TKN = 0x221c91a7fDb68C855a8A52CA7F18F2dcedAc8c2b */\n      dup2\n      jump\t// out\n        /* \"contracts/SimpleSwap.sol\":258:297  ISwapRouter public immutable swapRouter */\n    tag_20:\n      immutable(\"0x5fe7a1a414abe991afbda9a853d967f992c558068728d0e3ee148ed2656bb10a\")\n      dup2\n      jump\t// out\n        /* \"contracts/SimpleSwap.sol\":588:1843  function swapVTRUForTKN(... */\n    tag_26:\n        /* \"contracts/SimpleSwap.sol\":662:679  uint256 amountOut */\n      0x00\n        /* \"contracts/SimpleSwap.sol\":758:890  TransferHelper.safeTransferFrom(... */\n      tag_30\n        /* \"contracts/SimpleSwap.sol\":412:454  0xAC51c04Cb72A5D0F56D71Baf3E2F2B28e6426922 */\n      0xac51c04cb72a5d0f56d71baf3e2f2b28e6426922\n        /* \"contracts/SimpleSwap.sol\":821:831  msg.sender */\n      caller\n        /* \"contracts/SimpleSwap.sol\":853:857  this */\n      address\n        /* \"contracts/SimpleSwap.sol\":872:880  amountIn */\n      dup6\n        /* \"contracts/SimpleSwap.sol\":758:789  TransferHelper.safeTransferFrom */\n      tag_31\n        /* \"contracts/SimpleSwap.sol\":758:890  TransferHelper.safeTransferFrom(... */\n      jump\t// in\n    tag_30:\n        /* \"contracts/SimpleSwap.sol\":945:1008  TransferHelper.safeApprove(VTRU, address(swapRouter), amountIn) */\n      tag_32\n        /* \"contracts/SimpleSwap.sol\":412:454  0xAC51c04Cb72A5D0F56D71Baf3E2F2B28e6426922 */\n      0xac51c04cb72a5d0f56d71baf3e2f2b28e6426922\n        /* \"contracts/SimpleSwap.sol\":986:996  swapRouter */\n      immutable(\"0x5fe7a1a414abe991afbda9a853d967f992c558068728d0e3ee148ed2656bb10a\")\n        /* \"contracts/SimpleSwap.sol\":999:1007  amountIn */\n      dup5\n        /* \"contracts/SimpleSwap.sol\":945:971  TransferHelper.safeApprove */\n      tag_33\n        /* \"contracts/SimpleSwap.sol\":945:1008  TransferHelper.safeApprove(VTRU, address(swapRouter), amountIn) */\n      jump\t// in\n    tag_32:\n        /* \"contracts/SimpleSwap.sol\":1123:1137  uint256 minOut */\n      0x00\n        /* \"contracts/SimpleSwap.sol\":1178:1196  uint160 priceLimit */\n      dup1\n        /* \"contracts/SimpleSwap.sol\":1305:1353  ISwapRouter.ExactInputSingleParams memory params */\n      0x00\n        /* \"contracts/SimpleSwap.sol\":1356:1718  ISwapRouter... */\n      mload(0x40)\n      dup1\n      0x0100\n      add\n      0x40\n      mstore\n      dup1\n        /* \"contracts/SimpleSwap.sol\":412:454  0xAC51c04Cb72A5D0F56D71Baf3E2F2B28e6426922 */\n      0xac51c04cb72a5d0f56d71baf3e2f2b28e6426922\n        /* \"contracts/SimpleSwap.sol\":1356:1718  ISwapRouter... */\n      0xffffffffffffffffffffffffffffffffffffffff\n      and\n      dup2\n      mstore\n      0x20\n      add\n        /* \"contracts/SimpleSwap.sol\":333:375  0x221c91a7fDb68C855a8A52CA7F18F2dcedAc8c2b */\n      0x221c91a7fdb68c855a8a52ca7f18f2dcedac8c2b\n        /* \"contracts/SimpleSwap.sol\":1356:1718  ISwapRouter... */\n      0xffffffffffffffffffffffffffffffffffffffff\n      and\n      dup2\n      mstore\n      0x20\n      add\n        /* \"contracts/SimpleSwap.sol\":493:497  3000 */\n      0x0bb8\n        /* \"contracts/SimpleSwap.sol\":1356:1718  ISwapRouter... */\n      0xffffff\n      and\n      dup2\n      mstore\n      0x20\n      add\n        /* \"contracts/SimpleSwap.sol\":1525:1535  msg.sender */\n      caller\n        /* \"contracts/SimpleSwap.sol\":1356:1718  ISwapRouter... */\n      0xffffffffffffffffffffffffffffffffffffffff\n      and\n      dup2\n      mstore\n      0x20\n      add\n        /* \"contracts/SimpleSwap.sol\":1563:1578  block.timestamp */\n      timestamp\n        /* \"contracts/SimpleSwap.sol\":1356:1718  ISwapRouter... */\n      dup2\n      mstore\n      0x20\n      add\n        /* \"contracts/SimpleSwap.sol\":1606:1614  amountIn */\n      dup7\n        /* \"contracts/SimpleSwap.sol\":1356:1718  ISwapRouter... */\n      dup2\n      mstore\n      0x20\n      add\n        /* \"contracts/SimpleSwap.sol\":1650:1656  minOut */\n      dup5\n        /* \"contracts/SimpleSwap.sol\":1356:1718  ISwapRouter... */\n      dup2\n      mstore\n      0x20\n      add\n        /* \"contracts/SimpleSwap.sol\":1693:1703  priceLimit */\n      dup4\n        /* \"contracts/SimpleSwap.sol\":1356:1718  ISwapRouter... */\n      0xffffffffffffffffffffffffffffffffffffffff\n      and\n      dup2\n      mstore\n      pop\n        /* \"contracts/SimpleSwap.sol\":1305:1718  ISwapRouter.ExactInputSingleParams memory params = ISwapRouter... */\n      swap1\n      pop\n        /* \"contracts/SimpleSwap.sol\":1801:1811  swapRouter */\n      immutable(\"0x5fe7a1a414abe991afbda9a853d967f992c558068728d0e3ee148ed2656bb10a\")\n        /* \"contracts/SimpleSwap.sol\":1801:1828  swapRouter.exactInputSingle */\n      0xffffffffffffffffffffffffffffffffffffffff\n      and\n      0x414bf389\n        /* \"contracts/SimpleSwap.sol\":1829:1835  params */\n      dup3\n        /* \"contracts/SimpleSwap.sol\":1801:1836  swapRouter.exactInputSingle(params) */\n      mload(0x40)\n      dup3\n      0xffffffff\n      and\n      0xe0\n      shl\n      dup2\n      mstore\n      0x04\n      add\n      tag_34\n      swap2\n      swap1\n      tag_35\n      jump\t// in\n    tag_34:\n      0x20\n      mload(0x40)\n      dup1\n      dup4\n      sub\n      dup2\n      0x00\n      dup8\n      gas\n      call\n      iszero\n      dup1\n      iszero\n      tag_37\n      jumpi\n      returndatasize\n      0x00\n      dup1\n      returndatacopy\n      revert(0x00, returndatasize)\n    tag_37:\n      pop\n      pop\n      pop\n      pop\n      mload(0x40)\n      returndatasize\n      not(0x1f)\n      0x1f\n      dup3\n      add\n      and\n      dup3\n      add\n      dup1\n      0x40\n      mstore\n      pop\n      dup2\n      add\n      swap1\n      tag_38\n      swap2\n      swap1\n      tag_39\n      jump\t// in\n    tag_38:\n        /* \"contracts/SimpleSwap.sol\":1789:1836  amountOut = swapRouter.exactInputSingle(params) */\n      swap4\n      pop\n        /* \"contracts/SimpleSwap.sol\":681:1843  {... */\n      pop\n      pop\n      pop\n        /* \"contracts/SimpleSwap.sol\":588:1843  function swapVTRUForTKN(... */\n      swap2\n      swap1\n      pop\n      jump\t// out\n        /* \"@uniswap/v3-periphery/contracts/libraries/TransferHelper.sol\":561:919  function safeTransferFrom(... */\n    tag_31:\n        /* \"@uniswap/v3-periphery/contracts/libraries/TransferHelper.sol\":701:713  bool success */\n      0x00\n        /* \"@uniswap/v3-periphery/contracts/libraries/TransferHelper.sol\":715:732  bytes memory data */\n      dup1\n        /* \"@uniswap/v3-periphery/contracts/libraries/TransferHelper.sol\":748:753  token */\n      dup6\n        /* \"@uniswap/v3-periphery/contracts/libraries/TransferHelper.sol\":748:758  token.call */\n      0xffffffffffffffffffffffffffffffffffffffff\n      and\n        /* \"@uniswap/v3-periphery/contracts/libraries/TransferHelper.sol\":782:810  IERC20.transferFrom.selector */\n      shl(0xe0, 0x23b872dd)\n        /* \"@uniswap/v3-periphery/contracts/libraries/TransferHelper.sol\":812:816  from */\n      dup7\n        /* \"@uniswap/v3-periphery/contracts/libraries/TransferHelper.sol\":818:820  to */\n      dup7\n        /* \"@uniswap/v3-periphery/contracts/libraries/TransferHelper.sol\":822:827  value */\n      dup7\n        /* \"@uniswap/v3-periphery/contracts/libraries/TransferHelper.sol\":759:828  abi.encodeWithSelector(IERC20.transferFrom.selector, from, to, value) */\n      add(0x24, mload(0x40))\n      tag_41\n      swap4\n      swap3\n      swap2\n      swap1\n      tag_42\n      jump\t// in\n    tag_41:\n      mload(0x40)\n      0x20\n      dup2\n      dup4\n      sub\n      sub\n      dup2\n      mstore\n      swap1\n      0x40\n      mstore\n      swap1\n      not(0xffffffffffffffffffffffffffffffffffffffffffffffffffffffff)\n      and\n      0x20\n      dup3\n      add\n      dup1\n      mload\n      0xffffffffffffffffffffffffffffffffffffffffffffffffffffffff\n      dup4\n      dup2\n      dup4\n      and\n      or\n      dup4\n      mstore\n      pop\n      pop\n      pop\n      pop\n        /* \"@uniswap/v3-periphery/contracts/libraries/TransferHelper.sol\":748:829  token.call(abi.encodeWithSelector(IERC20.transferFrom.selector, from, to, value)) */\n      mload(0x40)\n      tag_43\n      swap2\n      swap1\n      tag_44\n      jump\t// in\n    tag_43:\n      0x00\n      mload(0x40)\n      dup1\n      dup4\n      sub\n      dup2\n      0x00\n      dup7\n      gas\n      call\n      swap2\n      pop\n      pop\n      returndatasize\n      dup1\n      0x00\n      dup2\n      eq\n      tag_47\n      jumpi\n      mload(0x40)\n      swap2\n      pop\n      and(add(returndatasize, 0x3f), not(0x1f))\n      dup3\n      add\n      0x40\n      mstore\n      returndatasize\n      dup3\n      mstore\n      returndatasize\n      0x00\n      0x20\n      dup5\n      add\n      returndatacopy\n      jump(tag_46)\n    tag_47:\n      0x60\n      swap2\n      pop\n    tag_46:\n      pop\n        /* \"@uniswap/v3-periphery/contracts/libraries/TransferHelper.sol\":700:829  (bool success, bytes memory data) =... */\n      swap2\n      pop\n      swap2\n      pop\n        /* \"@uniswap/v3-periphery/contracts/libraries/TransferHelper.sol\":847:854  success */\n      dup2\n        /* \"@uniswap/v3-periphery/contracts/libraries/TransferHelper.sol\":847:904  success && (data.length == 0 || abi.decode(data, (bool))) */\n      dup1\n      iszero\n      tag_48\n      jumpi\n      pop\n        /* \"@uniswap/v3-periphery/contracts/libraries/TransferHelper.sol\":874:875  0 */\n      0x00\n        /* \"@uniswap/v3-periphery/contracts/libraries/TransferHelper.sol\":859:863  data */\n      dup2\n        /* \"@uniswap/v3-periphery/contracts/libraries/TransferHelper.sol\":859:870  data.length */\n      mload\n        /* \"@uniswap/v3-periphery/contracts/libraries/TransferHelper.sol\":859:875  data.length == 0 */\n      eq\n        /* \"@uniswap/v3-periphery/contracts/libraries/TransferHelper.sol\":859:903  data.length == 0 || abi.decode(data, (bool)) */\n      dup1\n      tag_49\n      jumpi\n      pop\n        /* \"@uniswap/v3-periphery/contracts/libraries/TransferHelper.sol\":890:894  data */\n      dup1\n        /* \"@uniswap/v3-periphery/contracts/libraries/TransferHelper.sol\":879:903  abi.decode(data, (bool)) */\n      dup1\n      0x20\n      add\n      swap1\n      mload\n      dup2\n      add\n      swap1\n      tag_50\n      swap2\n      swap1\n      tag_51\n      jump\t// in\n    tag_50:\n        /* \"@uniswap/v3-periphery/contracts/libraries/TransferHelper.sol\":859:903  data.length == 0 || abi.decode(data, (bool)) */\n    tag_49:\n        /* \"@uniswap/v3-periphery/contracts/libraries/TransferHelper.sol\":847:904  success && (data.length == 0 || abi.decode(data, (bool))) */\n    tag_48:\n        /* \"@uniswap/v3-periphery/contracts/libraries/TransferHelper.sol\":839:912  require(success && (data.length == 0 || abi.decode(data, (bool))), 'STF') */\n      tag_52\n      jumpi\n      mload(0x40)\n      0x08c379a000000000000000000000000000000000000000000000000000000000\n      dup2\n      mstore\n      0x04\n      add\n      tag_53\n      swap1\n      tag_54\n      jump\t// in\n    tag_53:\n      mload(0x40)\n      dup1\n      swap2\n      sub\n      swap1\n      revert\n    tag_52:\n        /* \"@uniswap/v3-periphery/contracts/libraries/TransferHelper.sol\":690:919  {... */\n      pop\n      pop\n        /* \"@uniswap/v3-periphery/contracts/libraries/TransferHelper.sol\":561:919  function safeTransferFrom(... */\n      pop\n      pop\n      pop\n      pop\n      jump\t// out\n        /* \"@uniswap/v3-periphery/contracts/libraries/TransferHelper.sol\":1873:2180  function safeApprove(... */\n    tag_33:\n        /* \"@uniswap/v3-periphery/contracts/libraries/TransferHelper.sol\":1986:1998  bool success */\n      0x00\n        /* \"@uniswap/v3-periphery/contracts/libraries/TransferHelper.sol\":2000:2017  bytes memory data */\n      dup1\n        /* \"@uniswap/v3-periphery/contracts/libraries/TransferHelper.sol\":2021:2026  token */\n      dup5\n        /* \"@uniswap/v3-periphery/contracts/libraries/TransferHelper.sol\":2021:2031  token.call */\n      0xffffffffffffffffffffffffffffffffffffffff\n      and\n        /* \"@uniswap/v3-periphery/contracts/libraries/TransferHelper.sol\":2055:2078  IERC20.approve.selector */\n      shl(0xe0, 0x095ea7b3)\n        /* \"@uniswap/v3-periphery/contracts/libraries/TransferHelper.sol\":2080:2082  to */\n      dup6\n        /* \"@uniswap/v3-periphery/contracts/libraries/TransferHelper.sol\":2084:2089  value */\n      dup6\n        /* \"@uniswap/v3-periphery/contracts/libraries/TransferHelper.sol\":2032:2090  abi.encodeWithSelector(IERC20.approve.selector, to, value) */\n      add(0x24, mload(0x40))\n      tag_56\n      swap3\n      swap2\n      swap1\n      tag_57\n      jump\t// in\n    tag_56:\n      mload(0x40)\n      0x20\n      dup2\n      dup4\n      sub\n      sub\n      dup2\n      mstore\n      swap1\n      0x40\n      mstore\n      swap1\n      not(0xffffffffffffffffffffffffffffffffffffffffffffffffffffffff)\n      and\n      0x20\n      dup3\n      add\n      dup1\n      mload\n      0xffffffffffffffffffffffffffffffffffffffffffffffffffffffff\n      dup4\n      dup2\n      dup4\n      and\n      or\n      dup4\n      mstore\n      pop\n      pop\n      pop\n      pop\n        /* \"@uniswap/v3-periphery/contracts/libraries/TransferHelper.sol\":2021:2091  token.call(abi.encodeWithSelector(IERC20.approve.selector, to, value)) */\n      mload(0x40)\n      tag_58\n      swap2\n      swap1\n      tag_44\n      jump\t// in\n    tag_58:\n      0x00\n      mload(0x40)\n      dup1\n      dup4\n      sub\n      dup2\n      0x00\n      dup7\n      gas\n      call\n      swap2\n      pop\n      pop\n      returndatasize\n      dup1\n      0x00\n      dup2\n      eq\n      tag_61\n      jumpi\n      mload(0x40)\n      swap2\n      pop\n      and(add(returndatasize, 0x3f), not(0x1f))\n      dup3\n      add\n      0x40\n      mstore\n      returndatasize\n      dup3\n      mstore\n      returndatasize\n      0x00\n      0x20\n      dup5\n      add\n      returndatacopy\n      jump(tag_60)\n    tag_61:\n      0x60\n      swap2\n      pop\n    tag_60:\n      pop\n        /* \"@uniswap/v3-periphery/contracts/libraries/TransferHelper.sol\":1985:2091  (bool success, bytes memory data) = token.call(abi.encodeWithSelector(IERC20.approve.selector, to, value)) */\n      swap2\n      pop\n      swap2\n      pop\n        /* \"@uniswap/v3-periphery/contracts/libraries/TransferHelper.sol\":2109:2116  success */\n      dup2\n        /* \"@uniswap/v3-periphery/contracts/libraries/TransferHelper.sol\":2109:2166  success && (data.length == 0 || abi.decode(data, (bool))) */\n      dup1\n      iszero\n      tag_62\n      jumpi\n      pop\n        /* \"@uniswap/v3-periphery/contracts/libraries/TransferHelper.sol\":2136:2137  0 */\n      0x00\n        /* \"@uniswap/v3-periphery/contracts/libraries/TransferHelper.sol\":2121:2125  data */\n      dup2\n        /* \"@uniswap/v3-periphery/contracts/libraries/TransferHelper.sol\":2121:2132  data.length */\n      mload\n        /* \"@uniswap/v3-periphery/contracts/libraries/TransferHelper.sol\":2121:2137  data.length == 0 */\n      eq\n        /* \"@uniswap/v3-periphery/contracts/libraries/TransferHelper.sol\":2121:2165  data.length == 0 || abi.decode(data, (bool)) */\n      dup1\n      tag_63\n      jumpi\n      pop\n        /* \"@uniswap/v3-periphery/contracts/libraries/TransferHelper.sol\":2152:2156  data */\n      dup1\n        /* \"@uniswap/v3-periphery/contracts/libraries/TransferHelper.sol\":2141:2165  abi.decode(data, (bool)) */\n      dup1\n      0x20\n      add\n      swap1\n      mload\n      dup2\n      add\n      swap1\n      tag_64\n      swap2\n      swap1\n      tag_51\n      jump\t// in\n    tag_64:\n        /* \"@uniswap/v3-periphery/contracts/libraries/TransferHelper.sol\":2121:2165  data.length == 0 || abi.decode(data, (bool)) */\n    tag_63:\n        /* \"@uniswap/v3-periphery/contracts/libraries/TransferHelper.sol\":2109:2166  success && (data.length == 0 || abi.decode(data, (bool))) */\n    tag_62:\n        /* \"@uniswap/v3-periphery/contracts/libraries/TransferHelper.sol\":2101:2173  require(success && (data.length == 0 || abi.decode(data, (bool))), 'SA') */\n      tag_65\n      jumpi\n      mload(0x40)\n      0x08c379a000000000000000000000000000000000000000000000000000000000\n      dup2\n      mstore\n      0x04\n      add\n      tag_66\n      swap1\n      tag_67\n      jump\t// in\n    tag_66:\n      mload(0x40)\n      dup1\n      swap2\n      sub\n      swap1\n      revert\n    tag_65:\n        /* \"@uniswap/v3-periphery/contracts/libraries/TransferHelper.sol\":1975:2180  {... */\n      pop\n      pop\n        /* \"@uniswap/v3-periphery/contracts/libraries/TransferHelper.sol\":1873:2180  function safeApprove(... */\n      pop\n      pop\n      pop\n      jump\t// out\n        /* \"#utility.yul\":7:133   */\n    tag_68:\n        /* \"#utility.yul\":44:51   */\n      0x00\n        /* \"#utility.yul\":84:126   */\n      0xffffffffffffffffffffffffffffffffffffffff\n        /* \"#utility.yul\":77:82   */\n      dup3\n        /* \"#utility.yul\":73:127   */\n      and\n        /* \"#utility.yul\":62:127   */\n      swap1\n      pop\n        /* \"#utility.yul\":7:133   */\n      swap2\n      swap1\n      pop\n      jump\t// out\n        /* \"#utility.yul\":139:235   */\n    tag_69:\n        /* \"#utility.yul\":176:183   */\n      0x00\n        /* \"#utility.yul\":205:229   */\n      tag_106\n        /* \"#utility.yul\":223:228   */\n      dup3\n        /* \"#utility.yul\":205:229   */\n      tag_68\n      jump\t// in\n    tag_106:\n        /* \"#utility.yul\":194:229   */\n      swap1\n      pop\n        /* \"#utility.yul\":139:235   */\n      swap2\n      swap1\n      pop\n      jump\t// out\n        /* \"#utility.yul\":241:359   */\n    tag_70:\n        /* \"#utility.yul\":328:352   */\n      tag_108\n        /* \"#utility.yul\":346:351   */\n      dup2\n        /* \"#utility.yul\":328:352   */\n      tag_69\n      jump\t// in\n    tag_108:\n        /* \"#utility.yul\":323:326   */\n      dup3\n        /* \"#utility.yul\":316:353   */\n      mstore\n        /* \"#utility.yul\":241:359   */\n      pop\n      pop\n      jump\t// out\n        /* \"#utility.yul\":365:587   */\n    tag_11:\n        /* \"#utility.yul\":458:462   */\n      0x00\n        /* \"#utility.yul\":496:498   */\n      0x20\n        /* \"#utility.yul\":485:494   */\n      dup3\n        /* \"#utility.yul\":481:499   */\n      add\n        /* \"#utility.yul\":473:499   */\n      swap1\n      pop\n        /* \"#utility.yul\":509:580   */\n      tag_110\n        /* \"#utility.yul\":577:578   */\n      0x00\n        /* \"#utility.yul\":566:575   */\n      dup4\n        /* \"#utility.yul\":562:579   */\n      add\n        /* \"#utility.yul\":553:559   */\n      dup5\n        /* \"#utility.yul\":509:580   */\n      tag_70\n      jump\t// in\n    tag_110:\n        /* \"#utility.yul\":365:587   */\n      swap3\n      swap2\n      pop\n      pop\n      jump\t// out\n        /* \"#utility.yul\":593:684   */\n    tag_71:\n        /* \"#utility.yul\":629:636   */\n      0x00\n        /* \"#utility.yul\":669:677   */\n      0xffffff\n        /* \"#utility.yul\":662:667   */\n      dup3\n        /* \"#utility.yul\":658:678   */\n      and\n        /* \"#utility.yul\":647:678   */\n      swap1\n      pop\n        /* \"#utility.yul\":593:684   */\n      swap2\n      swap1\n      pop\n      jump\t// out\n        /* \"#utility.yul\":690:805   */\n    tag_72:\n        /* \"#utility.yul\":775:798   */\n      tag_113\n        /* \"#utility.yul\":792:797   */\n      dup2\n        /* \"#utility.yul\":775:798   */\n      tag_71\n      jump\t// in\n    tag_113:\n        /* \"#utility.yul\":770:773   */\n      dup3\n        /* \"#utility.yul\":763:799   */\n      mstore\n        /* \"#utility.yul\":690:805   */\n      pop\n      pop\n      jump\t// out\n        /* \"#utility.yul\":811:1029   */\n    tag_15:\n        /* \"#utility.yul\":902:906   */\n      0x00\n        /* \"#utility.yul\":940:942   */\n      0x20\n        /* \"#utility.yul\":929:938   */\n      dup3\n        /* \"#utility.yul\":925:943   */\n      add\n        /* \"#utility.yul\":917:943   */\n      swap1\n      pop\n        /* \"#utility.yul\":953:1022   */\n      tag_115\n        /* \"#utility.yul\":1019:1020   */\n      0x00\n        /* \"#utility.yul\":1008:1017   */\n      dup4\n        /* \"#utility.yul\":1004:1021   */\n      add\n        /* \"#utility.yul\":995:1001   */\n      dup5\n        /* \"#utility.yul\":953:1022   */\n      tag_72\n      jump\t// in\n    tag_115:\n        /* \"#utility.yul\":811:1029   */\n      swap3\n      swap2\n      pop\n      pop\n      jump\t// out\n        /* \"#utility.yul\":1035:1095   */\n    tag_73:\n        /* \"#utility.yul\":1063:1066   */\n      0x00\n        /* \"#utility.yul\":1084:1089   */\n      dup2\n        /* \"#utility.yul\":1077:1089   */\n      swap1\n      pop\n        /* \"#utility.yul\":1035:1095   */\n      swap2\n      swap1\n      pop\n      jump\t// out\n        /* \"#utility.yul\":1101:1243   */\n    tag_74:\n        /* \"#utility.yul\":1151:1160   */\n      0x00\n        /* \"#utility.yul\":1184:1237   */\n      tag_118\n        /* \"#utility.yul\":1202:1236   */\n      tag_119\n        /* \"#utility.yul\":1211:1235   */\n      tag_120\n        /* \"#utility.yul\":1229:1234   */\n      dup5\n        /* \"#utility.yul\":1211:1235   */\n      tag_68\n      jump\t// in\n    tag_120:\n        /* \"#utility.yul\":1202:1236   */\n      tag_73\n      jump\t// in\n    tag_119:\n        /* \"#utility.yul\":1184:1237   */\n      tag_68\n      jump\t// in\n    tag_118:\n        /* \"#utility.yul\":1171:1237   */\n      swap1\n      pop\n        /* \"#utility.yul\":1101:1243   */\n      swap2\n      swap1\n      pop\n      jump\t// out\n        /* \"#utility.yul\":1249:1375   */\n    tag_75:\n        /* \"#utility.yul\":1299:1308   */\n      0x00\n        /* \"#utility.yul\":1332:1369   */\n      tag_122\n        /* \"#utility.yul\":1363:1368   */\n      dup3\n        /* \"#utility.yul\":1332:1369   */\n      tag_74\n      jump\t// in\n    tag_122:\n        /* \"#utility.yul\":1319:1369   */\n      swap1\n      pop\n        /* \"#utility.yul\":1249:1375   */\n      swap2\n      swap1\n      pop\n      jump\t// out\n        /* \"#utility.yul\":1381:1526   */\n    tag_76:\n        /* \"#utility.yul\":1450:1459   */\n      0x00\n        /* \"#utility.yul\":1483:1520   */\n      tag_124\n        /* \"#utility.yul\":1514:1519   */\n      dup3\n        /* \"#utility.yul\":1483:1520   */\n      tag_75\n      jump\t// in\n    tag_124:\n        /* \"#utility.yul\":1470:1520   */\n      swap1\n      pop\n        /* \"#utility.yul\":1381:1526   */\n      swap2\n      swap1\n      pop\n      jump\t// out\n        /* \"#utility.yul\":1532:1701   */\n    tag_77:\n        /* \"#utility.yul\":1638:1694   */\n      tag_126\n        /* \"#utility.yul\":1688:1693   */\n      dup2\n        /* \"#utility.yul\":1638:1694   */\n      tag_76\n      jump\t// in\n    tag_126:\n        /* \"#utility.yul\":1633:1636   */\n      dup3\n        /* \"#utility.yul\":1626:1695   */\n      mstore\n        /* \"#utility.yul\":1532:1701   */\n      pop\n      pop\n      jump\t// out\n        /* \"#utility.yul\":1707:1967   */\n    tag_22:\n        /* \"#utility.yul\":1819:1823   */\n      0x00\n        /* \"#utility.yul\":1857:1859   */\n      0x20\n        /* \"#utility.yul\":1846:1855   */\n      dup3\n        /* \"#utility.yul\":1842:1860   */\n      add\n        /* \"#utility.yul\":1834:1860   */\n      swap1\n      pop\n        /* \"#utility.yul\":1870:1960   */\n      tag_128\n        /* \"#utility.yul\":1957:1958   */\n      0x00\n        /* \"#utility.yul\":1946:1955   */\n      dup4\n        /* \"#utility.yul\":1942:1959   */\n      add\n        /* \"#utility.yul\":1933:1939   */\n      dup5\n        /* \"#utility.yul\":1870:1960   */\n      tag_77\n      jump\t// in\n    tag_128:\n        /* \"#utility.yul\":1707:1967   */\n      swap3\n      swap2\n      pop\n      pop\n      jump\t// out\n        /* \"#utility.yul\":2054:2171   */\n    tag_79:\n        /* \"#utility.yul\":2163:2164   */\n      0x00\n        /* \"#utility.yul\":2160:2161   */\n      dup1\n        /* \"#utility.yul\":2153:2165   */\n      revert\n        /* \"#utility.yul\":2300:2377   */\n    tag_81:\n        /* \"#utility.yul\":2337:2344   */\n      0x00\n        /* \"#utility.yul\":2366:2371   */\n      dup2\n        /* \"#utility.yul\":2355:2371   */\n      swap1\n      pop\n        /* \"#utility.yul\":2300:2377   */\n      swap2\n      swap1\n      pop\n      jump\t// out\n        /* \"#utility.yul\":2383:2505   */\n    tag_82:\n        /* \"#utility.yul\":2456:2480   */\n      tag_134\n        /* \"#utility.yul\":2474:2479   */\n      dup2\n        /* \"#utility.yul\":2456:2480   */\n      tag_81\n      jump\t// in\n    tag_134:\n        /* \"#utility.yul\":2449:2454   */\n      dup2\n        /* \"#utility.yul\":2446:2481   */\n      eq\n        /* \"#utility.yul\":2436:2499   */\n      tag_135\n      jumpi\n        /* \"#utility.yul\":2495:2496   */\n      0x00\n        /* \"#utility.yul\":2492:2493   */\n      dup1\n        /* \"#utility.yul\":2485:2497   */\n      revert\n        /* \"#utility.yul\":2436:2499   */\n    tag_135:\n        /* \"#utility.yul\":2383:2505   */\n      pop\n      jump\t// out\n        /* \"#utility.yul\":2511:2650   */\n    tag_83:\n        /* \"#utility.yul\":2557:2562   */\n      0x00\n        /* \"#utility.yul\":2595:2601   */\n      dup2\n        /* \"#utility.yul\":2582:2602   */\n      calldataload\n        /* \"#utility.yul\":2573:2602   */\n      swap1\n      pop\n        /* \"#utility.yul\":2611:2644   */\n      tag_137\n        /* \"#utility.yul\":2638:2643   */\n      dup2\n        /* \"#utility.yul\":2611:2644   */\n      tag_82\n      jump\t// in\n    tag_137:\n        /* \"#utility.yul\":2511:2650   */\n      swap3\n      swap2\n      pop\n      pop\n      jump\t// out\n        /* \"#utility.yul\":2656:2985   */\n    tag_25:\n        /* \"#utility.yul\":2715:2721   */\n      0x00\n        /* \"#utility.yul\":2764:2766   */\n      0x20\n        /* \"#utility.yul\":2752:2761   */\n      dup3\n        /* \"#utility.yul\":2743:2750   */\n      dup5\n        /* \"#utility.yul\":2739:2762   */\n      sub\n        /* \"#utility.yul\":2735:2767   */\n      slt\n        /* \"#utility.yul\":2732:2851   */\n      iszero\n      tag_139\n      jumpi\n        /* \"#utility.yul\":2770:2849   */\n      tag_140\n      tag_79\n      jump\t// in\n    tag_140:\n        /* \"#utility.yul\":2732:2851   */\n    tag_139:\n        /* \"#utility.yul\":2890:2891   */\n      0x00\n        /* \"#utility.yul\":2915:2968   */\n      tag_141\n        /* \"#utility.yul\":2960:2967   */\n      dup5\n        /* \"#utility.yul\":2951:2957   */\n      dup3\n        /* \"#utility.yul\":2940:2949   */\n      dup6\n        /* \"#utility.yul\":2936:2958   */\n      add\n        /* \"#utility.yul\":2915:2968   */\n      tag_83\n      jump\t// in\n    tag_141:\n        /* \"#utility.yul\":2905:2968   */\n      swap2\n      pop\n        /* \"#utility.yul\":2861:2978   */\n      pop\n        /* \"#utility.yul\":2656:2985   */\n      swap3\n      swap2\n      pop\n      pop\n      jump\t// out\n        /* \"#utility.yul\":2991:3109   */\n    tag_84:\n        /* \"#utility.yul\":3078:3102   */\n      tag_143\n        /* \"#utility.yul\":3096:3101   */\n      dup2\n        /* \"#utility.yul\":3078:3102   */\n      tag_81\n      jump\t// in\n    tag_143:\n        /* \"#utility.yul\":3073:3076   */\n      dup3\n        /* \"#utility.yul\":3066:3103   */\n      mstore\n        /* \"#utility.yul\":2991:3109   */\n      pop\n      pop\n      jump\t// out\n        /* \"#utility.yul\":3115:3337   */\n    tag_28:\n        /* \"#utility.yul\":3208:3212   */\n      0x00\n        /* \"#utility.yul\":3246:3248   */\n      0x20\n        /* \"#utility.yul\":3235:3244   */\n      dup3\n        /* \"#utility.yul\":3231:3249   */\n      add\n        /* \"#utility.yul\":3223:3249   */\n      swap1\n      pop\n        /* \"#utility.yul\":3259:3330   */\n      tag_145\n        /* \"#utility.yul\":3327:3328   */\n      0x00\n        /* \"#utility.yul\":3316:3325   */\n      dup4\n        /* \"#utility.yul\":3312:3329   */\n      add\n        /* \"#utility.yul\":3303:3309   */\n      dup5\n        /* \"#utility.yul\":3259:3330   */\n      tag_84\n      jump\t// in\n    tag_145:\n        /* \"#utility.yul\":3115:3337   */\n      swap3\n      swap2\n      pop\n      pop\n      jump\t// out\n        /* \"#utility.yul\":3343:3451   */\n    tag_85:\n        /* \"#utility.yul\":3420:3444   */\n      tag_147\n        /* \"#utility.yul\":3438:3443   */\n      dup2\n        /* \"#utility.yul\":3420:3444   */\n      tag_69\n      jump\t// in\n    tag_147:\n        /* \"#utility.yul\":3415:3418   */\n      dup3\n        /* \"#utility.yul\":3408:3445   */\n      mstore\n        /* \"#utility.yul\":3343:3451   */\n      pop\n      pop\n      jump\t// out\n        /* \"#utility.yul\":3457:3562   */\n    tag_86:\n        /* \"#utility.yul\":3532:3555   */\n      tag_149\n        /* \"#utility.yul\":3549:3554   */\n      dup2\n        /* \"#utility.yul\":3532:3555   */\n      tag_71\n      jump\t// in\n    tag_149:\n        /* \"#utility.yul\":3527:3530   */\n      dup3\n        /* \"#utility.yul\":3520:3556   */\n      mstore\n        /* \"#utility.yul\":3457:3562   */\n      pop\n      pop\n      jump\t// out\n        /* \"#utility.yul\":3568:3676   */\n    tag_87:\n        /* \"#utility.yul\":3645:3669   */\n      tag_151\n        /* \"#utility.yul\":3663:3668   */\n      dup2\n        /* \"#utility.yul\":3645:3669   */\n      tag_81\n      jump\t// in\n    tag_151:\n        /* \"#utility.yul\":3640:3643   */\n      dup3\n        /* \"#utility.yul\":3633:3670   */\n      mstore\n        /* \"#utility.yul\":3568:3676   */\n      pop\n      pop\n      jump\t// out\n        /* \"#utility.yul\":3682:3790   */\n    tag_88:\n        /* \"#utility.yul\":3759:3783   */\n      tag_153\n        /* \"#utility.yul\":3777:3782   */\n      dup2\n        /* \"#utility.yul\":3759:3783   */\n      tag_68\n      jump\t// in\n    tag_153:\n        /* \"#utility.yul\":3754:3757   */\n      dup3\n        /* \"#utility.yul\":3747:3784   */\n      mstore\n        /* \"#utility.yul\":3682:3790   */\n      pop\n      pop\n      jump\t// out\n        /* \"#utility.yul\":3890:5513   */\n    tag_89:\n        /* \"#utility.yul\":4065:4071   */\n      0x0100\n        /* \"#utility.yul\":4060:4063   */\n      dup3\n        /* \"#utility.yul\":4056:4072   */\n      add\n        /* \"#utility.yul\":4157:4161   */\n      0x00\n        /* \"#utility.yul\":4150:4155   */\n      dup3\n        /* \"#utility.yul\":4146:4162   */\n      add\n        /* \"#utility.yul\":4140:4163   */\n      mload\n        /* \"#utility.yul\":4176:4239   */\n      tag_155\n        /* \"#utility.yul\":4233:4237   */\n      0x00\n        /* \"#utility.yul\":4228:4231   */\n      dup6\n        /* \"#utility.yul\":4224:4238   */\n      add\n        /* \"#utility.yul\":4210:4222   */\n      dup3\n        /* \"#utility.yul\":4176:4239   */\n      tag_85\n      jump\t// in\n    tag_155:\n        /* \"#utility.yul\":4082:4249   */\n      pop\n        /* \"#utility.yul\":4335:4339   */\n      0x20\n        /* \"#utility.yul\":4328:4333   */\n      dup3\n        /* \"#utility.yul\":4324:4340   */\n      add\n        /* \"#utility.yul\":4318:4341   */\n      mload\n        /* \"#utility.yul\":4354:4417   */\n      tag_156\n        /* \"#utility.yul\":4411:4415   */\n      0x20\n        /* \"#utility.yul\":4406:4409   */\n      dup6\n        /* \"#utility.yul\":4402:4416   */\n      add\n        /* \"#utility.yul\":4388:4400   */\n      dup3\n        /* \"#utility.yul\":4354:4417   */\n      tag_85\n      jump\t// in\n    tag_156:\n        /* \"#utility.yul\":4259:4427   */\n      pop\n        /* \"#utility.yul\":4508:4512   */\n      0x40\n        /* \"#utility.yul\":4501:4506   */\n      dup3\n        /* \"#utility.yul\":4497:4513   */\n      add\n        /* \"#utility.yul\":4491:4514   */\n      mload\n        /* \"#utility.yul\":4527:4588   */\n      tag_157\n        /* \"#utility.yul\":4582:4586   */\n      0x40\n        /* \"#utility.yul\":4577:4580   */\n      dup6\n        /* \"#utility.yul\":4573:4587   */\n      add\n        /* \"#utility.yul\":4559:4571   */\n      dup3\n        /* \"#utility.yul\":4527:4588   */\n      tag_86\n      jump\t// in\n    tag_157:\n        /* \"#utility.yul\":4437:4598   */\n      pop\n        /* \"#utility.yul\":4685:4689   */\n      0x60\n        /* \"#utility.yul\":4678:4683   */\n      dup3\n        /* \"#utility.yul\":4674:4690   */\n      add\n        /* \"#utility.yul\":4668:4691   */\n      mload\n        /* \"#utility.yul\":4704:4767   */\n      tag_158\n        /* \"#utility.yul\":4761:4765   */\n      0x60\n        /* \"#utility.yul\":4756:4759   */\n      dup6\n        /* \"#utility.yul\":4752:4766   */\n      add\n        /* \"#utility.yul\":4738:4750   */\n      dup3\n        /* \"#utility.yul\":4704:4767   */\n      tag_85\n      jump\t// in\n    tag_158:\n        /* \"#utility.yul\":4608:4777   */\n      pop\n        /* \"#utility.yul\":4863:4867   */\n      0x80\n        /* \"#utility.yul\":4856:4861   */\n      dup3\n        /* \"#utility.yul\":4852:4868   */\n      add\n        /* \"#utility.yul\":4846:4869   */\n      mload\n        /* \"#utility.yul\":4882:4945   */\n      tag_159\n        /* \"#utility.yul\":4939:4943   */\n      0x80\n        /* \"#utility.yul\":4934:4937   */\n      dup6\n        /* \"#utility.yul\":4930:4944   */\n      add\n        /* \"#utility.yul\":4916:4928   */\n      dup3\n        /* \"#utility.yul\":4882:4945   */\n      tag_87\n      jump\t// in\n    tag_159:\n        /* \"#utility.yul\":4787:4955   */\n      pop\n        /* \"#utility.yul\":5041:5045   */\n      0xa0\n        /* \"#utility.yul\":5034:5039   */\n      dup3\n        /* \"#utility.yul\":5030:5046   */\n      add\n        /* \"#utility.yul\":5024:5047   */\n      mload\n        /* \"#utility.yul\":5060:5123   */\n      tag_160\n        /* \"#utility.yul\":5117:5121   */\n      0xa0\n        /* \"#utility.yul\":5112:5115   */\n      dup6\n        /* \"#utility.yul\":5108:5122   */\n      add\n        /* \"#utility.yul\":5094:5106   */\n      dup3\n        /* \"#utility.yul\":5060:5123   */\n      tag_87\n      jump\t// in\n    tag_160:\n        /* \"#utility.yul\":4965:5133   */\n      pop\n        /* \"#utility.yul\":5227:5231   */\n      0xc0\n        /* \"#utility.yul\":5220:5225   */\n      dup3\n        /* \"#utility.yul\":5216:5232   */\n      add\n        /* \"#utility.yul\":5210:5233   */\n      mload\n        /* \"#utility.yul\":5246:5309   */\n      tag_161\n        /* \"#utility.yul\":5303:5307   */\n      0xc0\n        /* \"#utility.yul\":5298:5301   */\n      dup6\n        /* \"#utility.yul\":5294:5308   */\n      add\n        /* \"#utility.yul\":5280:5292   */\n      dup3\n        /* \"#utility.yul\":5246:5309   */\n      tag_87\n      jump\t// in\n    tag_161:\n        /* \"#utility.yul\":5143:5319   */\n      pop\n        /* \"#utility.yul\":5414:5418   */\n      0xe0\n        /* \"#utility.yul\":5407:5412   */\n      dup3\n        /* \"#utility.yul\":5403:5419   */\n      add\n        /* \"#utility.yul\":5397:5420   */\n      mload\n        /* \"#utility.yul\":5433:5496   */\n      tag_162\n        /* \"#utility.yul\":5490:5494   */\n      0xe0\n        /* \"#utility.yul\":5485:5488   */\n      dup6\n        /* \"#utility.yul\":5481:5495   */\n      add\n        /* \"#utility.yul\":5467:5479   */\n      dup3\n        /* \"#utility.yul\":5433:5496   */\n      tag_88\n      jump\t// in\n    tag_162:\n        /* \"#utility.yul\":5329:5506   */\n      pop\n        /* \"#utility.yul\":4034:5513   */\n      pop\n        /* \"#utility.yul\":3890:5513   */\n      pop\n      pop\n      jump\t// out\n        /* \"#utility.yul\":5519:5898   */\n    tag_35:\n        /* \"#utility.yul\":5690:5694   */\n      0x00\n        /* \"#utility.yul\":5728:5731   */\n      0x0100\n        /* \"#utility.yul\":5717:5726   */\n      dup3\n        /* \"#utility.yul\":5713:5732   */\n      add\n        /* \"#utility.yul\":5705:5732   */\n      swap1\n      pop\n        /* \"#utility.yul\":5742:5891   */\n      tag_164\n        /* \"#utility.yul\":5888:5889   */\n      0x00\n        /* \"#utility.yul\":5877:5886   */\n      dup4\n        /* \"#utility.yul\":5873:5890   */\n      add\n        /* \"#utility.yul\":5864:5870   */\n      dup5\n        /* \"#utility.yul\":5742:5891   */\n      tag_89\n      jump\t// in\n    tag_164:\n        /* \"#utility.yul\":5519:5898   */\n      swap3\n      swap2\n      pop\n      pop\n      jump\t// out\n        /* \"#utility.yul\":5904:6047   */\n    tag_90:\n        /* \"#utility.yul\":5961:5966   */\n      0x00\n        /* \"#utility.yul\":5992:5998   */\n      dup2\n        /* \"#utility.yul\":5986:5999   */\n      mload\n        /* \"#utility.yul\":5977:5999   */\n      swap1\n      pop\n        /* \"#utility.yul\":6008:6041   */\n      tag_166\n        /* \"#utility.yul\":6035:6040   */\n      dup2\n        /* \"#utility.yul\":6008:6041   */\n      tag_82\n      jump\t// in\n    tag_166:\n        /* \"#utility.yul\":5904:6047   */\n      swap3\n      swap2\n      pop\n      pop\n      jump\t// out\n        /* \"#utility.yul\":6053:6404   */\n    tag_39:\n        /* \"#utility.yul\":6123:6129   */\n      0x00\n        /* \"#utility.yul\":6172:6174   */\n      0x20\n        /* \"#utility.yul\":6160:6169   */\n      dup3\n        /* \"#utility.yul\":6151:6158   */\n      dup5\n        /* \"#utility.yul\":6147:6170   */\n      sub\n        /* \"#utility.yul\":6143:6175   */\n      slt\n        /* \"#utility.yul\":6140:6259   */\n      iszero\n      tag_168\n      jumpi\n        /* \"#utility.yul\":6178:6257   */\n      tag_169\n      tag_79\n      jump\t// in\n    tag_169:\n        /* \"#utility.yul\":6140:6259   */\n    tag_168:\n        /* \"#utility.yul\":6298:6299   */\n      0x00\n        /* \"#utility.yul\":6323:6387   */\n      tag_170\n        /* \"#utility.yul\":6379:6386   */\n      dup5\n        /* \"#utility.yul\":6370:6376   */\n      dup3\n        /* \"#utility.yul\":6359:6368   */\n      dup6\n        /* \"#utility.yul\":6355:6377   */\n      add\n        /* \"#utility.yul\":6323:6387   */\n      tag_90\n      jump\t// in\n    tag_170:\n        /* \"#utility.yul\":6313:6387   */\n      swap2\n      pop\n        /* \"#utility.yul\":6269:6397   */\n      pop\n        /* \"#utility.yul\":6053:6404   */\n      swap3\n      swap2\n      pop\n      pop\n      jump\t// out\n        /* \"#utility.yul\":6410:6852   */\n    tag_42:\n        /* \"#utility.yul\":6559:6563   */\n      0x00\n        /* \"#utility.yul\":6597:6599   */\n      0x60\n        /* \"#utility.yul\":6586:6595   */\n      dup3\n        /* \"#utility.yul\":6582:6600   */\n      add\n        /* \"#utility.yul\":6574:6600   */\n      swap1\n      pop\n        /* \"#utility.yul\":6610:6681   */\n      tag_172\n        /* \"#utility.yul\":6678:6679   */\n      0x00\n        /* \"#utility.yul\":6667:6676   */\n      dup4\n        /* \"#utility.yul\":6663:6680   */\n      add\n        /* \"#utility.yul\":6654:6660   */\n      dup7\n        /* \"#utility.yul\":6610:6681   */\n      tag_70\n      jump\t// in\n    tag_172:\n        /* \"#utility.yul\":6691:6763   */\n      tag_173\n        /* \"#utility.yul\":6759:6761   */\n      0x20\n        /* \"#utility.yul\":6748:6757   */\n      dup4\n        /* \"#utility.yul\":6744:6762   */\n      add\n        /* \"#utility.yul\":6735:6741   */\n      dup6\n        /* \"#utility.yul\":6691:6763   */\n      tag_70\n      jump\t// in\n    tag_173:\n        /* \"#utility.yul\":6773:6845   */\n      tag_174\n        /* \"#utility.yul\":6841:6843   */\n      0x40\n        /* \"#utility.yul\":6830:6839   */\n      dup4\n        /* \"#utility.yul\":6826:6844   */\n      add\n        /* \"#utility.yul\":6817:6823   */\n      dup5\n        /* \"#utility.yul\":6773:6845   */\n      tag_84\n      jump\t// in\n    tag_174:\n        /* \"#utility.yul\":6410:6852   */\n      swap5\n      swap4\n      pop\n      pop\n      pop\n      pop\n      jump\t// out\n        /* \"#utility.yul\":6858:6956   */\n    tag_91:\n        /* \"#utility.yul\":6909:6915   */\n      0x00\n        /* \"#utility.yul\":6943:6948   */\n      dup2\n        /* \"#utility.yul\":6937:6949   */\n      mload\n        /* \"#utility.yul\":6927:6949   */\n      swap1\n      pop\n        /* \"#utility.yul\":6858:6956   */\n      swap2\n      swap1\n      pop\n      jump\t// out\n        /* \"#utility.yul\":6962:7109   */\n    tag_92:\n        /* \"#utility.yul\":7063:7074   */\n      0x00\n        /* \"#utility.yul\":7100:7103   */\n      dup2\n        /* \"#utility.yul\":7085:7103   */\n      swap1\n      pop\n        /* \"#utility.yul\":6962:7109   */\n      swap3\n      swap2\n      pop\n      pop\n      jump\t// out\n        /* \"#utility.yul\":7115:7254   */\n    tag_93:\n        /* \"#utility.yul\":7204:7210   */\n      dup3\n        /* \"#utility.yul\":7199:7202   */\n      dup2\n        /* \"#utility.yul\":7194:7197   */\n      dup4\n        /* \"#utility.yul\":7188:7211   */\n      mcopy\n        /* \"#utility.yul\":7245:7246   */\n      0x00\n        /* \"#utility.yul\":7236:7242   */\n      dup4\n        /* \"#utility.yul\":7231:7234   */\n      dup4\n        /* \"#utility.yul\":7227:7243   */\n      add\n        /* \"#utility.yul\":7220:7247   */\n      mstore\n        /* \"#utility.yul\":7115:7254   */\n      pop\n      pop\n      pop\n      jump\t// out\n        /* \"#utility.yul\":7260:7646   */\n    tag_94:\n        /* \"#utility.yul\":7364:7367   */\n      0x00\n        /* \"#utility.yul\":7392:7430   */\n      tag_179\n        /* \"#utility.yul\":7424:7429   */\n      dup3\n        /* \"#utility.yul\":7392:7430   */\n      tag_91\n      jump\t// in\n    tag_179:\n        /* \"#utility.yul\":7446:7534   */\n      tag_180\n        /* \"#utility.yul\":7527:7533   */\n      dup2\n        /* \"#utility.yul\":7522:7525   */\n      dup6\n        /* \"#utility.yul\":7446:7534   */\n      tag_92\n      jump\t// in\n    tag_180:\n        /* \"#utility.yul\":7439:7534   */\n      swap4\n      pop\n        /* \"#utility.yul\":7543:7608   */\n      tag_181\n        /* \"#utility.yul\":7601:7607   */\n      dup2\n        /* \"#utility.yul\":7596:7599   */\n      dup6\n        /* \"#utility.yul\":7589:7593   */\n      0x20\n        /* \"#utility.yul\":7582:7587   */\n      dup7\n        /* \"#utility.yul\":7578:7594   */\n      add\n        /* \"#utility.yul\":7543:7608   */\n      tag_93\n      jump\t// in\n    tag_181:\n        /* \"#utility.yul\":7633:7639   */\n      dup1\n        /* \"#utility.yul\":7628:7631   */\n      dup5\n        /* \"#utility.yul\":7624:7640   */\n      add\n        /* \"#utility.yul\":7617:7640   */\n      swap2\n      pop\n        /* \"#utility.yul\":7368:7646   */\n      pop\n        /* \"#utility.yul\":7260:7646   */\n      swap3\n      swap2\n      pop\n      pop\n      jump\t// out\n        /* \"#utility.yul\":7652:7923   */\n    tag_44:\n        /* \"#utility.yul\":7782:7785   */\n      0x00\n        /* \"#utility.yul\":7804:7897   */\n      tag_183\n        /* \"#utility.yul\":7893:7896   */\n      dup3\n        /* \"#utility.yul\":7884:7890   */\n      dup5\n        /* \"#utility.yul\":7804:7897   */\n      tag_94\n      jump\t// in\n    tag_183:\n        /* \"#utility.yul\":7797:7897   */\n      swap2\n      pop\n        /* \"#utility.yul\":7914:7917   */\n      dup2\n        /* \"#utility.yul\":7907:7917   */\n      swap1\n      pop\n        /* \"#utility.yul\":7652:7923   */\n      swap3\n      swap2\n      pop\n      pop\n      jump\t// out\n        /* \"#utility.yul\":7929:8019   */\n    tag_95:\n        /* \"#utility.yul\":7963:7970   */\n      0x00\n        /* \"#utility.yul\":8006:8011   */\n      dup2\n        /* \"#utility.yul\":7999:8012   */\n      iszero\n        /* \"#utility.yul\":7992:8013   */\n      iszero\n        /* \"#utility.yul\":7981:8013   */\n      swap1\n      pop\n        /* \"#utility.yul\":7929:8019   */\n      swap2\n      swap1\n      pop\n      jump\t// out\n        /* \"#utility.yul\":8025:8141   */\n    tag_96:\n        /* \"#utility.yul\":8095:8116   */\n      tag_186\n        /* \"#utility.yul\":8110:8115   */\n      dup2\n        /* \"#utility.yul\":8095:8116   */\n      tag_95\n      jump\t// in\n    tag_186:\n        /* \"#utility.yul\":8088:8093   */\n      dup2\n        /* \"#utility.yul\":8085:8117   */\n      eq\n        /* \"#utility.yul\":8075:8135   */\n      tag_187\n      jumpi\n        /* \"#utility.yul\":8131:8132   */\n      0x00\n        /* \"#utility.yul\":8128:8129   */\n      dup1\n        /* \"#utility.yul\":8121:8133   */\n      revert\n        /* \"#utility.yul\":8075:8135   */\n    tag_187:\n        /* \"#utility.yul\":8025:8141   */\n      pop\n      jump\t// out\n        /* \"#utility.yul\":8147:8284   */\n    tag_97:\n        /* \"#utility.yul\":8201:8206   */\n      0x00\n        /* \"#utility.yul\":8232:8238   */\n      dup2\n        /* \"#utility.yul\":8226:8239   */\n      mload\n        /* \"#utility.yul\":8217:8239   */\n      swap1\n      pop\n        /* \"#utility.yul\":8248:8278   */\n      tag_189\n        /* \"#utility.yul\":8272:8277   */\n      dup2\n        /* \"#utility.yul\":8248:8278   */\n      tag_96\n      jump\t// in\n    tag_189:\n        /* \"#utility.yul\":8147:8284   */\n      swap3\n      swap2\n      pop\n      pop\n      jump\t// out\n        /* \"#utility.yul\":8290:8635   */\n    tag_51:\n        /* \"#utility.yul\":8357:8363   */\n      0x00\n        /* \"#utility.yul\":8406:8408   */\n      0x20\n        /* \"#utility.yul\":8394:8403   */\n      dup3\n        /* \"#utility.yul\":8385:8392   */\n      dup5\n        /* \"#utility.yul\":8381:8404   */\n      sub\n        /* \"#utility.yul\":8377:8409   */\n      slt\n        /* \"#utility.yul\":8374:8493   */\n      iszero\n      tag_191\n      jumpi\n        /* \"#utility.yul\":8412:8491   */\n      tag_192\n      tag_79\n      jump\t// in\n    tag_192:\n        /* \"#utility.yul\":8374:8493   */\n    tag_191:\n        /* \"#utility.yul\":8532:8533   */\n      0x00\n        /* \"#utility.yul\":8557:8618   */\n      tag_193\n        /* \"#utility.yul\":8610:8617   */\n      dup5\n        /* \"#utility.yul\":8601:8607   */\n      dup3\n        /* \"#utility.yul\":8590:8599   */\n      dup6\n        /* \"#utility.yul\":8586:8608   */\n      add\n        /* \"#utility.yul\":8557:8618   */\n      tag_97\n      jump\t// in\n    tag_193:\n        /* \"#utility.yul\":8547:8618   */\n      swap2\n      pop\n        /* \"#utility.yul\":8503:8628   */\n      pop\n        /* \"#utility.yul\":8290:8635   */\n      swap3\n      swap2\n      pop\n      pop\n      jump\t// out\n        /* \"#utility.yul\":8641:8810   */\n    tag_98:\n        /* \"#utility.yul\":8725:8736   */\n      0x00\n        /* \"#utility.yul\":8759:8765   */\n      dup3\n        /* \"#utility.yul\":8754:8757   */\n      dup3\n        /* \"#utility.yul\":8747:8766   */\n      mstore\n        /* \"#utility.yul\":8799:8803   */\n      0x20\n        /* \"#utility.yul\":8794:8797   */\n      dup3\n        /* \"#utility.yul\":8790:8804   */\n      add\n        /* \"#utility.yul\":8775:8804   */\n      swap1\n      pop\n        /* \"#utility.yul\":8641:8810   */\n      swap3\n      swap2\n      pop\n      pop\n      jump\t// out\n        /* \"#utility.yul\":8816:8969   */\n    tag_99:\n        /* \"#utility.yul\":8956:8961   */\n      0x5354460000000000000000000000000000000000000000000000000000000000\n        /* \"#utility.yul\":8952:8953   */\n      0x00\n        /* \"#utility.yul\":8944:8950   */\n      dup3\n        /* \"#utility.yul\":8940:8954   */\n      add\n        /* \"#utility.yul\":8933:8962   */\n      mstore\n        /* \"#utility.yul\":8816:8969   */\n      pop\n      jump\t// out\n        /* \"#utility.yul\":8975:9340   */\n    tag_100:\n        /* \"#utility.yul\":9117:9120   */\n      0x00\n        /* \"#utility.yul\":9138:9204   */\n      tag_197\n        /* \"#utility.yul\":9202:9203   */\n      0x03\n        /* \"#utility.yul\":9197:9200   */\n      dup4\n        /* \"#utility.yul\":9138:9204   */\n      tag_98\n      jump\t// in\n    tag_197:\n        /* \"#utility.yul\":9131:9204   */\n      swap2\n      pop\n        /* \"#utility.yul\":9213:9306   */\n      tag_198\n        /* \"#utility.yul\":9302:9305   */\n      dup3\n        /* \"#utility.yul\":9213:9306   */\n      tag_99\n      jump\t// in\n    tag_198:\n        /* \"#utility.yul\":9331:9333   */\n      0x20\n        /* \"#utility.yul\":9326:9329   */\n      dup3\n        /* \"#utility.yul\":9322:9334   */\n      add\n        /* \"#utility.yul\":9315:9334   */\n      swap1\n      pop\n        /* \"#utility.yul\":8975:9340   */\n      swap2\n      swap1\n      pop\n      jump\t// out\n        /* \"#utility.yul\":9346:9765   */\n    tag_54:\n        /* \"#utility.yul\":9512:9516   */\n      0x00\n        /* \"#utility.yul\":9550:9552   */\n      0x20\n        /* \"#utility.yul\":9539:9548   */\n      dup3\n        /* \"#utility.yul\":9535:9553   */\n      add\n        /* \"#utility.yul\":9527:9553   */\n      swap1\n      pop\n        /* \"#utility.yul\":9599:9608   */\n      dup2\n        /* \"#utility.yul\":9593:9597   */\n      dup2\n        /* \"#utility.yul\":9589:9609   */\n      sub\n        /* \"#utility.yul\":9585:9586   */\n      0x00\n        /* \"#utility.yul\":9574:9583   */\n      dup4\n        /* \"#utility.yul\":9570:9587   */\n      add\n        /* \"#utility.yul\":9563:9610   */\n      mstore\n        /* \"#utility.yul\":9627:9758   */\n      tag_200\n        /* \"#utility.yul\":9753:9757   */\n      dup2\n        /* \"#utility.yul\":9627:9758   */\n      tag_100\n      jump\t// in\n    tag_200:\n        /* \"#utility.yul\":9619:9758   */\n      swap1\n      pop\n        /* \"#utility.yul\":9346:9765   */\n      swap2\n      swap1\n      pop\n      jump\t// out\n        /* \"#utility.yul\":9771:10103   */\n    tag_57:\n        /* \"#utility.yul\":9892:9896   */\n      0x00\n        /* \"#utility.yul\":9930:9932   */\n      0x40\n        /* \"#utility.yul\":9919:9928   */\n      dup3\n        /* \"#utility.yul\":9915:9933   */\n      add\n        /* \"#utility.yul\":9907:9933   */\n      swap1\n      pop\n        /* \"#utility.yul\":9943:10014   */\n      tag_202\n        /* \"#utility.yul\":10011:10012   */\n      0x00\n        /* \"#utility.yul\":10000:10009   */\n      dup4\n        /* \"#utility.yul\":9996:10013   */\n      add\n        /* \"#utility.yul\":9987:9993   */\n      dup6\n        /* \"#utility.yul\":9943:10014   */\n      tag_70\n      jump\t// in\n    tag_202:\n        /* \"#utility.yul\":10024:10096   */\n      tag_203\n        /* \"#utility.yul\":10092:10094   */\n      0x20\n        /* \"#utility.yul\":10081:10090   */\n      dup4\n        /* \"#utility.yul\":10077:10095   */\n      add\n        /* \"#utility.yul\":10068:10074   */\n      dup5\n        /* \"#utility.yul\":10024:10096   */\n      tag_84\n      jump\t// in\n    tag_203:\n        /* \"#utility.yul\":9771:10103   */\n      swap4\n      swap3\n      pop\n      pop\n      pop\n      jump\t// out\n        /* \"#utility.yul\":10109:10261   */\n    tag_101:\n        /* \"#utility.yul\":10249:10253   */\n      0x5341000000000000000000000000000000000000000000000000000000000000\n        /* \"#utility.yul\":10245:10246   */\n      0x00\n        /* \"#utility.yul\":10237:10243   */\n      dup3\n        /* \"#utility.yul\":10233:10247   */\n      add\n        /* \"#utility.yul\":10226:10254   */\n      mstore\n        /* \"#utility.yul\":10109:10261   */\n      pop\n      jump\t// out\n        /* \"#utility.yul\":10267:10632   */\n    tag_102:\n        /* \"#utility.yul\":10409:10412   */\n      0x00\n        /* \"#utility.yul\":10430:10496   */\n      tag_206\n        /* \"#utility.yul\":10494:10495   */\n      0x02\n        /* \"#utility.yul\":10489:10492   */\n      dup4\n        /* \"#utility.yul\":10430:10496   */\n      tag_98\n      jump\t// in\n    tag_206:\n        /* \"#utility.yul\":10423:10496   */\n      swap2\n      pop\n        /* \"#utility.yul\":10505:10598   */\n      tag_207\n        /* \"#utility.yul\":10594:10597   */\n      dup3\n        /* \"#utility.yul\":10505:10598   */\n      tag_101\n      jump\t// in\n    tag_207:\n        /* \"#utility.yul\":10623:10625   */\n      0x20\n        /* \"#utility.yul\":10618:10621   */\n      dup3\n        /* \"#utility.yul\":10614:10626   */\n      add\n        /* \"#utility.yul\":10607:10626   */\n      swap1\n      pop\n        /* \"#utility.yul\":10267:10632   */\n      swap2\n      swap1\n      pop\n      jump\t// out\n        /* \"#utility.yul\":10638:11057   */\n    tag_67:\n        /* \"#utility.yul\":10804:10808   */\n      0x00\n        /* \"#utility.yul\":10842:10844   */\n      0x20\n        /* \"#utility.yul\":10831:10840   */\n      dup3\n        /* \"#utility.yul\":10827:10845   */\n      add\n        /* \"#utility.yul\":10819:10845   */\n      swap1\n      pop\n        /* \"#utility.yul\":10891:10900   */\n      dup2\n        /* \"#utility.yul\":10885:10889   */\n      dup2\n        /* \"#utility.yul\":10881:10901   */\n      sub\n        /* \"#utility.yul\":10877:10878   */\n      0x00\n        /* \"#utility.yul\":10866:10875   */\n      dup4\n        /* \"#utility.yul\":10862:10879   */\n      add\n        /* \"#utility.yul\":10855:10902   */\n      mstore\n        /* \"#utility.yul\":10919:11050   */\n      tag_209\n        /* \"#utility.yul\":11045:11049   */\n      dup2\n        /* \"#utility.yul\":10919:11050   */\n      tag_102\n      jump\t// in\n    tag_209:\n        /* \"#utility.yul\":10911:11050   */\n      swap1\n      pop\n        /* \"#utility.yul\":10638:11057   */\n      swap2\n      swap1\n      pop\n      jump\t// out\n\n    auxdata: 0xa2646970667358221220974b96ea8fb283d3a215fb54c45c2447171a0ebe2a4125580b67ef256260bc4964736f6c634300081a0033\n}\n",
				"bytecode": {
					"linkReferences": {},
					"object": "60a060405234801561000f575f80fd5b50604051610beb380380610beb833981810160405281019061003191906100da565b8073ffffffffffffffffffffffffffffffffffffffff1660808173ffffffffffffffffffffffffffffffffffffffff168152505050610105565b5f80fd5b5f73ffffffffffffffffffffffffffffffffffffffff82169050919050565b5f6100988261006f565b9050919050565b5f6100a98261008e565b9050919050565b6100b98161009f565b81146100c3575f80fd5b50565b5f815190506100d4816100b0565b92915050565b5f602082840312156100ef576100ee61006b565b5b5f6100fc848285016100c6565b91505092915050565b608051610ac061012b5f395f81816101390152818161019601526102830152610ac05ff3fe608060405234801561000f575f80fd5b5060043610610055575f3560e01c80636a5dae381461005957806372f5d98a14610077578063ab8feb0214610095578063c31c9c07146100b3578063eb90cec1146100d1575b5f80fd5b610061610101565b60405161006e9190610604565b60405180910390f35b61007f610119565b60405161008c919061063a565b60405180910390f35b61009d61011f565b6040516100aa9190610604565b60405180910390f35b6100bb610137565b6040516100c891906106ae565b60405180910390f35b6100eb60048036038101906100e691906106fe565b61015b565b6040516100f89190610738565b60405180910390f35b73ac51c04cb72a5d0f56d71baf3e2f2b28e642692281565b610bb881565b73221c91a7fdb68c855a8a52ca7f18f2dcedac8c2b81565b7f000000000000000000000000000000000000000000000000000000000000000081565b5f61017c73ac51c04cb72a5d0f56d71baf3e2f2b28e6426922333085610324565b6101bb73ac51c04cb72a5d0f56d71baf3e2f2b28e64269227f000000000000000000000000000000000000000000000000000000000000000084610476565b5f805f60405180610100016040528073ac51c04cb72a5d0f56d71baf3e2f2b28e642692273ffffffffffffffffffffffffffffffffffffffff16815260200173221c91a7fdb68c855a8a52ca7f18f2dcedac8c2b73ffffffffffffffffffffffffffffffffffffffff168152602001610bb862ffffff1681526020013373ffffffffffffffffffffffffffffffffffffffff1681526020014281526020018681526020018481526020018373ffffffffffffffffffffffffffffffffffffffff1681525090507f000000000000000000000000000000000000000000000000000000000000000073ffffffffffffffffffffffffffffffffffffffff1663414bf389826040518263ffffffff1660e01b81526004016102da919061082d565b6020604051808303815f875af11580156102f6573d5f803e3d5ffd5b505050506040513d601f19601f8201168201806040525081019061031a919061085b565b9350505050919050565b5f808573ffffffffffffffffffffffffffffffffffffffff166323b872dd60e01b86868660405160240161035a93929190610886565b604051602081830303815290604052907bffffffffffffffffffffffffffffffffffffffffffffffffffffffff19166020820180517bffffffffffffffffffffffffffffffffffffffffffffffffffffffff83818316178352505050506040516103c4919061090d565b5f604051808303815f865af19150503d805f81146103fd576040519150601f19603f3d011682016040523d82523d5f602084013e610402565b606091505b509150915081801561042f57505f8151148061042e57508080602001905181019061042d9190610958565b5b5b61046e576040517f08c379a0000000000000000000000000000000000000000000000000000000008152600401610465906109dd565b60405180910390fd5b505050505050565b5f808473ffffffffffffffffffffffffffffffffffffffff1663095ea7b360e01b85856040516024016104aa9291906109fb565b604051602081830303815290604052907bffffffffffffffffffffffffffffffffffffffffffffffffffffffff19166020820180517bffffffffffffffffffffffffffffffffffffffffffffffffffffffff8381831617835250505050604051610514919061090d565b5f604051808303815f865af19150503d805f811461054d576040519150601f19603f3d011682016040523d82523d5f602084013e610552565b606091505b509150915081801561057f57505f8151148061057e57508080602001905181019061057d9190610958565b5b5b6105be576040517f08c379a00000000000000000000000000000000000000000000000000000000081526004016105b590610a6c565b60405180910390fd5b5050505050565b5f73ffffffffffffffffffffffffffffffffffffffff82169050919050565b5f6105ee826105c5565b9050919050565b6105fe816105e4565b82525050565b5f6020820190506106175f8301846105f5565b92915050565b5f62ffffff82169050919050565b6106348161061d565b82525050565b5f60208201905061064d5f83018461062b565b92915050565b5f819050919050565b5f61067661067161066c846105c5565b610653565b6105c5565b9050919050565b5f6106878261065c565b9050919050565b5f6106988261067d565b9050919050565b6106a88161068e565b82525050565b5f6020820190506106c15f83018461069f565b92915050565b5f80fd5b5f819050919050565b6106dd816106cb565b81146106e7575f80fd5b50565b5f813590506106f8816106d4565b92915050565b5f60208284031215610713576107126106c7565b5b5f610720848285016106ea565b91505092915050565b610732816106cb565b82525050565b5f60208201905061074b5f830184610729565b92915050565b61075a816105e4565b82525050565b6107698161061d565b82525050565b610778816106cb565b82525050565b610787816105c5565b82525050565b61010082015f8201516107a25f850182610751565b5060208201516107b56020850182610751565b5060408201516107c86040850182610760565b5060608201516107db6060850182610751565b5060808201516107ee608085018261076f565b5060a082015161080160a085018261076f565b5060c082015161081460c085018261076f565b5060e082015161082760e085018261077e565b50505050565b5f610100820190506108415f83018461078d565b92915050565b5f81519050610855816106d4565b92915050565b5f602082840312156108705761086f6106c7565b5b5f61087d84828501610847565b91505092915050565b5f6060820190506108995f8301866105f5565b6108a660208301856105f5565b6108b36040830184610729565b949350505050565b5f81519050919050565b5f81905092915050565b8281835e5f83830152505050565b5f6108e7826108bb565b6108f181856108c5565b93506109018185602086016108cf565b80840191505092915050565b5f61091882846108dd565b915081905092915050565b5f8115159050919050565b61093781610923565b8114610941575f80fd5b50565b5f815190506109528161092e565b92915050565b5f6020828403121561096d5761096c6106c7565b5b5f61097a84828501610944565b91505092915050565b5f82825260208201905092915050565b7f53544600000000000000000000000000000000000000000000000000000000005f82015250565b5f6109c7600383610983565b91506109d282610993565b602082019050919050565b5f6020820190508181035f8301526109f4816109bb565b9050919050565b5f604082019050610a0e5f8301856105f5565b610a1b6020830184610729565b9392505050565b7f53410000000000000000000000000000000000000000000000000000000000005f82015250565b5f610a56600283610983565b9150610a6182610a22565b602082019050919050565b5f6020820190508181035f830152610a8381610a4a565b905091905056fea2646970667358221220974b96ea8fb283d3a215fb54c45c2447171a0ebe2a4125580b67ef256260bc4964736f6c634300081a0033",
					"opcodes": "PUSH1 0xA0 PUSH1 0x40 MSTORE CALLVALUE DUP1 ISZERO PUSH2 0xF JUMPI PUSH0 DUP1 REVERT JUMPDEST POP PUSH1 0x40 MLOAD PUSH2 0xBEB CODESIZE SUB DUP1 PUSH2 0xBEB DUP4 CODECOPY DUP2 DUP2 ADD PUSH1 0x40 MSTORE DUP2 ADD SWAP1 PUSH2 0x31 SWAP2 SWAP1 PUSH2 0xDA JUMP JUMPDEST DUP1 PUSH20 0xFFFFFFFFFFFFFFFFFFFFFFFFFFFFFFFFFFFFFFFF AND PUSH1 0x80 DUP2 PUSH20 0xFFFFFFFFFFFFFFFFFFFFFFFFFFFFFFFFFFFFFFFF AND DUP2 MSTORE POP POP POP PUSH2 0x105 JUMP JUMPDEST PUSH0 DUP1 REVERT JUMPDEST PUSH0 PUSH20 0xFFFFFFFFFFFFFFFFFFFFFFFFFFFFFFFFFFFFFFFF DUP3 AND SWAP1 POP SWAP2 SWAP1 POP JUMP JUMPDEST PUSH0 PUSH2 0x98 DUP3 PUSH2 0x6F JUMP JUMPDEST SWAP1 POP SWAP2 SWAP1 POP JUMP JUMPDEST PUSH0 PUSH2 0xA9 DUP3 PUSH2 0x8E JUMP JUMPDEST SWAP1 POP SWAP2 SWAP1 POP JUMP JUMPDEST PUSH2 0xB9 DUP2 PUSH2 0x9F JUMP JUMPDEST DUP2 EQ PUSH2 0xC3 JUMPI PUSH0 DUP1 REVERT JUMPDEST POP JUMP JUMPDEST PUSH0 DUP2 MLOAD SWAP1 POP PUSH2 0xD4 DUP2 PUSH2 0xB0 JUMP JUMPDEST SWAP3 SWAP2 POP POP JUMP JUMPDEST PUSH0 PUSH1 0x20 DUP3 DUP5 SUB SLT ISZERO PUSH2 0xEF JUMPI PUSH2 0xEE PUSH2 0x6B JUMP JUMPDEST JUMPDEST PUSH0 PUSH2 0xFC DUP5 DUP3 DUP6 ADD PUSH2 0xC6 JUMP JUMPDEST SWAP2 POP POP SWAP3 SWAP2 POP POP JUMP JUMPDEST PUSH1 0x80 MLOAD PUSH2 0xAC0 PUSH2 0x12B PUSH0 CODECOPY PUSH0 DUP2 DUP2 PUSH2 0x139 ADD MSTORE DUP2 DUP2 PUSH2 0x196 ADD MSTORE PUSH2 0x283 ADD MSTORE PUSH2 0xAC0 PUSH0 RETURN INVALID PUSH1 0x80 PUSH1 0x40 MSTORE CALLVALUE DUP1 ISZERO PUSH2 0xF JUMPI PUSH0 DUP1 REVERT JUMPDEST POP PUSH1 0x4 CALLDATASIZE LT PUSH2 0x55 JUMPI PUSH0 CALLDATALOAD PUSH1 0xE0 SHR DUP1 PUSH4 0x6A5DAE38 EQ PUSH2 0x59 JUMPI DUP1 PUSH4 0x72F5D98A EQ PUSH2 0x77 JUMPI DUP1 PUSH4 0xAB8FEB02 EQ PUSH2 0x95 JUMPI DUP1 PUSH4 0xC31C9C07 EQ PUSH2 0xB3 JUMPI DUP1 PUSH4 0xEB90CEC1 EQ PUSH2 0xD1 JUMPI JUMPDEST PUSH0 DUP1 REVERT JUMPDEST PUSH2 0x61 PUSH2 0x101 JUMP JUMPDEST PUSH1 0x40 MLOAD PUSH2 0x6E SWAP2 SWAP1 PUSH2 0x604 JUMP JUMPDEST PUSH1 0x40 MLOAD DUP1 SWAP2 SUB SWAP1 RETURN JUMPDEST PUSH2 0x7F PUSH2 0x119 JUMP JUMPDEST PUSH1 0x40 MLOAD PUSH2 0x8C SWAP2 SWAP1 PUSH2 0x63A JUMP JUMPDEST PUSH1 0x40 MLOAD DUP1 SWAP2 SUB SWAP1 RETURN JUMPDEST PUSH2 0x9D PUSH2 0x11F JUMP JUMPDEST PUSH1 0x40 MLOAD PUSH2 0xAA SWAP2 SWAP1 PUSH2 0x604 JUMP JUMPDEST PUSH1 0x40 MLOAD DUP1 SWAP2 SUB SWAP1 RETURN JUMPDEST PUSH2 0xBB PUSH2 0x137 JUMP JUMPDEST PUSH1 0x40 MLOAD PUSH2 0xC8 SWAP2 SWAP1 PUSH2 0x6AE JUMP JUMPDEST PUSH1 0x40 MLOAD DUP1 SWAP2 SUB SWAP1 RETURN JUMPDEST PUSH2 0xEB PUSH1 0x4 DUP1 CALLDATASIZE SUB DUP2 ADD SWAP1 PUSH2 0xE6 SWAP2 SWAP1 PUSH2 0x6FE JUMP JUMPDEST PUSH2 0x15B JUMP JUMPDEST PUSH1 0x40 MLOAD PUSH2 0xF8 SWAP2 SWAP1 PUSH2 0x738 JUMP JUMPDEST PUSH1 0x40 MLOAD DUP1 SWAP2 SUB SWAP1 RETURN JUMPDEST PUSH20 0xAC51C04CB72A5D0F56D71BAF3E2F2B28E6426922 DUP2 JUMP JUMPDEST PUSH2 0xBB8 DUP2 JUMP JUMPDEST PUSH20 0x221C91A7FDB68C855A8A52CA7F18F2DCEDAC8C2B DUP2 JUMP JUMPDEST PUSH32 0x0 DUP2 JUMP JUMPDEST PUSH0 PUSH2 0x17C PUSH20 0xAC51C04CB72A5D0F56D71BAF3E2F2B28E6426922 CALLER ADDRESS DUP6 PUSH2 0x324 JUMP JUMPDEST PUSH2 0x1BB PUSH20 0xAC51C04CB72A5D0F56D71BAF3E2F2B28E6426922 PUSH32 0x0 DUP5 PUSH2 0x476 JUMP JUMPDEST PUSH0 DUP1 PUSH0 PUSH1 0x40 MLOAD DUP1 PUSH2 0x100 ADD PUSH1 0x40 MSTORE DUP1 PUSH20 0xAC51C04CB72A5D0F56D71BAF3E2F2B28E6426922 PUSH20 0xFFFFFFFFFFFFFFFFFFFFFFFFFFFFFFFFFFFFFFFF AND DUP2 MSTORE PUSH1 0x20 ADD PUSH20 0x221C91A7FDB68C855A8A52CA7F18F2DCEDAC8C2B PUSH20 0xFFFFFFFFFFFFFFFFFFFFFFFFFFFFFFFFFFFFFFFF AND DUP2 MSTORE PUSH1 0x20 ADD PUSH2 0xBB8 PUSH3 0xFFFFFF AND DUP2 MSTORE PUSH1 0x20 ADD CALLER PUSH20 0xFFFFFFFFFFFFFFFFFFFFFFFFFFFFFFFFFFFFFFFF AND DUP2 MSTORE PUSH1 0x20 ADD TIMESTAMP DUP2 MSTORE PUSH1 0x20 ADD DUP7 DUP2 MSTORE PUSH1 0x20 ADD DUP5 DUP2 MSTORE PUSH1 0x20 ADD DUP4 PUSH20 0xFFFFFFFFFFFFFFFFFFFFFFFFFFFFFFFFFFFFFFFF AND DUP2 MSTORE POP SWAP1 POP PUSH32 0x0 PUSH20 0xFFFFFFFFFFFFFFFFFFFFFFFFFFFFFFFFFFFFFFFF AND PUSH4 0x414BF389 DUP3 PUSH1 0x40 MLOAD DUP3 PUSH4 0xFFFFFFFF AND PUSH1 0xE0 SHL DUP2 MSTORE PUSH1 0x4 ADD PUSH2 0x2DA SWAP2 SWAP1 PUSH2 0x82D JUMP JUMPDEST PUSH1 0x20 PUSH1 0x40 MLOAD DUP1 DUP4 SUB DUP2 PUSH0 DUP8 GAS CALL ISZERO DUP1 ISZERO PUSH2 0x2F6 JUMPI RETURNDATASIZE PUSH0 DUP1 RETURNDATACOPY RETURNDATASIZE PUSH0 REVERT JUMPDEST POP POP POP POP PUSH1 0x40 MLOAD RETURNDATASIZE PUSH1 0x1F NOT PUSH1 0x1F DUP3 ADD AND DUP3 ADD DUP1 PUSH1 0x40 MSTORE POP DUP2 ADD SWAP1 PUSH2 0x31A SWAP2 SWAP1 PUSH2 0x85B JUMP JUMPDEST SWAP4 POP POP POP POP SWAP2 SWAP1 POP JUMP JUMPDEST PUSH0 DUP1 DUP6 PUSH20 0xFFFFFFFFFFFFFFFFFFFFFFFFFFFFFFFFFFFFFFFF AND PUSH4 0x23B872DD PUSH1 0xE0 SHL DUP7 DUP7 DUP7 PUSH1 0x40 MLOAD PUSH1 0x24 ADD PUSH2 0x35A SWAP4 SWAP3 SWAP2 SWAP1 PUSH2 0x886 JUMP JUMPDEST PUSH1 0x40 MLOAD PUSH1 0x20 DUP2 DUP4 SUB SUB DUP2 MSTORE SWAP1 PUSH1 0x40 MSTORE SWAP1 PUSH28 0xFFFFFFFFFFFFFFFFFFFFFFFFFFFFFFFFFFFFFFFFFFFFFFFFFFFFFFFF NOT AND PUSH1 0x20 DUP3 ADD DUP1 MLOAD PUSH28 0xFFFFFFFFFFFFFFFFFFFFFFFFFFFFFFFFFFFFFFFFFFFFFFFFFFFFFFFF DUP4 DUP2 DUP4 AND OR DUP4 MSTORE POP POP POP POP PUSH1 0x40 MLOAD PUSH2 0x3C4 SWAP2 SWAP1 PUSH2 0x90D JUMP JUMPDEST PUSH0 PUSH1 0x40 MLOAD DUP1 DUP4 SUB DUP2 PUSH0 DUP7 GAS CALL SWAP2 POP POP RETURNDATASIZE DUP1 PUSH0 DUP2 EQ PUSH2 0x3FD JUMPI PUSH1 0x40 MLOAD SWAP2 POP PUSH1 0x1F NOT PUSH1 0x3F RETURNDATASIZE ADD AND DUP3 ADD PUSH1 0x40 MSTORE RETURNDATASIZE DUP3 MSTORE RETURNDATASIZE PUSH0 PUSH1 0x20 DUP5 ADD RETURNDATACOPY PUSH2 0x402 JUMP JUMPDEST PUSH1 0x60 SWAP2 POP JUMPDEST POP SWAP2 POP SWAP2 POP DUP2 DUP1 ISZERO PUSH2 0x42F JUMPI POP PUSH0 DUP2 MLOAD EQ DUP1 PUSH2 0x42E JUMPI POP DUP1 DUP1 PUSH1 0x20 ADD SWAP1 MLOAD DUP2 ADD SWAP1 PUSH2 0x42D SWAP2 SWAP1 PUSH2 0x958 JUMP JUMPDEST JUMPDEST JUMPDEST PUSH2 0x46E JUMPI PUSH1 0x40 MLOAD PUSH32 0x8C379A000000000000000000000000000000000000000000000000000000000 DUP2 MSTORE PUSH1 0x4 ADD PUSH2 0x465 SWAP1 PUSH2 0x9DD JUMP JUMPDEST PUSH1 0x40 MLOAD DUP1 SWAP2 SUB SWAP1 REVERT JUMPDEST POP POP POP POP POP POP JUMP JUMPDEST PUSH0 DUP1 DUP5 PUSH20 0xFFFFFFFFFFFFFFFFFFFFFFFFFFFFFFFFFFFFFFFF AND PUSH4 0x95EA7B3 PUSH1 0xE0 SHL DUP6 DUP6 PUSH1 0x40 MLOAD PUSH1 0x24 ADD PUSH2 0x4AA SWAP3 SWAP2 SWAP1 PUSH2 0x9FB JUMP JUMPDEST PUSH1 0x40 MLOAD PUSH1 0x20 DUP2 DUP4 SUB SUB DUP2 MSTORE SWAP1 PUSH1 0x40 MSTORE SWAP1 PUSH28 0xFFFFFFFFFFFFFFFFFFFFFFFFFFFFFFFFFFFFFFFFFFFFFFFFFFFFFFFF NOT AND PUSH1 0x20 DUP3 ADD DUP1 MLOAD PUSH28 0xFFFFFFFFFFFFFFFFFFFFFFFFFFFFFFFFFFFFFFFFFFFFFFFFFFFFFFFF DUP4 DUP2 DUP4 AND OR DUP4 MSTORE POP POP POP POP PUSH1 0x40 MLOAD PUSH2 0x514 SWAP2 SWAP1 PUSH2 0x90D JUMP JUMPDEST PUSH0 PUSH1 0x40 MLOAD DUP1 DUP4 SUB DUP2 PUSH0 DUP7 GAS CALL SWAP2 POP POP RETURNDATASIZE DUP1 PUSH0 DUP2 EQ PUSH2 0x54D JUMPI PUSH1 0x40 MLOAD SWAP2 POP PUSH1 0x1F NOT PUSH1 0x3F RETURNDATASIZE ADD AND DUP3 ADD PUSH1 0x40 MSTORE RETURNDATASIZE DUP3 MSTORE RETURNDATASIZE PUSH0 PUSH1 0x20 DUP5 ADD RETURNDATACOPY PUSH2 0x552 JUMP JUMPDEST PUSH1 0x60 SWAP2 POP JUMPDEST POP SWAP2 POP SWAP2 POP DUP2 DUP1 ISZERO PUSH2 0x57F JUMPI POP PUSH0 DUP2 MLOAD EQ DUP1 PUSH2 0x57E JUMPI POP DUP1 DUP1 PUSH1 0x20 ADD SWAP1 MLOAD DUP2 ADD SWAP1 PUSH2 0x57D SWAP2 SWAP1 PUSH2 0x958 JUMP JUMPDEST JUMPDEST JUMPDEST PUSH2 0x5BE JUMPI PUSH1 0x40 MLOAD PUSH32 0x8C379A000000000000000000000000000000000000000000000000000000000 DUP2 MSTORE PUSH1 0x4 ADD PUSH2 0x5B5 SWAP1 PUSH2 0xA6C JUMP JUMPDEST PUSH1 0x40 MLOAD DUP1 SWAP2 SUB SWAP1 REVERT JUMPDEST POP POP POP POP POP JUMP JUMPDEST PUSH0 PUSH20 0xFFFFFFFFFFFFFFFFFFFFFFFFFFFFFFFFFFFFFFFF DUP3 AND SWAP1 POP SWAP2 SWAP1 POP JUMP JUMPDEST PUSH0 PUSH2 0x5EE DUP3 PUSH2 0x5C5 JUMP JUMPDEST SWAP1 POP SWAP2 SWAP1 POP JUMP JUMPDEST PUSH2 0x5FE DUP2 PUSH2 0x5E4 JUMP JUMPDEST DUP3 MSTORE POP POP JUMP JUMPDEST PUSH0 PUSH1 0x20 DUP3 ADD SWAP1 POP PUSH2 0x617 PUSH0 DUP4 ADD DUP5 PUSH2 0x5F5 JUMP JUMPDEST SWAP3 SWAP2 POP POP JUMP JUMPDEST PUSH0 PUSH3 0xFFFFFF DUP3 AND SWAP1 POP SWAP2 SWAP1 POP JUMP JUMPDEST PUSH2 0x634 DUP2 PUSH2 0x61D JUMP JUMPDEST DUP3 MSTORE POP POP JUMP JUMPDEST PUSH0 PUSH1 0x20 DUP3 ADD SWAP1 POP PUSH2 0x64D PUSH0 DUP4 ADD DUP5 PUSH2 0x62B JUMP JUMPDEST SWAP3 SWAP2 POP POP JUMP JUMPDEST PUSH0 DUP2 SWAP1 POP SWAP2 SWAP1 POP JUMP JUMPDEST PUSH0 PUSH2 0x676 PUSH2 0x671 PUSH2 0x66C DUP5 PUSH2 0x5C5 JUMP JUMPDEST PUSH2 0x653 JUMP JUMPDEST PUSH2 0x5C5 JUMP JUMPDEST SWAP1 POP SWAP2 SWAP1 POP JUMP JUMPDEST PUSH0 PUSH2 0x687 DUP3 PUSH2 0x65C JUMP JUMPDEST SWAP1 POP SWAP2 SWAP1 POP JUMP JUMPDEST PUSH0 PUSH2 0x698 DUP3 PUSH2 0x67D JUMP JUMPDEST SWAP1 POP SWAP2 SWAP1 POP JUMP JUMPDEST PUSH2 0x6A8 DUP2 PUSH2 0x68E JUMP JUMPDEST DUP3 MSTORE POP POP JUMP JUMPDEST PUSH0 PUSH1 0x20 DUP3 ADD SWAP1 POP PUSH2 0x6C1 PUSH0 DUP4 ADD DUP5 PUSH2 0x69F JUMP JUMPDEST SWAP3 SWAP2 POP POP JUMP JUMPDEST PUSH0 DUP1 REVERT JUMPDEST PUSH0 DUP2 SWAP1 POP SWAP2 SWAP1 POP JUMP JUMPDEST PUSH2 0x6DD DUP2 PUSH2 0x6CB JUMP JUMPDEST DUP2 EQ PUSH2 0x6E7 JUMPI PUSH0 DUP1 REVERT JUMPDEST POP JUMP JUMPDEST PUSH0 DUP2 CALLDATALOAD SWAP1 POP PUSH2 0x6F8 DUP2 PUSH2 0x6D4 JUMP JUMPDEST SWAP3 SWAP2 POP POP JUMP JUMPDEST PUSH0 PUSH1 0x20 DUP3 DUP5 SUB SLT ISZERO PUSH2 0x713 JUMPI PUSH2 0x712 PUSH2 0x6C7 JUMP JUMPDEST JUMPDEST PUSH0 PUSH2 0x720 DUP5 DUP3 DUP6 ADD PUSH2 0x6EA JUMP JUMPDEST SWAP2 POP POP SWAP3 SWAP2 POP POP JUMP JUMPDEST PUSH2 0x732 DUP2 PUSH2 0x6CB JUMP JUMPDEST DUP3 MSTORE POP POP JUMP JUMPDEST PUSH0 PUSH1 0x20 DUP3 ADD SWAP1 POP PUSH2 0x74B PUSH0 DUP4 ADD DUP5 PUSH2 0x729 JUMP JUMPDEST SWAP3 SWAP2 POP POP JUMP JUMPDEST PUSH2 0x75A DUP2 PUSH2 0x5E4 JUMP JUMPDEST DUP3 MSTORE POP POP JUMP JUMPDEST PUSH2 0x769 DUP2 PUSH2 0x61D JUMP JUMPDEST DUP3 MSTORE POP POP JUMP JUMPDEST PUSH2 0x778 DUP2 PUSH2 0x6CB JUMP JUMPDEST DUP3 MSTORE POP POP JUMP JUMPDEST PUSH2 0x787 DUP2 PUSH2 0x5C5 JUMP JUMPDEST DUP3 MSTORE POP POP JUMP JUMPDEST PUSH2 0x100 DUP3 ADD PUSH0 DUP3 ADD MLOAD PUSH2 0x7A2 PUSH0 DUP6 ADD DUP3 PUSH2 0x751 JUMP JUMPDEST POP PUSH1 0x20 DUP3 ADD MLOAD PUSH2 0x7B5 PUSH1 0x20 DUP6 ADD DUP3 PUSH2 0x751 JUMP JUMPDEST POP PUSH1 0x40 DUP3 ADD MLOAD PUSH2 0x7C8 PUSH1 0x40 DUP6 ADD DUP3 PUSH2 0x760 JUMP JUMPDEST POP PUSH1 0x60 DUP3 ADD MLOAD PUSH2 0x7DB PUSH1 0x60 DUP6 ADD DUP3 PUSH2 0x751 JUMP JUMPDEST POP PUSH1 0x80 DUP3 ADD MLOAD PUSH2 0x7EE PUSH1 0x80 DUP6 ADD DUP3 PUSH2 0x76F JUMP JUMPDEST POP PUSH1 0xA0 DUP3 ADD MLOAD PUSH2 0x801 PUSH1 0xA0 DUP6 ADD DUP3 PUSH2 0x76F JUMP JUMPDEST POP PUSH1 0xC0 DUP3 ADD MLOAD PUSH2 0x814 PUSH1 0xC0 DUP6 ADD DUP3 PUSH2 0x76F JUMP JUMPDEST POP PUSH1 0xE0 DUP3 ADD MLOAD PUSH2 0x827 PUSH1 0xE0 DUP6 ADD DUP3 PUSH2 0x77E JUMP JUMPDEST POP POP POP POP JUMP JUMPDEST PUSH0 PUSH2 0x100 DUP3 ADD SWAP1 POP PUSH2 0x841 PUSH0 DUP4 ADD DUP5 PUSH2 0x78D JUMP JUMPDEST SWAP3 SWAP2 POP POP JUMP JUMPDEST PUSH0 DUP2 MLOAD SWAP1 POP PUSH2 0x855 DUP2 PUSH2 0x6D4 JUMP JUMPDEST SWAP3 SWAP2 POP POP JUMP JUMPDEST PUSH0 PUSH1 0x20 DUP3 DUP5 SUB SLT ISZERO PUSH2 0x870 JUMPI PUSH2 0x86F PUSH2 0x6C7 JUMP JUMPDEST JUMPDEST PUSH0 PUSH2 0x87D DUP5 DUP3 DUP6 ADD PUSH2 0x847 JUMP JUMPDEST SWAP2 POP POP SWAP3 SWAP2 POP POP JUMP JUMPDEST PUSH0 PUSH1 0x60 DUP3 ADD SWAP1 POP PUSH2 0x899 PUSH0 DUP4 ADD DUP7 PUSH2 0x5F5 JUMP JUMPDEST PUSH2 0x8A6 PUSH1 0x20 DUP4 ADD DUP6 PUSH2 0x5F5 JUMP JUMPDEST PUSH2 0x8B3 PUSH1 0x40 DUP4 ADD DUP5 PUSH2 0x729 JUMP JUMPDEST SWAP5 SWAP4 POP POP POP POP JUMP JUMPDEST PUSH0 DUP2 MLOAD SWAP1 POP SWAP2 SWAP1 POP JUMP JUMPDEST PUSH0 DUP2 SWAP1 POP SWAP3 SWAP2 POP POP JUMP JUMPDEST DUP3 DUP2 DUP4 MCOPY PUSH0 DUP4 DUP4 ADD MSTORE POP POP POP JUMP JUMPDEST PUSH0 PUSH2 0x8E7 DUP3 PUSH2 0x8BB JUMP JUMPDEST PUSH2 0x8F1 DUP2 DUP6 PUSH2 0x8C5 JUMP JUMPDEST SWAP4 POP PUSH2 0x901 DUP2 DUP6 PUSH1 0x20 DUP7 ADD PUSH2 0x8CF JUMP JUMPDEST DUP1 DUP5 ADD SWAP2 POP POP SWAP3 SWAP2 POP POP JUMP JUMPDEST PUSH0 PUSH2 0x918 DUP3 DUP5 PUSH2 0x8DD JUMP JUMPDEST SWAP2 POP DUP2 SWAP1 POP SWAP3 SWAP2 POP POP JUMP JUMPDEST PUSH0 DUP2 ISZERO ISZERO SWAP1 POP SWAP2 SWAP1 POP JUMP JUMPDEST PUSH2 0x937 DUP2 PUSH2 0x923 JUMP JUMPDEST DUP2 EQ PUSH2 0x941 JUMPI PUSH0 DUP1 REVERT JUMPDEST POP JUMP JUMPDEST PUSH0 DUP2 MLOAD SWAP1 POP PUSH2 0x952 DUP2 PUSH2 0x92E JUMP JUMPDEST SWAP3 SWAP2 POP POP JUMP JUMPDEST PUSH0 PUSH1 0x20 DUP3 DUP5 SUB SLT ISZERO PUSH2 0x96D JUMPI PUSH2 0x96C PUSH2 0x6C7 JUMP JUMPDEST JUMPDEST PUSH0 PUSH2 0x97A DUP5 DUP3 DUP6 ADD PUSH2 0x944 JUMP JUMPDEST SWAP2 POP POP SWAP3 SWAP2 POP POP JUMP JUMPDEST PUSH0 DUP3 DUP3 MSTORE PUSH1 0x20 DUP3 ADD SWAP1 POP SWAP3 SWAP2 POP POP JUMP JUMPDEST PUSH32 0x5354460000000000000000000000000000000000000000000000000000000000 PUSH0 DUP3 ADD MSTORE POP JUMP JUMPDEST PUSH0 PUSH2 0x9C7 PUSH1 0x3 DUP4 PUSH2 0x983 JUMP JUMPDEST SWAP2 POP PUSH2 0x9D2 DUP3 PUSH2 0x993 JUMP JUMPDEST PUSH1 0x20 DUP3 ADD SWAP1 POP SWAP2 SWAP1 POP JUMP JUMPDEST PUSH0 PUSH1 0x20 DUP3 ADD SWAP1 POP DUP2 DUP2 SUB PUSH0 DUP4 ADD MSTORE PUSH2 0x9F4 DUP2 PUSH2 0x9BB JUMP JUMPDEST SWAP1 POP SWAP2 SWAP1 POP JUMP JUMPDEST PUSH0 PUSH1 0x40 DUP3 ADD SWAP1 POP PUSH2 0xA0E PUSH0 DUP4 ADD DUP6 PUSH2 0x5F5 JUMP JUMPDEST PUSH2 0xA1B PUSH1 0x20 DUP4 ADD DUP5 PUSH2 0x729 JUMP JUMPDEST SWAP4 SWAP3 POP POP POP JUMP JUMPDEST PUSH32 0x5341000000000000000000000000000000000000000000000000000000000000 PUSH0 DUP3 ADD MSTORE POP JUMP JUMPDEST PUSH0 PUSH2 0xA56 PUSH1 0x2 DUP4 PUSH2 0x983 JUMP JUMPDEST SWAP2 POP PUSH2 0xA61 DUP3 PUSH2 0xA22 JUMP JUMPDEST PUSH1 0x20 DUP3 ADD SWAP1 POP SWAP2 SWAP1 POP JUMP JUMPDEST PUSH0 PUSH1 0x20 DUP3 ADD SWAP1 POP DUP2 DUP2 SUB PUSH0 DUP4 ADD MSTORE PUSH2 0xA83 DUP2 PUSH2 0xA4A JUMP JUMPDEST SWAP1 POP SWAP2 SWAP1 POP JUMP INVALID LOG2 PUSH5 0x6970667358 0x22 SLT KECCAK256 SWAP8 0x4B SWAP7 0xEA DUP16 0xB2 DUP4 0xD3 LOG2 ISZERO 0xFB SLOAD 0xC4 TLOAD 0x24 SELFBALANCE OR BYTE 0xE 0xBE 0x2A COINBASE 0x25 PC SIGNEXTEND PUSH8 0xEF256260BC496473 PUSH16 0x6C634300081A00330000000000000000 "
				},
				"gasEstimates": {
					"creation": {
						"codeDepositCost": "550400",
						"executionCost": "infinite",
						"totalCost": "infinite"
					},
					"external": {
						"TKN()": "395",
						"VTRU()": "351",
						"feeTier()": "331",
						"swapRouter()": "infinite",
						"swapVTRUForTKN(uint256)": "infinite"
					}
				},
				"methodIdentifiers": {
					"TKN()": "ab8feb02",
					"VTRU()": "6a5dae38",
					"feeTier()": "72f5d98a",
					"swapRouter()": "c31c9c07",
					"swapVTRUForTKN(uint256)": "eb90cec1"
				}
			},
			"storageLayout": {
				"storage": [],
				"types": null
			},
			"userdoc": {
				"kind": "user",
				"methods": {},
				"version": 1
			}
		}
	}
}