{
	"data": {
		"bytecode": {
			"linkReferences": {},
			"object": "60a060405234801562000010575f80fd5b5060405162003e1938038062003e19833981810160405281019062000036919062000265565b335f73ffffffffffffffffffffffffffffffffffffffff168173ffffffffffffffffffffffffffffffffffffffff1603620000aa575f6040517f1e4fbdf7000000000000000000000000000000000000000000000000000000008152600401620000a19190620002cf565b60405180910390fd5b620000bb816200010760201b60201c565b508273ffffffffffffffffffffffffffffffffffffffff1660808173ffffffffffffffffffffffffffffffffffffffff16815250508160018190555080600281905550505050620002ea565b5f805f9054906101000a900473ffffffffffffffffffffffffffffffffffffffff169050815f806101000a81548173ffffffffffffffffffffffffffffffffffffffff021916908373ffffffffffffffffffffffffffffffffffffffff1602179055508173ffffffffffffffffffffffffffffffffffffffff168173ffffffffffffffffffffffffffffffffffffffff167f8be0079c531659141344cd1fd0a4f28419497f9722a3daafe3b4186f6b6457e060405160405180910390a35050565b5f80fd5b5f73ffffffffffffffffffffffffffffffffffffffff82169050919050565b5f620001f782620001cc565b9050919050565b6200020981620001eb565b811462000214575f80fd5b50565b5f815190506200022781620001fe565b92915050565b5f819050919050565b62000241816200022d565b81146200024c575f80fd5b50565b5f815190506200025f8162000236565b92915050565b5f805f606084860312156200027f576200027e620001c8565b5b5f6200028e8682870162000217565b9350506020620002a1868287016200024f565b9250506040620002b4868287016200024f565b9150509250925092565b620002c981620001eb565b82525050565b5f602082019050620002e45f830184620002be565b92915050565b608051613b0f6200030a5f395f8181610461015261061f0152613b0f5ff3fe60806040526004361062000096575f3560e01c8063715018a61162000060578063715018a614620001775780638da5cb5b1462000190578063d07a894614620001bf578063d21bdc5c14620001ee578063f2fde38b1462000231576200009e565b8063132c3bea14620000a257806313ec2e9b14620000e557806330c255281462000114578063519dc8d21462000134576200009e565b366200009e57005b5f80fd5b348015620000ae575f80fd5b50620000cd6004803603810190620000c79190620008dc565b6200025e565b604051620000dc919062000928565b60405180910390f35b348015620000f1575f80fd5b50620000fc620002be565b6040516200010b919062000954565b60405180910390f35b6200013260048036038101906200012c919062000ac7565b620002d6565b005b34801562000140575f80fd5b506200015f600480360381019062000159919062000c28565b62000515565b6040516200016e919062000d1f565b60405180910390f35b34801562000183575f80fd5b506200018e620005df565b005b3480156200019c575f80fd5b50620001a7620005f6565b604051620001b6919062000d52565b60405180910390f35b348015620001cb575f80fd5b50620001d66200061d565b604051620001e5919062000d52565b60405180910390f35b348015620001fa575f80fd5b50620002196004803603810190620002139190620008dc565b62000641565b60405162000228919062000928565b60405180910390f35b3480156200023d575f80fd5b506200025c600480360381019062000256919062000c28565b620006a2565b005b5f620002696200072d565b5f8211620002ae576040517f08c379a0000000000000000000000000000000000000000000000000000000008152600401620002a59062000dcb565b60405180910390fd5b8160018190555060019050919050565b5f600254600154620002d1919062000e18565b905090565b620002e0620002be565b34101562000325576040517f08c379a00000000000000000000000000000000000000000000000000000000081526004016200031c9062000ea0565b60405180910390fd5b6103e88110156200036d576040517f08c379a0000000000000000000000000000000000000000000000000000000008152600401620003649062000f0e565b60405180910390fd5b5f8585858585604051620003819062000885565b6200039195949392919062000fa2565b604051809103905ff080158015620003ab573d5f803e3d5ffd5b50905060035f3373ffffffffffffffffffffffffffffffffffffffff1673ffffffffffffffffffffffffffffffffffffffff1681526020019081526020015f208173ffffffffffffffffffffffffffffffffffffffff16908060018154018082558091505060019003905f5260205f20015f9091909190916101000a81548173ffffffffffffffffffffffffffffffffffffffff021916908373ffffffffffffffffffffffffffffffffffffffff1602179055507f000000000000000000000000000000000000000000000000000000000000000073ffffffffffffffffffffffffffffffffffffffff166108fc60015490811502906040515f60405180830381858888f19350505050158015620004c5573d5f803e3d5ffd5b508073ffffffffffffffffffffffffffffffffffffffff166108fc60025490811502906040515f60405180830381858888f193505050501580156200050c573d5f803e3d5ffd5b50505050505050565b606060035f8373ffffffffffffffffffffffffffffffffffffffff1673ffffffffffffffffffffffffffffffffffffffff1681526020019081526020015f20805480602002602001604051908101604052809291908181526020018280548015620005d357602002820191905f5260205f20905b815f9054906101000a900473ffffffffffffffffffffffffffffffffffffffff1673ffffffffffffffffffffffffffffffffffffffff168152602001906001019080831162000589575b50505050509050919050565b620005e96200072d565b620005f45f620007bd565b565b5f805f9054906101000a900473ffffffffffffffffffffffffffffffffffffffff16905090565b7f000000000000000000000000000000000000000000000000000000000000000081565b5f6200064c6200072d565b5f82101562000692576040517f08c379a0000000000000000000000000000000000000000000000000000000008152600401620006899062001067565b60405180910390fd5b8160028190555060019050919050565b620006ac6200072d565b5f73ffffffffffffffffffffffffffffffffffffffff168173ffffffffffffffffffffffffffffffffffffffff16036200071f575f6040517f1e4fbdf700000000000000000000000000000000000000000000000000000000815260040162000716919062000d52565b60405180910390fd5b6200072a81620007bd565b50565b620007376200087e565b73ffffffffffffffffffffffffffffffffffffffff1662000757620005f6565b73ffffffffffffffffffffffffffffffffffffffff1614620007bb576200077d6200087e565b6040517f118cdaa7000000000000000000000000000000000000000000000000000000008152600401620007b2919062000d52565b60405180910390fd5b565b5f805f9054906101000a900473ffffffffffffffffffffffffffffffffffffffff169050815f806101000a81548173ffffffffffffffffffffffffffffffffffffffff021916908373ffffffffffffffffffffffffffffffffffffffff1602179055508173ffffffffffffffffffffffffffffffffffffffff168173ffffffffffffffffffffffffffffffffffffffff167f8be0079c531659141344cd1fd0a4f28419497f9722a3daafe3b4186f6b6457e060405160405180910390a35050565b5f33905090565b612a52806200108883390190565b5f604051905090565b5f80fd5b5f80fd5b5f819050919050565b620008b881620008a4565b8114620008c3575f80fd5b50565b5f81359050620008d681620008ad565b92915050565b5f60208284031215620008f457620008f36200089c565b5b5f6200090384828501620008c6565b91505092915050565b5f8115159050919050565b62000922816200090c565b82525050565b5f6020820190506200093d5f83018462000917565b92915050565b6200094e81620008a4565b82525050565b5f602082019050620009695f83018462000943565b92915050565b5f80fd5b5f80fd5b5f601f19601f8301169050919050565b7f4e487b71000000000000000000000000000000000000000000000000000000005f52604160045260245ffd5b620009bf8262000977565b810181811067ffffffffffffffff82111715620009e157620009e062000987565b5b80604052505050565b5f620009f562000893565b905062000a038282620009b4565b919050565b5f67ffffffffffffffff82111562000a255762000a2462000987565b5b62000a308262000977565b9050602081019050919050565b828183375f83830152505050565b5f62000a6162000a5b8462000a08565b620009ea565b90508281526020810184848401111562000a805762000a7f62000973565b5b62000a8d84828562000a3d565b509392505050565b5f82601f83011262000aac5762000aab6200096f565b5b813562000abe84826020860162000a4b565b91505092915050565b5f805f805f60a0868803121562000ae35762000ae26200089c565b5b5f86013567ffffffffffffffff81111562000b035762000b02620008a0565b5b62000b118882890162000a95565b955050602086013567ffffffffffffffff81111562000b355762000b34620008a0565b5b62000b438882890162000a95565b945050604086013567ffffffffffffffff81111562000b675762000b66620008a0565b5b62000b758882890162000a95565b935050606086013567ffffffffffffffff81111562000b995762000b98620008a0565b5b62000ba78882890162000a95565b925050608062000bba88828901620008c6565b9150509295509295909350565b5f73ffffffffffffffffffffffffffffffffffffffff82169050919050565b5f62000bf28262000bc7565b9050919050565b62000c048162000be6565b811462000c0f575f80fd5b50565b5f8135905062000c228162000bf9565b92915050565b5f6020828403121562000c405762000c3f6200089c565b5b5f62000c4f8482850162000c12565b91505092915050565b5f81519050919050565b5f82825260208201905092915050565b5f819050602082019050919050565b62000c8c8162000be6565b82525050565b5f62000c9f838362000c81565b60208301905092915050565b5f602082019050919050565b5f62000cc38262000c58565b62000ccf818562000c62565b935062000cdc8362000c72565b805f5b8381101562000d1257815162000cf6888262000c92565b975062000d038362000cab565b92505060018101905062000cdf565b5085935050505092915050565b5f6020820190508181035f83015262000d39818462000cb7565b905092915050565b62000d4c8162000be6565b82525050565b5f60208201905062000d675f83018462000d41565b92915050565b5f82825260208201905092915050565b7f546f6f206c6f77207072696365000000000000000000000000000000000000005f82015250565b5f62000db3600d8362000d6d565b915062000dc08262000d7d565b602082019050919050565b5f6020820190508181035f83015262000de48162000da5565b9050919050565b7f4e487b71000000000000000000000000000000000000000000000000000000005f52601160045260245ffd5b5f62000e2482620008a4565b915062000e3183620008a4565b925082820190508082111562000e4c5762000e4b62000deb565b5b92915050565b7f4e6f7420656e6f7567682076616c7565000000000000000000000000000000005f82015250565b5f62000e8860108362000d6d565b915062000e958262000e52565b602082019050919050565b5f6020820190508181035f83015262000eb98162000e7a565b9050919050565b7f546f6f2066657720746f6b656e7320746f2063726561746500000000000000005f82015250565b5f62000ef660188362000d6d565b915062000f038262000ec0565b602082019050919050565b5f6020820190508181035f83015262000f278162000ee8565b9050919050565b5f81519050919050565b5f5b8381101562000f5757808201518184015260208101905062000f3a565b5f8484015250505050565b5f62000f6e8262000f2e565b62000f7a818562000d6d565b935062000f8c81856020860162000f38565b62000f978162000977565b840191505092915050565b5f60a0820190508181035f83015262000fbc818862000f62565b9050818103602083015262000fd2818762000f62565b9050818103604083015262000fe8818662000f62565b9050818103606083015262000ffe818562000f62565b90506200100f608083018462000943565b9695505050505050565b7f546f6f206c6f7720616d6f756e740000000000000000000000000000000000005f82015250565b5f6200104f600e8362000d6d565b91506200105c8262001019565b602082019050919050565b5f6020820190508181035f830152620010808162001041565b905091905056fe608060405234801562000010575f80fd5b5060405162002a5238038062002a52833981810160405281019062000036919062000496565b335f73ffffffffffffffffffffffffffffffffffffffff168173ffffffffffffffffffffffffffffffffffffffff1603620000aa575f6040517f1e4fbdf7000000000000000000000000000000000000000000000000000000008152600401620000a19190620005d9565b60405180910390fd5b620000bb81620001e360201b60201c565b5084848484604051620000ce90620002cb565b620000dd94939291906200064e565b604051809103905ff080158015620000f7573d5f803e3d5ffd5b5060015f6101000a81548173ffffffffffffffffffffffffffffffffffffffff021916908373ffffffffffffffffffffffffffffffffffffffff16021790555060015f9054906101000a900473ffffffffffffffffffffffffffffffffffffffff1673ffffffffffffffffffffffffffffffffffffffff166340c10f19306200018a84620de2b0620002a460201b60201c565b6040518363ffffffff1660e01b8152600401620001a9929190620006c6565b5f604051808303815f87803b158015620001c1575f80fd5b505af1158015620001d4573d5f803e3d5ffd5b505050505050505050620007cc565b5f805f9054906101000a900473ffffffffffffffffffffffffffffffffffffffff169050815f806101000a81548173ffffffffffffffffffffffffffffffffffffffff021916908373ffffffffffffffffffffffffffffffffffffffff1602179055508173ffffffffffffffffffffffffffffffffffffffff168173ffffffffffffffffffffffffffffffffffffffff167f8be0079c531659141344cd1fd0a4f28419497f9722a3daafe3b4186f6b6457e060405160405180910390a35050565b5f81620f424084620002b791906200074b565b620002c3919062000782565b905092915050565b611b418062000f1183390190565b5f604051905090565b5f80fd5b5f80fd5b5f80fd5b5f80fd5b5f601f19601f8301169050919050565b7f4e487b71000000000000000000000000000000000000000000000000000000005f52604160045260245ffd5b6200033a82620002f2565b810181811067ffffffffffffffff821117156200035c576200035b62000302565b5b80604052505050565b5f62000370620002d9565b90506200037e82826200032f565b919050565b5f67ffffffffffffffff821115620003a0576200039f62000302565b5b620003ab82620002f2565b9050602081019050919050565b5f5b83811015620003d7578082015181840152602081019050620003ba565b5f8484015250505050565b5f620003f8620003f28462000383565b62000365565b905082815260208101848484011115620004175762000416620002ee565b5b62000424848285620003b8565b509392505050565b5f82601f830112620004435762000442620002ea565b5b815162000455848260208601620003e2565b91505092915050565b5f819050919050565b62000472816200045e565b81146200047d575f80fd5b50565b5f81519050620004908162000467565b92915050565b5f805f805f60a08688031215620004b257620004b1620002e2565b5b5f86015167ffffffffffffffff811115620004d257620004d1620002e6565b5b620004e0888289016200042c565b955050602086015167ffffffffffffffff811115620005045762000503620002e6565b5b62000512888289016200042c565b945050604086015167ffffffffffffffff811115620005365762000535620002e6565b5b62000544888289016200042c565b935050606086015167ffffffffffffffff811115620005685762000567620002e6565b5b62000576888289016200042c565b9250506080620005898882890162000480565b9150509295509295909350565b5f73ffffffffffffffffffffffffffffffffffffffff82169050919050565b5f620005c18262000596565b9050919050565b620005d381620005b5565b82525050565b5f602082019050620005ee5f830184620005c8565b92915050565b5f81519050919050565b5f82825260208201905092915050565b5f6200061a82620005f4565b620006268185620005fe565b935062000638818560208601620003b8565b6200064381620002f2565b840191505092915050565b5f6080820190508181035f8301526200066881876200060e565b905081810360208301526200067e81866200060e565b905081810360408301526200069481856200060e565b90508181036060830152620006aa81846200060e565b905095945050505050565b620006c0816200045e565b82525050565b5f604082019050620006db5f830185620005c8565b620006ea6020830184620006b5565b9392505050565b7f4e487b71000000000000000000000000000000000000000000000000000000005f52601260045260245ffd5b7f4e487b71000000000000000000000000000000000000000000000000000000005f52601160045260245ffd5b5f62000757826200045e565b915062000764836200045e565b925082620007775762000776620006f1565b5b828204905092915050565b5f6200078e826200045e565b91506200079b836200045e565b9250828202620007ab816200045e565b91508282048414831517620007c557620007c46200071e565b5b5092915050565b61073780620007da5f395ff3fe608060405234801561000f575f80fd5b50600436106100a7575f3560e01c806382b2e2571161006f57806382b2e2571461012d5780638da5cb5b1461014b5780639f27bd8714610169578063f25f4b5614610187578063f2fde38b146101a5578063fc0c546a146101c1576100a7565b8063391dbe5f146100ab57806361678d60146100c9578063715018a6146100e7578063736a2929146100f15780637962d2f51461010f575b5f80fd5b6100b36101df565b6040516100c09190610595565b60405180910390f35b6100d16101f7565b6040516100de9190610595565b60405180910390f35b6100ef61021c565b005b6100f961022f565b6040516101069190610595565b60405180910390f35b610117610247565b6040516101249190610595565b60405180910390f35b61013561026c565b60405161014291906105c6565b60405180910390f35b61015361030b565b6040516101609190610595565b60405180910390f35b610171610332565b60405161017e91906105c6565b60405180910390f35b61018f610339565b60405161019c9190610595565b60405180910390f35b6101bf60048036038101906101ba919061060d565b61035e565b005b6101c96103e2565b6040516101d69190610693565b60405180910390f35b73650f14051e298edc44dd7260f0e1d2a65245705981565b60045f9054906101000a900473ffffffffffffffffffffffffffffffffffffffff1681565b610224610407565b61022d5f61048e565b565b73650f14051e298edc44dd7260f0e1d2a65245705981565b60035f9054906101000a900473ffffffffffffffffffffffffffffffffffffffff1681565b5f60015f9054906101000a900473ffffffffffffffffffffffffffffffffffffffff1673ffffffffffffffffffffffffffffffffffffffff166370a08231306040518263ffffffff1660e01b81526004016102c79190610595565b602060405180830381865afa1580156102e2573d5f803e3d5ffd5b505050506040513d601f19601f8201168201806040525081019061030691906106d6565b905090565b5f805f9054906101000a900473ffffffffffffffffffffffffffffffffffffffff16905090565b5f47905090565b60025f9054906101000a900473ffffffffffffffffffffffffffffffffffffffff1681565b610366610407565b5f73ffffffffffffffffffffffffffffffffffffffff168173ffffffffffffffffffffffffffffffffffffffff16036103d6575f6040517f1e4fbdf70000000000000000000000000000000000000000000000000000000081526004016103cd9190610595565b60405180910390fd5b6103df8161048e565b50565b60015f9054906101000a900473ffffffffffffffffffffffffffffffffffffffff1681565b61040f61054f565b73ffffffffffffffffffffffffffffffffffffffff1661042d61030b565b73ffffffffffffffffffffffffffffffffffffffff161461048c5761045061054f565b6040517f118cdaa70000000000000000000000000000000000000000000000000000000081526004016104839190610595565b60405180910390fd5b565b5f805f9054906101000a900473ffffffffffffffffffffffffffffffffffffffff169050815f806101000a81548173ffffffffffffffffffffffffffffffffffffffff021916908373ffffffffffffffffffffffffffffffffffffffff1602179055508173ffffffffffffffffffffffffffffffffffffffff168173ffffffffffffffffffffffffffffffffffffffff167f8be0079c531659141344cd1fd0a4f28419497f9722a3daafe3b4186f6b6457e060405160405180910390a35050565b5f33905090565b5f73ffffffffffffffffffffffffffffffffffffffff82169050919050565b5f61057f82610556565b9050919050565b61058f81610575565b82525050565b5f6020820190506105a85f830184610586565b92915050565b5f819050919050565b6105c0816105ae565b82525050565b5f6020820190506105d95f8301846105b7565b92915050565b5f80fd5b6105ec81610575565b81146105f6575f80fd5b50565b5f81359050610607816105e3565b92915050565b5f60208284031215610622576106216105df565b5b5f61062f848285016105f9565b91505092915050565b5f819050919050565b5f61065b61065661065184610556565b610638565b610556565b9050919050565b5f61066c82610641565b9050919050565b5f61067d82610662565b9050919050565b61068d81610673565b82525050565b5f6020820190506106a65f830184610684565b92915050565b6106b5816105ae565b81146106bf575f80fd5b50565b5f815190506106d0816106ac565b92915050565b5f602082840312156106eb576106ea6105df565b5b5f6106f8848285016106c2565b9150509291505056fea2646970667358221220074cb5b790e2efbe45a57f028ff4edeaa109158f023c713a48f389d4a9e0d66b64736f6c63430008140033608060405234801562000010575f80fd5b5060405162001b4138038062001b418339818101604052810190620000369190620003a2565b33848481600390816200004a9190620006c4565b5080600490816200005c9190620006c4565b5050505f73ffffffffffffffffffffffffffffffffffffffff168173ffffffffffffffffffffffffffffffffffffffff1603620000d2575f6040517f1e4fbdf7000000000000000000000000000000000000000000000000000000008152600401620000c99190620007eb565b60405180910390fd5b620000e3816200015a60201b60201c565b5060fa825111156200012c576040517f08c379a0000000000000000000000000000000000000000000000000000000008152600401620001239062000864565b60405180910390fd5b81600690816200013d9190620006c4565b5080600790816200014f9190620006c4565b505050505062000884565b5f60055f9054906101000a900473ffffffffffffffffffffffffffffffffffffffff1690508160055f6101000a81548173ffffffffffffffffffffffffffffffffffffffff021916908373ffffffffffffffffffffffffffffffffffffffff1602179055508173ffffffffffffffffffffffffffffffffffffffff168173ffffffffffffffffffffffffffffffffffffffff167f8be0079c531659141344cd1fd0a4f28419497f9722a3daafe3b4186f6b6457e060405160405180910390a35050565b5f604051905090565b5f80fd5b5f80fd5b5f80fd5b5f80fd5b5f601f19601f8301169050919050565b7f4e487b71000000000000000000000000000000000000000000000000000000005f52604160045260245ffd5b6200027e8262000236565b810181811067ffffffffffffffff82111715620002a0576200029f62000246565b5b80604052505050565b5f620002b46200021d565b9050620002c2828262000273565b919050565b5f67ffffffffffffffff821115620002e457620002e362000246565b5b620002ef8262000236565b9050602081019050919050565b5f5b838110156200031b578082015181840152602081019050620002fe565b5f8484015250505050565b5f6200033c6200033684620002c7565b620002a9565b9050828152602081018484840111156200035b576200035a62000232565b5b62000368848285620002fc565b509392505050565b5f82601f8301126200038757620003866200022e565b5b81516200039984826020860162000326565b91505092915050565b5f805f8060808587031215620003bd57620003bc62000226565b5b5f85015167ffffffffffffffff811115620003dd57620003dc6200022a565b5b620003eb8782880162000370565b945050602085015167ffffffffffffffff8111156200040f576200040e6200022a565b5b6200041d8782880162000370565b935050604085015167ffffffffffffffff8111156200044157620004406200022a565b5b6200044f8782880162000370565b925050606085015167ffffffffffffffff8111156200047357620004726200022a565b5b620004818782880162000370565b91505092959194509250565b5f81519050919050565b7f4e487b71000000000000000000000000000000000000000000000000000000005f52602260045260245ffd5b5f6002820490506001821680620004dc57607f821691505b602082108103620004f257620004f162000497565b5b50919050565b5f819050815f5260205f209050919050565b5f6020601f8301049050919050565b5f82821b905092915050565b5f60088302620005567fffffffffffffffffffffffffffffffffffffffffffffffffffffffffffffffff8262000519565b62000562868362000519565b95508019841693508086168417925050509392505050565b5f819050919050565b5f819050919050565b5f620005ac620005a6620005a0846200057a565b62000583565b6200057a565b9050919050565b5f819050919050565b620005c7836200058c565b620005df620005d682620005b3565b84845462000525565b825550505050565b5f90565b620005f5620005e7565b62000602818484620005bc565b505050565b5b8181101562000629576200061d5f82620005eb565b60018101905062000608565b5050565b601f82111562000678576200064281620004f8565b6200064d846200050a565b810160208510156200065d578190505b620006756200066c856200050a565b83018262000607565b50505b505050565b5f82821c905092915050565b5f6200069a5f19846008026200067d565b1980831691505092915050565b5f620006b4838362000689565b9150826002028217905092915050565b620006cf826200048d565b67ffffffffffffffff811115620006eb57620006ea62000246565b5b620006f78254620004c4565b620007048282856200062d565b5f60209050601f8311600181146200073a575f841562000725578287015190505b620007318582620006a7565b865550620007a0565b601f1984166200074a86620004f8565b5f5b8281101562000773578489015182556001820191506020850194506020810190506200074c565b868310156200079357848901516200078f601f89168262000689565b8355505b6001600288020188555050505b505050505050565b5f73ffffffffffffffffffffffffffffffffffffffff82169050919050565b5f620007d382620007a8565b9050919050565b620007e581620007c7565b82525050565b5f602082019050620008005f830184620007da565b92915050565b5f82825260208201905092915050565b7f4465736372697074696f6e20746f6f206c6f6e670000000000000000000000005f82015250565b5f6200084c60148362000806565b9150620008598262000816565b602082019050919050565b5f6020820190508181035f8301526200087d816200083e565b9050919050565b6112af80620008925f395ff3fe608060405234801561000f575f80fd5b50600436106100f3575f3560e01c8063715018a611610095578063a9059cbb11610064578063a9059cbb14610261578063dd62ed3e14610291578063f2fde38b146102c1578063f3ccaac0146102dd576100f3565b8063715018a6146101fd5780637284e416146102075780638da5cb5b1461022557806395d89b4114610243576100f3565b806323b872dd116100d157806323b872dd14610163578063313ce5671461019357806340c10f19146101b157806370a08231146101cd576100f3565b806306fdde03146100f7578063095ea7b31461011557806318160ddd14610145575b5f80fd5b6100ff6102fb565b60405161010c9190610f28565b60405180910390f35b61012f600480360381019061012a9190610fd9565b61038b565b60405161013c9190611031565b60405180910390f35b61014d6103ad565b60405161015a9190611059565b60405180910390f35b61017d60048036038101906101789190611072565b6103b6565b60405161018a9190611031565b60405180910390f35b61019b6103e4565b6040516101a891906110dd565b60405180910390f35b6101cb60048036038101906101c69190610fd9565b6103ec565b005b6101e760048036038101906101e291906110f6565b610402565b6040516101f49190611059565b60405180910390f35b610205610447565b005b61020f61045a565b60405161021c9190610f28565b60405180910390f35b61022d6104e6565b60405161023a9190611130565b60405180910390f35b61024b61050e565b6040516102589190610f28565b60405180910390f35b61027b60048036038101906102769190610fd9565b61059e565b6040516102889190611031565b60405180910390f35b6102ab60048036038101906102a69190611149565b6105c0565b6040516102b89190611059565b60405180910390f35b6102db60048036038101906102d691906110f6565b610642565b005b6102e56106c6565b6040516102f29190610f28565b60405180910390f35b60606003805461030a906111b4565b80601f0160208091040260200160405190810160405280929190818152602001828054610336906111b4565b80156103815780601f1061035857610100808354040283529160200191610381565b820191905f5260205f20905b81548152906001019060200180831161036457829003601f168201915b5050505050905090565b5f80610395610752565b90506103a2818585610759565b600191505092915050565b5f600254905090565b5f806103c0610752565b90506103cd85828561076b565b6103d88585856107fd565b60019150509392505050565b5f6012905090565b6103f46108ed565b6103fe8282610974565b5050565b5f805f8373ffffffffffffffffffffffffffffffffffffffff1673ffffffffffffffffffffffffffffffffffffffff1681526020019081526020015f20549050919050565b61044f6108ed565b6104585f6109f3565b565b60068054610467906111b4565b80601f0160208091040260200160405190810160405280929190818152602001828054610493906111b4565b80156104de5780601f106104b5576101008083540402835291602001916104de565b820191905f5260205f20905b8154815290600101906020018083116104c157829003601f168201915b505050505081565b5f60055f9054906101000a900473ffffffffffffffffffffffffffffffffffffffff16905090565b60606004805461051d906111b4565b80601f0160208091040260200160405190810160405280929190818152602001828054610549906111b4565b80156105945780601f1061056b57610100808354040283529160200191610594565b820191905f5260205f20905b81548152906001019060200180831161057757829003601f168201915b5050505050905090565b5f806105a8610752565b90506105b58185856107fd565b600191505092915050565b5f60015f8473ffffffffffffffffffffffffffffffffffffffff1673ffffffffffffffffffffffffffffffffffffffff1681526020019081526020015f205f8373ffffffffffffffffffffffffffffffffffffffff1673ffffffffffffffffffffffffffffffffffffffff1681526020019081526020015f2054905092915050565b61064a6108ed565b5f73ffffffffffffffffffffffffffffffffffffffff168173ffffffffffffffffffffffffffffffffffffffff16036106ba575f6040517f1e4fbdf70000000000000000000000000000000000000000000000000000000081526004016106b19190611130565b60405180910390fd5b6106c3816109f3565b50565b600780546106d3906111b4565b80601f01602080910402602001604051908101604052809291908181526020018280546106ff906111b4565b801561074a5780601f106107215761010080835404028352916020019161074a565b820191905f5260205f20905b81548152906001019060200180831161072d57829003601f168201915b505050505081565b5f33905090565b6107668383836001610ab6565b505050565b5f61077684846105c0565b90507fffffffffffffffffffffffffffffffffffffffffffffffffffffffffffffffff81146107f757818110156107e8578281836040517ffb8f41b20000000000000000000000000000000000000000000000000000000081526004016107df939291906111e4565b60405180910390fd5b6107f684848484035f610ab6565b5b50505050565b5f73ffffffffffffffffffffffffffffffffffffffff168373ffffffffffffffffffffffffffffffffffffffff160361086d575f6040517f96c6fd1e0000000000000000000000000000000000000000000000000000000081526004016108649190611130565b60405180910390fd5b5f73ffffffffffffffffffffffffffffffffffffffff168273ffffffffffffffffffffffffffffffffffffffff16036108dd575f6040517fec442f050000000000000000000000000000000000000000000000000000000081526004016108d49190611130565b60405180910390fd5b6108e8838383610c85565b505050565b6108f5610752565b73ffffffffffffffffffffffffffffffffffffffff166109136104e6565b73ffffffffffffffffffffffffffffffffffffffff161461097257610936610752565b6040517f118cdaa70000000000000000000000000000000000000000000000000000000081526004016109699190611130565b60405180910390fd5b565b5f73ffffffffffffffffffffffffffffffffffffffff168273ffffffffffffffffffffffffffffffffffffffff16036109e4575f6040517fec442f050000000000000000000000000000000000000000000000000000000081526004016109db9190611130565b60405180910390fd5b6109ef5f8383610c85565b5050565b5f60055f9054906101000a900473ffffffffffffffffffffffffffffffffffffffff1690508160055f6101000a81548173ffffffffffffffffffffffffffffffffffffffff021916908373ffffffffffffffffffffffffffffffffffffffff1602179055508173ffffffffffffffffffffffffffffffffffffffff168173ffffffffffffffffffffffffffffffffffffffff167f8be0079c531659141344cd1fd0a4f28419497f9722a3daafe3b4186f6b6457e060405160405180910390a35050565b5f73ffffffffffffffffffffffffffffffffffffffff168473ffffffffffffffffffffffffffffffffffffffff1603610b26575f6040517fe602df05000000000000000000000000000000000000000000000000000000008152600401610b1d9190611130565b60405180910390fd5b5f73ffffffffffffffffffffffffffffffffffffffff168373ffffffffffffffffffffffffffffffffffffffff1603610b96575f6040517f94280d62000000000000000000000000000000000000000000000000000000008152600401610b8d9190611130565b60405180910390fd5b8160015f8673ffffffffffffffffffffffffffffffffffffffff1673ffffffffffffffffffffffffffffffffffffffff1681526020019081526020015f205f8573ffffffffffffffffffffffffffffffffffffffff1673ffffffffffffffffffffffffffffffffffffffff1681526020019081526020015f20819055508015610c7f578273ffffffffffffffffffffffffffffffffffffffff168473ffffffffffffffffffffffffffffffffffffffff167f8c5be1e5ebec7d5bd14f71427d1e84f3dd0314c0f7b2291e5b200ac8c7c3b92584604051610c769190611059565b60405180910390a35b50505050565b5f73ffffffffffffffffffffffffffffffffffffffff168373ffffffffffffffffffffffffffffffffffffffff1603610cd5578060025f828254610cc99190611246565b92505081905550610da3565b5f805f8573ffffffffffffffffffffffffffffffffffffffff1673ffffffffffffffffffffffffffffffffffffffff1681526020019081526020015f2054905081811015610d5e578381836040517fe450d38c000000000000000000000000000000000000000000000000000000008152600401610d55939291906111e4565b60405180910390fd5b8181035f808673ffffffffffffffffffffffffffffffffffffffff1673ffffffffffffffffffffffffffffffffffffffff1681526020019081526020015f2081905550505b5f73ffffffffffffffffffffffffffffffffffffffff168273ffffffffffffffffffffffffffffffffffffffff1603610dea578060025f8282540392505081905550610e34565b805f808473ffffffffffffffffffffffffffffffffffffffff1673ffffffffffffffffffffffffffffffffffffffff1681526020019081526020015f205f82825401925050819055505b8173ffffffffffffffffffffffffffffffffffffffff168373ffffffffffffffffffffffffffffffffffffffff167fddf252ad1be2c89b69c2b068fc378daa952ba7f163c4a11628f55a4df523b3ef83604051610e919190611059565b60405180910390a3505050565b5f81519050919050565b5f82825260208201905092915050565b5f5b83811015610ed5578082015181840152602081019050610eba565b5f8484015250505050565b5f601f19601f8301169050919050565b5f610efa82610e9e565b610f048185610ea8565b9350610f14818560208601610eb8565b610f1d81610ee0565b840191505092915050565b5f6020820190508181035f830152610f408184610ef0565b905092915050565b5f80fd5b5f73ffffffffffffffffffffffffffffffffffffffff82169050919050565b5f610f7582610f4c565b9050919050565b610f8581610f6b565b8114610f8f575f80fd5b50565b5f81359050610fa081610f7c565b92915050565b5f819050919050565b610fb881610fa6565b8114610fc2575f80fd5b50565b5f81359050610fd381610faf565b92915050565b5f8060408385031215610fef57610fee610f48565b5b5f610ffc85828601610f92565b925050602061100d85828601610fc5565b9150509250929050565b5f8115159050919050565b61102b81611017565b82525050565b5f6020820190506110445f830184611022565b92915050565b61105381610fa6565b82525050565b5f60208201905061106c5f83018461104a565b92915050565b5f805f6060848603121561108957611088610f48565b5b5f61109686828701610f92565b93505060206110a786828701610f92565b92505060406110b886828701610fc5565b9150509250925092565b5f60ff82169050919050565b6110d7816110c2565b82525050565b5f6020820190506110f05f8301846110ce565b92915050565b5f6020828403121561110b5761110a610f48565b5b5f61111884828501610f92565b91505092915050565b61112a81610f6b565b82525050565b5f6020820190506111435f830184611121565b92915050565b5f806040838503121561115f5761115e610f48565b5b5f61116c85828601610f92565b925050602061117d85828601610f92565b9150509250929050565b7f4e487b71000000000000000000000000000000000000000000000000000000005f52602260045260245ffd5b5f60028204905060018216806111cb57607f821691505b6020821081036111de576111dd611187565b5b50919050565b5f6060820190506111f75f830186611121565b611204602083018561104a565b611211604083018461104a565b949350505050565b7f4e487b71000000000000000000000000000000000000000000000000000000005f52601160045260245ffd5b5f61125082610fa6565b915061125b83610fa6565b925082820190508082111561127357611272611219565b5b9291505056fea2646970667358221220bc208fc7cedc063dac5694695a104e81ed5079173f0fe54625faf4f53f4a440764736f6c63430008140033a26469706673582212207ce49602a84bb4673e9d243889166698c43baf26c603a7f407830e91cef51e1364736f6c63430008140033",
			"opcodes": "PUSH1 0xA0 PUSH1 0x40 MSTORE CALLVALUE DUP1 ISZERO PUSH3 0x10 JUMPI PUSH0 DUP1 REVERT JUMPDEST POP PUSH1 0x40 MLOAD PUSH3 0x3E19 CODESIZE SUB DUP1 PUSH3 0x3E19 DUP4 CODECOPY DUP2 DUP2 ADD PUSH1 0x40 MSTORE DUP2 ADD SWAP1 PUSH3 0x36 SWAP2 SWAP1 PUSH3 0x265 JUMP JUMPDEST CALLER PUSH0 PUSH20 0xFFFFFFFFFFFFFFFFFFFFFFFFFFFFFFFFFFFFFFFF AND DUP2 PUSH20 0xFFFFFFFFFFFFFFFFFFFFFFFFFFFFFFFFFFFFFFFF AND SUB PUSH3 0xAA JUMPI PUSH0 PUSH1 0x40 MLOAD PUSH32 0x1E4FBDF700000000000000000000000000000000000000000000000000000000 DUP2 MSTORE PUSH1 0x4 ADD PUSH3 0xA1 SWAP2 SWAP1 PUSH3 0x2CF JUMP JUMPDEST PUSH1 0x40 MLOAD DUP1 SWAP2 SUB SWAP1 REVERT JUMPDEST PUSH3 0xBB DUP2 PUSH3 0x107 PUSH1 0x20 SHL PUSH1 0x20 SHR JUMP JUMPDEST POP DUP3 PUSH20 0xFFFFFFFFFFFFFFFFFFFFFFFFFFFFFFFFFFFFFFFF AND PUSH1 0x80 DUP2 PUSH20 0xFFFFFFFFFFFFFFFFFFFFFFFFFFFFFFFFFFFFFFFF AND DUP2 MSTORE POP POP DUP2 PUSH1 0x1 DUP2 SWAP1 SSTORE POP DUP1 PUSH1 0x2 DUP2 SWAP1 SSTORE POP POP POP POP PUSH3 0x2EA JUMP JUMPDEST PUSH0 DUP1 PUSH0 SWAP1 SLOAD SWAP1 PUSH2 0x100 EXP SWAP1 DIV PUSH20 0xFFFFFFFFFFFFFFFFFFFFFFFFFFFFFFFFFFFFFFFF AND SWAP1 POP DUP2 PUSH0 DUP1 PUSH2 0x100 EXP DUP2 SLOAD DUP2 PUSH20 0xFFFFFFFFFFFFFFFFFFFFFFFFFFFFFFFFFFFFFFFF MUL NOT AND SWAP1 DUP4 PUSH20 0xFFFFFFFFFFFFFFFFFFFFFFFFFFFFFFFFFFFFFFFF AND MUL OR SWAP1 SSTORE POP DUP2 PUSH20 0xFFFFFFFFFFFFFFFFFFFFFFFFFFFFFFFFFFFFFFFF AND DUP2 PUSH20 0xFFFFFFFFFFFFFFFFFFFFFFFFFFFFFFFFFFFFFFFF AND PUSH32 0x8BE0079C531659141344CD1FD0A4F28419497F9722A3DAAFE3B4186F6B6457E0 PUSH1 0x40 MLOAD PUSH1 0x40 MLOAD DUP1 SWAP2 SUB SWAP1 LOG3 POP POP JUMP JUMPDEST PUSH0 DUP1 REVERT JUMPDEST PUSH0 PUSH20 0xFFFFFFFFFFFFFFFFFFFFFFFFFFFFFFFFFFFFFFFF DUP3 AND SWAP1 POP SWAP2 SWAP1 POP JUMP JUMPDEST PUSH0 PUSH3 0x1F7 DUP3 PUSH3 0x1CC JUMP JUMPDEST SWAP1 POP SWAP2 SWAP1 POP JUMP JUMPDEST PUSH3 0x209 DUP2 PUSH3 0x1EB JUMP JUMPDEST DUP2 EQ PUSH3 0x214 JUMPI PUSH0 DUP1 REVERT JUMPDEST POP JUMP JUMPDEST PUSH0 DUP2 MLOAD SWAP1 POP PUSH3 0x227 DUP2 PUSH3 0x1FE JUMP JUMPDEST SWAP3 SWAP2 POP POP JUMP JUMPDEST PUSH0 DUP2 SWAP1 POP SWAP2 SWAP1 POP JUMP JUMPDEST PUSH3 0x241 DUP2 PUSH3 0x22D JUMP JUMPDEST DUP2 EQ PUSH3 0x24C JUMPI PUSH0 DUP1 REVERT JUMPDEST POP JUMP JUMPDEST PUSH0 DUP2 MLOAD SWAP1 POP PUSH3 0x25F DUP2 PUSH3 0x236 JUMP JUMPDEST SWAP3 SWAP2 POP POP JUMP JUMPDEST PUSH0 DUP1 PUSH0 PUSH1 0x60 DUP5 DUP7 SUB SLT ISZERO PUSH3 0x27F JUMPI PUSH3 0x27E PUSH3 0x1C8 JUMP JUMPDEST JUMPDEST PUSH0 PUSH3 0x28E DUP7 DUP3 DUP8 ADD PUSH3 0x217 JUMP JUMPDEST SWAP4 POP POP PUSH1 0x20 PUSH3 0x2A1 DUP7 DUP3 DUP8 ADD PUSH3 0x24F JUMP JUMPDEST SWAP3 POP POP PUSH1 0x40 PUSH3 0x2B4 DUP7 DUP3 DUP8 ADD PUSH3 0x24F JUMP JUMPDEST SWAP2 POP POP SWAP3 POP SWAP3 POP SWAP3 JUMP JUMPDEST PUSH3 0x2C9 DUP2 PUSH3 0x1EB JUMP JUMPDEST DUP3 MSTORE POP POP JUMP JUMPDEST PUSH0 PUSH1 0x20 DUP3 ADD SWAP1 POP PUSH3 0x2E4 PUSH0 DUP4 ADD DUP5 PUSH3 0x2BE JUMP JUMPDEST SWAP3 SWAP2 POP POP JUMP JUMPDEST PUSH1 0x80 MLOAD PUSH2 0x3B0F PUSH3 0x30A PUSH0 CODECOPY PUSH0 DUP2 DUP2 PUSH2 0x461 ADD MSTORE PUSH2 0x61F ADD MSTORE PUSH2 0x3B0F PUSH0 RETURN INVALID PUSH1 0x80 PUSH1 0x40 MSTORE PUSH1 0x4 CALLDATASIZE LT PUSH3 0x96 JUMPI PUSH0 CALLDATALOAD PUSH1 0xE0 SHR DUP1 PUSH4 0x715018A6 GT PUSH3 0x60 JUMPI DUP1 PUSH4 0x715018A6 EQ PUSH3 0x177 JUMPI DUP1 PUSH4 0x8DA5CB5B EQ PUSH3 0x190 JUMPI DUP1 PUSH4 0xD07A8946 EQ PUSH3 0x1BF JUMPI DUP1 PUSH4 0xD21BDC5C EQ PUSH3 0x1EE JUMPI DUP1 PUSH4 0xF2FDE38B EQ PUSH3 0x231 JUMPI PUSH3 0x9E JUMP JUMPDEST DUP1 PUSH4 0x132C3BEA EQ PUSH3 0xA2 JUMPI DUP1 PUSH4 0x13EC2E9B EQ PUSH3 0xE5 JUMPI DUP1 PUSH4 0x30C25528 EQ PUSH3 0x114 JUMPI DUP1 PUSH4 0x519DC8D2 EQ PUSH3 0x134 JUMPI PUSH3 0x9E JUMP JUMPDEST CALLDATASIZE PUSH3 0x9E JUMPI STOP JUMPDEST PUSH0 DUP1 REVERT JUMPDEST CALLVALUE DUP1 ISZERO PUSH3 0xAE JUMPI PUSH0 DUP1 REVERT JUMPDEST POP PUSH3 0xCD PUSH1 0x4 DUP1 CALLDATASIZE SUB DUP2 ADD SWAP1 PUSH3 0xC7 SWAP2 SWAP1 PUSH3 0x8DC JUMP JUMPDEST PUSH3 0x25E JUMP JUMPDEST PUSH1 0x40 MLOAD PUSH3 0xDC SWAP2 SWAP1 PUSH3 0x928 JUMP JUMPDEST PUSH1 0x40 MLOAD DUP1 SWAP2 SUB SWAP1 RETURN JUMPDEST CALLVALUE DUP1 ISZERO PUSH3 0xF1 JUMPI PUSH0 DUP1 REVERT JUMPDEST POP PUSH3 0xFC PUSH3 0x2BE JUMP JUMPDEST PUSH1 0x40 MLOAD PUSH3 0x10B SWAP2 SWAP1 PUSH3 0x954 JUMP JUMPDEST PUSH1 0x40 MLOAD DUP1 SWAP2 SUB SWAP1 RETURN JUMPDEST PUSH3 0x132 PUSH1 0x4 DUP1 CALLDATASIZE SUB DUP2 ADD SWAP1 PUSH3 0x12C SWAP2 SWAP1 PUSH3 0xAC7 JUMP JUMPDEST PUSH3 0x2D6 JUMP JUMPDEST STOP JUMPDEST CALLVALUE DUP1 ISZERO PUSH3 0x140 JUMPI PUSH0 DUP1 REVERT JUMPDEST POP PUSH3 0x15F PUSH1 0x4 DUP1 CALLDATASIZE SUB DUP2 ADD SWAP1 PUSH3 0x159 SWAP2 SWAP1 PUSH3 0xC28 JUMP JUMPDEST PUSH3 0x515 JUMP JUMPDEST PUSH1 0x40 MLOAD PUSH3 0x16E SWAP2 SWAP1 PUSH3 0xD1F JUMP JUMPDEST PUSH1 0x40 MLOAD DUP1 SWAP2 SUB SWAP1 RETURN JUMPDEST CALLVALUE DUP1 ISZERO PUSH3 0x183 JUMPI PUSH0 DUP1 REVERT JUMPDEST POP PUSH3 0x18E PUSH3 0x5DF JUMP JUMPDEST STOP JUMPDEST CALLVALUE DUP1 ISZERO PUSH3 0x19C JUMPI PUSH0 DUP1 REVERT JUMPDEST POP PUSH3 0x1A7 PUSH3 0x5F6 JUMP JUMPDEST PUSH1 0x40 MLOAD PUSH3 0x1B6 SWAP2 SWAP1 PUSH3 0xD52 JUMP JUMPDEST PUSH1 0x40 MLOAD DUP1 SWAP2 SUB SWAP1 RETURN JUMPDEST CALLVALUE DUP1 ISZERO PUSH3 0x1CB JUMPI PUSH0 DUP1 REVERT JUMPDEST POP PUSH3 0x1D6 PUSH3 0x61D JUMP JUMPDEST PUSH1 0x40 MLOAD PUSH3 0x1E5 SWAP2 SWAP1 PUSH3 0xD52 JUMP JUMPDEST PUSH1 0x40 MLOAD DUP1 SWAP2 SUB SWAP1 RETURN JUMPDEST CALLVALUE DUP1 ISZERO PUSH3 0x1FA JUMPI PUSH0 DUP1 REVERT JUMPDEST POP PUSH3 0x219 PUSH1 0x4 DUP1 CALLDATASIZE SUB DUP2 ADD SWAP1 PUSH3 0x213 SWAP2 SWAP1 PUSH3 0x8DC JUMP JUMPDEST PUSH3 0x641 JUMP JUMPDEST PUSH1 0x40 MLOAD PUSH3 0x228 SWAP2 SWAP1 PUSH3 0x928 JUMP JUMPDEST PUSH1 0x40 MLOAD DUP1 SWAP2 SUB SWAP1 RETURN JUMPDEST CALLVALUE DUP1 ISZERO PUSH3 0x23D JUMPI PUSH0 DUP1 REVERT JUMPDEST POP PUSH3 0x25C PUSH1 0x4 DUP1 CALLDATASIZE SUB DUP2 ADD SWAP1 PUSH3 0x256 SWAP2 SWAP1 PUSH3 0xC28 JUMP JUMPDEST PUSH3 0x6A2 JUMP JUMPDEST STOP JUMPDEST PUSH0 PUSH3 0x269 PUSH3 0x72D JUMP JUMPDEST PUSH0 DUP3 GT PUSH3 0x2AE JUMPI PUSH1 0x40 MLOAD PUSH32 0x8C379A000000000000000000000000000000000000000000000000000000000 DUP2 MSTORE PUSH1 0x4 ADD PUSH3 0x2A5 SWAP1 PUSH3 0xDCB JUMP JUMPDEST PUSH1 0x40 MLOAD DUP1 SWAP2 SUB SWAP1 REVERT JUMPDEST DUP2 PUSH1 0x1 DUP2 SWAP1 SSTORE POP PUSH1 0x1 SWAP1 POP SWAP2 SWAP1 POP JUMP JUMPDEST PUSH0 PUSH1 0x2 SLOAD PUSH1 0x1 SLOAD PUSH3 0x2D1 SWAP2 SWAP1 PUSH3 0xE18 JUMP JUMPDEST SWAP1 POP SWAP1 JUMP JUMPDEST PUSH3 0x2E0 PUSH3 0x2BE JUMP JUMPDEST CALLVALUE LT ISZERO PUSH3 0x325 JUMPI PUSH1 0x40 MLOAD PUSH32 0x8C379A000000000000000000000000000000000000000000000000000000000 DUP2 MSTORE PUSH1 0x4 ADD PUSH3 0x31C SWAP1 PUSH3 0xEA0 JUMP JUMPDEST PUSH1 0x40 MLOAD DUP1 SWAP2 SUB SWAP1 REVERT JUMPDEST PUSH2 0x3E8 DUP2 LT ISZERO PUSH3 0x36D JUMPI PUSH1 0x40 MLOAD PUSH32 0x8C379A000000000000000000000000000000000000000000000000000000000 DUP2 MSTORE PUSH1 0x4 ADD PUSH3 0x364 SWAP1 PUSH3 0xF0E JUMP JUMPDEST PUSH1 0x40 MLOAD DUP1 SWAP2 SUB SWAP1 REVERT JUMPDEST PUSH0 DUP6 DUP6 DUP6 DUP6 DUP6 PUSH1 0x40 MLOAD PUSH3 0x381 SWAP1 PUSH3 0x885 JUMP JUMPDEST PUSH3 0x391 SWAP6 SWAP5 SWAP4 SWAP3 SWAP2 SWAP1 PUSH3 0xFA2 JUMP JUMPDEST PUSH1 0x40 MLOAD DUP1 SWAP2 SUB SWAP1 PUSH0 CREATE DUP1 ISZERO DUP1 ISZERO PUSH3 0x3AB JUMPI RETURNDATASIZE PUSH0 DUP1 RETURNDATACOPY RETURNDATASIZE PUSH0 REVERT JUMPDEST POP SWAP1 POP PUSH1 0x3 PUSH0 CALLER PUSH20 0xFFFFFFFFFFFFFFFFFFFFFFFFFFFFFFFFFFFFFFFF AND PUSH20 0xFFFFFFFFFFFFFFFFFFFFFFFFFFFFFFFFFFFFFFFF AND DUP2 MSTORE PUSH1 0x20 ADD SWAP1 DUP2 MSTORE PUSH1 0x20 ADD PUSH0 KECCAK256 DUP2 PUSH20 0xFFFFFFFFFFFFFFFFFFFFFFFFFFFFFFFFFFFFFFFF AND SWAP1 DUP1 PUSH1 0x1 DUP2 SLOAD ADD DUP1 DUP3 SSTORE DUP1 SWAP2 POP POP PUSH1 0x1 SWAP1 SUB SWAP1 PUSH0 MSTORE PUSH1 0x20 PUSH0 KECCAK256 ADD PUSH0 SWAP1 SWAP2 SWAP1 SWAP2 SWAP1 SWAP2 PUSH2 0x100 EXP DUP2 SLOAD DUP2 PUSH20 0xFFFFFFFFFFFFFFFFFFFFFFFFFFFFFFFFFFFFFFFF MUL NOT AND SWAP1 DUP4 PUSH20 0xFFFFFFFFFFFFFFFFFFFFFFFFFFFFFFFFFFFFFFFF AND MUL OR SWAP1 SSTORE POP PUSH32 0x0 PUSH20 0xFFFFFFFFFFFFFFFFFFFFFFFFFFFFFFFFFFFFFFFF AND PUSH2 0x8FC PUSH1 0x1 SLOAD SWAP1 DUP2 ISZERO MUL SWAP1 PUSH1 0x40 MLOAD PUSH0 PUSH1 0x40 MLOAD DUP1 DUP4 SUB DUP2 DUP6 DUP9 DUP9 CALL SWAP4 POP POP POP POP ISZERO DUP1 ISZERO PUSH3 0x4C5 JUMPI RETURNDATASIZE PUSH0 DUP1 RETURNDATACOPY RETURNDATASIZE PUSH0 REVERT JUMPDEST POP DUP1 PUSH20 0xFFFFFFFFFFFFFFFFFFFFFFFFFFFFFFFFFFFFFFFF AND PUSH2 0x8FC PUSH1 0x2 SLOAD SWAP1 DUP2 ISZERO MUL SWAP1 PUSH1 0x40 MLOAD PUSH0 PUSH1 0x40 MLOAD DUP1 DUP4 SUB DUP2 DUP6 DUP9 DUP9 CALL SWAP4 POP POP POP POP ISZERO DUP1 ISZERO PUSH3 0x50C JUMPI RETURNDATASIZE PUSH0 DUP1 RETURNDATACOPY RETURNDATASIZE PUSH0 REVERT JUMPDEST POP POP POP POP POP POP POP JUMP JUMPDEST PUSH1 0x60 PUSH1 0x3 PUSH0 DUP4 PUSH20 0xFFFFFFFFFFFFFFFFFFFFFFFFFFFFFFFFFFFFFFFF AND PUSH20 0xFFFFFFFFFFFFFFFFFFFFFFFFFFFFFFFFFFFFFFFF AND DUP2 MSTORE PUSH1 0x20 ADD SWAP1 DUP2 MSTORE PUSH1 0x20 ADD PUSH0 KECCAK256 DUP1 SLOAD DUP1 PUSH1 0x20 MUL PUSH1 0x20 ADD PUSH1 0x40 MLOAD SWAP1 DUP2 ADD PUSH1 0x40 MSTORE DUP1 SWAP3 SWAP2 SWAP1 DUP2 DUP2 MSTORE PUSH1 0x20 ADD DUP3 DUP1 SLOAD DUP1 ISZERO PUSH3 0x5D3 JUMPI PUSH1 0x20 MUL DUP3 ADD SWAP2 SWAP1 PUSH0 MSTORE PUSH1 0x20 PUSH0 KECCAK256 SWAP1 JUMPDEST DUP2 PUSH0 SWAP1 SLOAD SWAP1 PUSH2 0x100 EXP SWAP1 DIV PUSH20 0xFFFFFFFFFFFFFFFFFFFFFFFFFFFFFFFFFFFFFFFF AND PUSH20 0xFFFFFFFFFFFFFFFFFFFFFFFFFFFFFFFFFFFFFFFF AND DUP2 MSTORE PUSH1 0x20 ADD SWAP1 PUSH1 0x1 ADD SWAP1 DUP1 DUP4 GT PUSH3 0x589 JUMPI JUMPDEST POP POP POP POP POP SWAP1 POP SWAP2 SWAP1 POP JUMP JUMPDEST PUSH3 0x5E9 PUSH3 0x72D JUMP JUMPDEST PUSH3 0x5F4 PUSH0 PUSH3 0x7BD JUMP JUMPDEST JUMP JUMPDEST PUSH0 DUP1 PUSH0 SWAP1 SLOAD SWAP1 PUSH2 0x100 EXP SWAP1 DIV PUSH20 0xFFFFFFFFFFFFFFFFFFFFFFFFFFFFFFFFFFFFFFFF AND SWAP1 POP SWAP1 JUMP JUMPDEST PUSH32 0x0 DUP2 JUMP JUMPDEST PUSH0 PUSH3 0x64C PUSH3 0x72D JUMP JUMPDEST PUSH0 DUP3 LT ISZERO PUSH3 0x692 JUMPI PUSH1 0x40 MLOAD PUSH32 0x8C379A000000000000000000000000000000000000000000000000000000000 DUP2 MSTORE PUSH1 0x4 ADD PUSH3 0x689 SWAP1 PUSH3 0x1067 JUMP JUMPDEST PUSH1 0x40 MLOAD DUP1 SWAP2 SUB SWAP1 REVERT JUMPDEST DUP2 PUSH1 0x2 DUP2 SWAP1 SSTORE POP PUSH1 0x1 SWAP1 POP SWAP2 SWAP1 POP JUMP JUMPDEST PUSH3 0x6AC PUSH3 0x72D JUMP JUMPDEST PUSH0 PUSH20 0xFFFFFFFFFFFFFFFFFFFFFFFFFFFFFFFFFFFFFFFF AND DUP2 PUSH20 0xFFFFFFFFFFFFFFFFFFFFFFFFFFFFFFFFFFFFFFFF AND SUB PUSH3 0x71F JUMPI PUSH0 PUSH1 0x40 MLOAD PUSH32 0x1E4FBDF700000000000000000000000000000000000000000000000000000000 DUP2 MSTORE PUSH1 0x4 ADD PUSH3 0x716 SWAP2 SWAP1 PUSH3 0xD52 JUMP JUMPDEST PUSH1 0x40 MLOAD DUP1 SWAP2 SUB SWAP1 REVERT JUMPDEST PUSH3 0x72A DUP2 PUSH3 0x7BD JUMP JUMPDEST POP JUMP JUMPDEST PUSH3 0x737 PUSH3 0x87E JUMP JUMPDEST PUSH20 0xFFFFFFFFFFFFFFFFFFFFFFFFFFFFFFFFFFFFFFFF AND PUSH3 0x757 PUSH3 0x5F6 JUMP JUMPDEST PUSH20 0xFFFFFFFFFFFFFFFFFFFFFFFFFFFFFFFFFFFFFFFF AND EQ PUSH3 0x7BB JUMPI PUSH3 0x77D PUSH3 0x87E JUMP JUMPDEST PUSH1 0x40 MLOAD PUSH32 0x118CDAA700000000000000000000000000000000000000000000000000000000 DUP2 MSTORE PUSH1 0x4 ADD PUSH3 0x7B2 SWAP2 SWAP1 PUSH3 0xD52 JUMP JUMPDEST PUSH1 0x40 MLOAD DUP1 SWAP2 SUB SWAP1 REVERT JUMPDEST JUMP JUMPDEST PUSH0 DUP1 PUSH0 SWAP1 SLOAD SWAP1 PUSH2 0x100 EXP SWAP1 DIV PUSH20 0xFFFFFFFFFFFFFFFFFFFFFFFFFFFFFFFFFFFFFFFF AND SWAP1 POP DUP2 PUSH0 DUP1 PUSH2 0x100 EXP DUP2 SLOAD DUP2 PUSH20 0xFFFFFFFFFFFFFFFFFFFFFFFFFFFFFFFFFFFFFFFF MUL NOT AND SWAP1 DUP4 PUSH20 0xFFFFFFFFFFFFFFFFFFFFFFFFFFFFFFFFFFFFFFFF AND MUL OR SWAP1 SSTORE POP DUP2 PUSH20 0xFFFFFFFFFFFFFFFFFFFFFFFFFFFFFFFFFFFFFFFF AND DUP2 PUSH20 0xFFFFFFFFFFFFFFFFFFFFFFFFFFFFFFFFFFFFFFFF AND PUSH32 0x8BE0079C531659141344CD1FD0A4F28419497F9722A3DAAFE3B4186F6B6457E0 PUSH1 0x40 MLOAD PUSH1 0x40 MLOAD DUP1 SWAP2 SUB SWAP1 LOG3 POP POP JUMP JUMPDEST PUSH0 CALLER SWAP1 POP SWAP1 JUMP JUMPDEST PUSH2 0x2A52 DUP1 PUSH3 0x1088 DUP4 CODECOPY ADD SWAP1 JUMP JUMPDEST PUSH0 PUSH1 0x40 MLOAD SWAP1 POP SWAP1 JUMP JUMPDEST PUSH0 DUP1 REVERT JUMPDEST PUSH0 DUP1 REVERT JUMPDEST PUSH0 DUP2 SWAP1 POP SWAP2 SWAP1 POP JUMP JUMPDEST PUSH3 0x8B8 DUP2 PUSH3 0x8A4 JUMP JUMPDEST DUP2 EQ PUSH3 0x8C3 JUMPI PUSH0 DUP1 REVERT JUMPDEST POP JUMP JUMPDEST PUSH0 DUP2 CALLDATALOAD SWAP1 POP PUSH3 0x8D6 DUP2 PUSH3 0x8AD JUMP JUMPDEST SWAP3 SWAP2 POP POP JUMP JUMPDEST PUSH0 PUSH1 0x20 DUP3 DUP5 SUB SLT ISZERO PUSH3 0x8F4 JUMPI PUSH3 0x8F3 PUSH3 0x89C JUMP JUMPDEST JUMPDEST PUSH0 PUSH3 0x903 DUP5 DUP3 DUP6 ADD PUSH3 0x8C6 JUMP JUMPDEST SWAP2 POP POP SWAP3 SWAP2 POP POP JUMP JUMPDEST PUSH0 DUP2 ISZERO ISZERO SWAP1 POP SWAP2 SWAP1 POP JUMP JUMPDEST PUSH3 0x922 DUP2 PUSH3 0x90C JUMP JUMPDEST DUP3 MSTORE POP POP JUMP JUMPDEST PUSH0 PUSH1 0x20 DUP3 ADD SWAP1 POP PUSH3 0x93D PUSH0 DUP4 ADD DUP5 PUSH3 0x917 JUMP JUMPDEST SWAP3 SWAP2 POP POP JUMP JUMPDEST PUSH3 0x94E DUP2 PUSH3 0x8A4 JUMP JUMPDEST DUP3 MSTORE POP POP JUMP JUMPDEST PUSH0 PUSH1 0x20 DUP3 ADD SWAP1 POP PUSH3 0x969 PUSH0 DUP4 ADD DUP5 PUSH3 0x943 JUMP JUMPDEST SWAP3 SWAP2 POP POP JUMP JUMPDEST PUSH0 DUP1 REVERT JUMPDEST PUSH0 DUP1 REVERT JUMPDEST PUSH0 PUSH1 0x1F NOT PUSH1 0x1F DUP4 ADD AND SWAP1 POP SWAP2 SWAP1 POP JUMP JUMPDEST PUSH32 0x4E487B7100000000000000000000000000000000000000000000000000000000 PUSH0 MSTORE PUSH1 0x41 PUSH1 0x4 MSTORE PUSH1 0x24 PUSH0 REVERT JUMPDEST PUSH3 0x9BF DUP3 PUSH3 0x977 JUMP JUMPDEST DUP2 ADD DUP2 DUP2 LT PUSH8 0xFFFFFFFFFFFFFFFF DUP3 GT OR ISZERO PUSH3 0x9E1 JUMPI PUSH3 0x9E0 PUSH3 0x987 JUMP JUMPDEST JUMPDEST DUP1 PUSH1 0x40 MSTORE POP POP POP JUMP JUMPDEST PUSH0 PUSH3 0x9F5 PUSH3 0x893 JUMP JUMPDEST SWAP1 POP PUSH3 0xA03 DUP3 DUP3 PUSH3 0x9B4 JUMP JUMPDEST SWAP2 SWAP1 POP JUMP JUMPDEST PUSH0 PUSH8 0xFFFFFFFFFFFFFFFF DUP3 GT ISZERO PUSH3 0xA25 JUMPI PUSH3 0xA24 PUSH3 0x987 JUMP JUMPDEST JUMPDEST PUSH3 0xA30 DUP3 PUSH3 0x977 JUMP JUMPDEST SWAP1 POP PUSH1 0x20 DUP2 ADD SWAP1 POP SWAP2 SWAP1 POP JUMP JUMPDEST DUP3 DUP2 DUP4 CALLDATACOPY PUSH0 DUP4 DUP4 ADD MSTORE POP POP POP JUMP JUMPDEST PUSH0 PUSH3 0xA61 PUSH3 0xA5B DUP5 PUSH3 0xA08 JUMP JUMPDEST PUSH3 0x9EA JUMP JUMPDEST SWAP1 POP DUP3 DUP2 MSTORE PUSH1 0x20 DUP2 ADD DUP5 DUP5 DUP5 ADD GT ISZERO PUSH3 0xA80 JUMPI PUSH3 0xA7F PUSH3 0x973 JUMP JUMPDEST JUMPDEST PUSH3 0xA8D DUP5 DUP3 DUP6 PUSH3 0xA3D JUMP JUMPDEST POP SWAP4 SWAP3 POP POP POP JUMP JUMPDEST PUSH0 DUP3 PUSH1 0x1F DUP4 ADD SLT PUSH3 0xAAC JUMPI PUSH3 0xAAB PUSH3 0x96F JUMP JUMPDEST JUMPDEST DUP2 CALLDATALOAD PUSH3 0xABE DUP5 DUP3 PUSH1 0x20 DUP7 ADD PUSH3 0xA4B JUMP JUMPDEST SWAP2 POP POP SWAP3 SWAP2 POP POP JUMP JUMPDEST PUSH0 DUP1 PUSH0 DUP1 PUSH0 PUSH1 0xA0 DUP7 DUP9 SUB SLT ISZERO PUSH3 0xAE3 JUMPI PUSH3 0xAE2 PUSH3 0x89C JUMP JUMPDEST JUMPDEST PUSH0 DUP7 ADD CALLDATALOAD PUSH8 0xFFFFFFFFFFFFFFFF DUP2 GT ISZERO PUSH3 0xB03 JUMPI PUSH3 0xB02 PUSH3 0x8A0 JUMP JUMPDEST JUMPDEST PUSH3 0xB11 DUP9 DUP3 DUP10 ADD PUSH3 0xA95 JUMP JUMPDEST SWAP6 POP POP PUSH1 0x20 DUP7 ADD CALLDATALOAD PUSH8 0xFFFFFFFFFFFFFFFF DUP2 GT ISZERO PUSH3 0xB35 JUMPI PUSH3 0xB34 PUSH3 0x8A0 JUMP JUMPDEST JUMPDEST PUSH3 0xB43 DUP9 DUP3 DUP10 ADD PUSH3 0xA95 JUMP JUMPDEST SWAP5 POP POP PUSH1 0x40 DUP7 ADD CALLDATALOAD PUSH8 0xFFFFFFFFFFFFFFFF DUP2 GT ISZERO PUSH3 0xB67 JUMPI PUSH3 0xB66 PUSH3 0x8A0 JUMP JUMPDEST JUMPDEST PUSH3 0xB75 DUP9 DUP3 DUP10 ADD PUSH3 0xA95 JUMP JUMPDEST SWAP4 POP POP PUSH1 0x60 DUP7 ADD CALLDATALOAD PUSH8 0xFFFFFFFFFFFFFFFF DUP2 GT ISZERO PUSH3 0xB99 JUMPI PUSH3 0xB98 PUSH3 0x8A0 JUMP JUMPDEST JUMPDEST PUSH3 0xBA7 DUP9 DUP3 DUP10 ADD PUSH3 0xA95 JUMP JUMPDEST SWAP3 POP POP PUSH1 0x80 PUSH3 0xBBA DUP9 DUP3 DUP10 ADD PUSH3 0x8C6 JUMP JUMPDEST SWAP2 POP POP SWAP3 SWAP6 POP SWAP3 SWAP6 SWAP1 SWAP4 POP JUMP JUMPDEST PUSH0 PUSH20 0xFFFFFFFFFFFFFFFFFFFFFFFFFFFFFFFFFFFFFFFF DUP3 AND SWAP1 POP SWAP2 SWAP1 POP JUMP JUMPDEST PUSH0 PUSH3 0xBF2 DUP3 PUSH3 0xBC7 JUMP JUMPDEST SWAP1 POP SWAP2 SWAP1 POP JUMP JUMPDEST PUSH3 0xC04 DUP2 PUSH3 0xBE6 JUMP JUMPDEST DUP2 EQ PUSH3 0xC0F JUMPI PUSH0 DUP1 REVERT JUMPDEST POP JUMP JUMPDEST PUSH0 DUP2 CALLDATALOAD SWAP1 POP PUSH3 0xC22 DUP2 PUSH3 0xBF9 JUMP JUMPDEST SWAP3 SWAP2 POP POP JUMP JUMPDEST PUSH0 PUSH1 0x20 DUP3 DUP5 SUB SLT ISZERO PUSH3 0xC40 JUMPI PUSH3 0xC3F PUSH3 0x89C JUMP JUMPDEST JUMPDEST PUSH0 PUSH3 0xC4F DUP5 DUP3 DUP6 ADD PUSH3 0xC12 JUMP JUMPDEST SWAP2 POP POP SWAP3 SWAP2 POP POP JUMP JUMPDEST PUSH0 DUP2 MLOAD SWAP1 POP SWAP2 SWAP1 POP JUMP JUMPDEST PUSH0 DUP3 DUP3 MSTORE PUSH1 0x20 DUP3 ADD SWAP1 POP SWAP3 SWAP2 POP POP JUMP JUMPDEST PUSH0 DUP2 SWAP1 POP PUSH1 0x20 DUP3 ADD SWAP1 POP SWAP2 SWAP1 POP JUMP JUMPDEST PUSH3 0xC8C DUP2 PUSH3 0xBE6 JUMP JUMPDEST DUP3 MSTORE POP POP JUMP JUMPDEST PUSH0 PUSH3 0xC9F DUP4 DUP4 PUSH3 0xC81 JUMP JUMPDEST PUSH1 0x20 DUP4 ADD SWAP1 POP SWAP3 SWAP2 POP POP JUMP JUMPDEST PUSH0 PUSH1 0x20 DUP3 ADD SWAP1 POP SWAP2 SWAP1 POP JUMP JUMPDEST PUSH0 PUSH3 0xCC3 DUP3 PUSH3 0xC58 JUMP JUMPDEST PUSH3 0xCCF DUP2 DUP6 PUSH3 0xC62 JUMP JUMPDEST SWAP4 POP PUSH3 0xCDC DUP4 PUSH3 0xC72 JUMP JUMPDEST DUP1 PUSH0 JUMPDEST DUP4 DUP2 LT ISZERO PUSH3 0xD12 JUMPI DUP2 MLOAD PUSH3 0xCF6 DUP9 DUP3 PUSH3 0xC92 JUMP JUMPDEST SWAP8 POP PUSH3 0xD03 DUP4 PUSH3 0xCAB JUMP JUMPDEST SWAP3 POP POP PUSH1 0x1 DUP2 ADD SWAP1 POP PUSH3 0xCDF JUMP JUMPDEST POP DUP6 SWAP4 POP POP POP POP SWAP3 SWAP2 POP POP JUMP JUMPDEST PUSH0 PUSH1 0x20 DUP3 ADD SWAP1 POP DUP2 DUP2 SUB PUSH0 DUP4 ADD MSTORE PUSH3 0xD39 DUP2 DUP5 PUSH3 0xCB7 JUMP JUMPDEST SWAP1 POP SWAP3 SWAP2 POP POP JUMP JUMPDEST PUSH3 0xD4C DUP2 PUSH3 0xBE6 JUMP JUMPDEST DUP3 MSTORE POP POP JUMP JUMPDEST PUSH0 PUSH1 0x20 DUP3 ADD SWAP1 POP PUSH3 0xD67 PUSH0 DUP4 ADD DUP5 PUSH3 0xD41 JUMP JUMPDEST SWAP3 SWAP2 POP POP JUMP JUMPDEST PUSH0 DUP3 DUP3 MSTORE PUSH1 0x20 DUP3 ADD SWAP1 POP SWAP3 SWAP2 POP POP JUMP JUMPDEST PUSH32 0x546F6F206C6F7720707269636500000000000000000000000000000000000000 PUSH0 DUP3 ADD MSTORE POP JUMP JUMPDEST PUSH0 PUSH3 0xDB3 PUSH1 0xD DUP4 PUSH3 0xD6D JUMP JUMPDEST SWAP2 POP PUSH3 0xDC0 DUP3 PUSH3 0xD7D JUMP JUMPDEST PUSH1 0x20 DUP3 ADD SWAP1 POP SWAP2 SWAP1 POP JUMP JUMPDEST PUSH0 PUSH1 0x20 DUP3 ADD SWAP1 POP DUP2 DUP2 SUB PUSH0 DUP4 ADD MSTORE PUSH3 0xDE4 DUP2 PUSH3 0xDA5 JUMP JUMPDEST SWAP1 POP SWAP2 SWAP1 POP JUMP JUMPDEST PUSH32 0x4E487B7100000000000000000000000000000000000000000000000000000000 PUSH0 MSTORE PUSH1 0x11 PUSH1 0x4 MSTORE PUSH1 0x24 PUSH0 REVERT JUMPDEST PUSH0 PUSH3 0xE24 DUP3 PUSH3 0x8A4 JUMP JUMPDEST SWAP2 POP PUSH3 0xE31 DUP4 PUSH3 0x8A4 JUMP JUMPDEST SWAP3 POP DUP3 DUP3 ADD SWAP1 POP DUP1 DUP3 GT ISZERO PUSH3 0xE4C JUMPI PUSH3 0xE4B PUSH3 0xDEB JUMP JUMPDEST JUMPDEST SWAP3 SWAP2 POP POP JUMP JUMPDEST PUSH32 0x4E6F7420656E6F7567682076616C756500000000000000000000000000000000 PUSH0 DUP3 ADD MSTORE POP JUMP JUMPDEST PUSH0 PUSH3 0xE88 PUSH1 0x10 DUP4 PUSH3 0xD6D JUMP JUMPDEST SWAP2 POP PUSH3 0xE95 DUP3 PUSH3 0xE52 JUMP JUMPDEST PUSH1 0x20 DUP3 ADD SWAP1 POP SWAP2 SWAP1 POP JUMP JUMPDEST PUSH0 PUSH1 0x20 DUP3 ADD SWAP1 POP DUP2 DUP2 SUB PUSH0 DUP4 ADD MSTORE PUSH3 0xEB9 DUP2 PUSH3 0xE7A JUMP JUMPDEST SWAP1 POP SWAP2 SWAP1 POP JUMP JUMPDEST PUSH32 0x546F6F2066657720746F6B656E7320746F206372656174650000000000000000 PUSH0 DUP3 ADD MSTORE POP JUMP JUMPDEST PUSH0 PUSH3 0xEF6 PUSH1 0x18 DUP4 PUSH3 0xD6D JUMP JUMPDEST SWAP2 POP PUSH3 0xF03 DUP3 PUSH3 0xEC0 JUMP JUMPDEST PUSH1 0x20 DUP3 ADD SWAP1 POP SWAP2 SWAP1 POP JUMP JUMPDEST PUSH0 PUSH1 0x20 DUP3 ADD SWAP1 POP DUP2 DUP2 SUB PUSH0 DUP4 ADD MSTORE PUSH3 0xF27 DUP2 PUSH3 0xEE8 JUMP JUMPDEST SWAP1 POP SWAP2 SWAP1 POP JUMP JUMPDEST PUSH0 DUP2 MLOAD SWAP1 POP SWAP2 SWAP1 POP JUMP JUMPDEST PUSH0 JUMPDEST DUP4 DUP2 LT ISZERO PUSH3 0xF57 JUMPI DUP1 DUP3 ADD MLOAD DUP2 DUP5 ADD MSTORE PUSH1 0x20 DUP2 ADD SWAP1 POP PUSH3 0xF3A JUMP JUMPDEST PUSH0 DUP5 DUP5 ADD MSTORE POP POP POP POP JUMP JUMPDEST PUSH0 PUSH3 0xF6E DUP3 PUSH3 0xF2E JUMP JUMPDEST PUSH3 0xF7A DUP2 DUP6 PUSH3 0xD6D JUMP JUMPDEST SWAP4 POP PUSH3 0xF8C DUP2 DUP6 PUSH1 0x20 DUP7 ADD PUSH3 0xF38 JUMP JUMPDEST PUSH3 0xF97 DUP2 PUSH3 0x977 JUMP JUMPDEST DUP5 ADD SWAP2 POP POP SWAP3 SWAP2 POP POP JUMP JUMPDEST PUSH0 PUSH1 0xA0 DUP3 ADD SWAP1 POP DUP2 DUP2 SUB PUSH0 DUP4 ADD MSTORE PUSH3 0xFBC DUP2 DUP9 PUSH3 0xF62 JUMP JUMPDEST SWAP1 POP DUP2 DUP2 SUB PUSH1 0x20 DUP4 ADD MSTORE PUSH3 0xFD2 DUP2 DUP8 PUSH3 0xF62 JUMP JUMPDEST SWAP1 POP DUP2 DUP2 SUB PUSH1 0x40 DUP4 ADD MSTORE PUSH3 0xFE8 DUP2 DUP7 PUSH3 0xF62 JUMP JUMPDEST SWAP1 POP DUP2 DUP2 SUB PUSH1 0x60 DUP4 ADD MSTORE PUSH3 0xFFE DUP2 DUP6 PUSH3 0xF62 JUMP JUMPDEST SWAP1 POP PUSH3 0x100F PUSH1 0x80 DUP4 ADD DUP5 PUSH3 0x943 JUMP JUMPDEST SWAP7 SWAP6 POP POP POP POP POP POP JUMP JUMPDEST PUSH32 0x546F6F206C6F7720616D6F756E74000000000000000000000000000000000000 PUSH0 DUP3 ADD MSTORE POP JUMP JUMPDEST PUSH0 PUSH3 0x104F PUSH1 0xE DUP4 PUSH3 0xD6D JUMP JUMPDEST SWAP2 POP PUSH3 0x105C DUP3 PUSH3 0x1019 JUMP JUMPDEST PUSH1 0x20 DUP3 ADD SWAP1 POP SWAP2 SWAP1 POP JUMP JUMPDEST PUSH0 PUSH1 0x20 DUP3 ADD SWAP1 POP DUP2 DUP2 SUB PUSH0 DUP4 ADD MSTORE PUSH3 0x1080 DUP2 PUSH3 0x1041 JUMP JUMPDEST SWAP1 POP SWAP2 SWAP1 POP JUMP INVALID PUSH1 0x80 PUSH1 0x40 MSTORE CALLVALUE DUP1 ISZERO PUSH3 0x10 JUMPI PUSH0 DUP1 REVERT JUMPDEST POP PUSH1 0x40 MLOAD PUSH3 0x2A52 CODESIZE SUB DUP1 PUSH3 0x2A52 DUP4 CODECOPY DUP2 DUP2 ADD PUSH1 0x40 MSTORE DUP2 ADD SWAP1 PUSH3 0x36 SWAP2 SWAP1 PUSH3 0x496 JUMP JUMPDEST CALLER PUSH0 PUSH20 0xFFFFFFFFFFFFFFFFFFFFFFFFFFFFFFFFFFFFFFFF AND DUP2 PUSH20 0xFFFFFFFFFFFFFFFFFFFFFFFFFFFFFFFFFFFFFFFF AND SUB PUSH3 0xAA JUMPI PUSH0 PUSH1 0x40 MLOAD PUSH32 0x1E4FBDF700000000000000000000000000000000000000000000000000000000 DUP2 MSTORE PUSH1 0x4 ADD PUSH3 0xA1 SWAP2 SWAP1 PUSH3 0x5D9 JUMP JUMPDEST PUSH1 0x40 MLOAD DUP1 SWAP2 SUB SWAP1 REVERT JUMPDEST PUSH3 0xBB DUP2 PUSH3 0x1E3 PUSH1 0x20 SHL PUSH1 0x20 SHR JUMP JUMPDEST POP DUP5 DUP5 DUP5 DUP5 PUSH1 0x40 MLOAD PUSH3 0xCE SWAP1 PUSH3 0x2CB JUMP JUMPDEST PUSH3 0xDD SWAP5 SWAP4 SWAP3 SWAP2 SWAP1 PUSH3 0x64E JUMP JUMPDEST PUSH1 0x40 MLOAD DUP1 SWAP2 SUB SWAP1 PUSH0 CREATE DUP1 ISZERO DUP1 ISZERO PUSH3 0xF7 JUMPI RETURNDATASIZE PUSH0 DUP1 RETURNDATACOPY RETURNDATASIZE PUSH0 REVERT JUMPDEST POP PUSH1 0x1 PUSH0 PUSH2 0x100 EXP DUP2 SLOAD DUP2 PUSH20 0xFFFFFFFFFFFFFFFFFFFFFFFFFFFFFFFFFFFFFFFF MUL NOT AND SWAP1 DUP4 PUSH20 0xFFFFFFFFFFFFFFFFFFFFFFFFFFFFFFFFFFFFFFFF AND MUL OR SWAP1 SSTORE POP PUSH1 0x1 PUSH0 SWAP1 SLOAD SWAP1 PUSH2 0x100 EXP SWAP1 DIV PUSH20 0xFFFFFFFFFFFFFFFFFFFFFFFFFFFFFFFFFFFFFFFF AND PUSH20 0xFFFFFFFFFFFFFFFFFFFFFFFFFFFFFFFFFFFFFFFF AND PUSH4 0x40C10F19 ADDRESS PUSH3 0x18A DUP5 PUSH3 0xDE2B0 PUSH3 0x2A4 PUSH1 0x20 SHL PUSH1 0x20 SHR JUMP JUMPDEST PUSH1 0x40 MLOAD DUP4 PUSH4 0xFFFFFFFF AND PUSH1 0xE0 SHL DUP2 MSTORE PUSH1 0x4 ADD PUSH3 0x1A9 SWAP3 SWAP2 SWAP1 PUSH3 0x6C6 JUMP JUMPDEST PUSH0 PUSH1 0x40 MLOAD DUP1 DUP4 SUB DUP2 PUSH0 DUP8 DUP1 EXTCODESIZE ISZERO DUP1 ISZERO PUSH3 0x1C1 JUMPI PUSH0 DUP1 REVERT JUMPDEST POP GAS CALL ISZERO DUP1 ISZERO PUSH3 0x1D4 JUMPI RETURNDATASIZE PUSH0 DUP1 RETURNDATACOPY RETURNDATASIZE PUSH0 REVERT JUMPDEST POP POP POP POP POP POP POP POP POP PUSH3 0x7CC JUMP JUMPDEST PUSH0 DUP1 PUSH0 SWAP1 SLOAD SWAP1 PUSH2 0x100 EXP SWAP1 DIV PUSH20 0xFFFFFFFFFFFFFFFFFFFFFFFFFFFFFFFFFFFFFFFF AND SWAP1 POP DUP2 PUSH0 DUP1 PUSH2 0x100 EXP DUP2 SLOAD DUP2 PUSH20 0xFFFFFFFFFFFFFFFFFFFFFFFFFFFFFFFFFFFFFFFF MUL NOT AND SWAP1 DUP4 PUSH20 0xFFFFFFFFFFFFFFFFFFFFFFFFFFFFFFFFFFFFFFFF AND MUL OR SWAP1 SSTORE POP DUP2 PUSH20 0xFFFFFFFFFFFFFFFFFFFFFFFFFFFFFFFFFFFFFFFF AND DUP2 PUSH20 0xFFFFFFFFFFFFFFFFFFFFFFFFFFFFFFFFFFFFFFFF AND PUSH32 0x8BE0079C531659141344CD1FD0A4F28419497F9722A3DAAFE3B4186F6B6457E0 PUSH1 0x40 MLOAD PUSH1 0x40 MLOAD DUP1 SWAP2 SUB SWAP1 LOG3 POP POP JUMP JUMPDEST PUSH0 DUP2 PUSH3 0xF4240 DUP5 PUSH3 0x2B7 SWAP2 SWAP1 PUSH3 0x74B JUMP JUMPDEST PUSH3 0x2C3 SWAP2 SWAP1 PUSH3 0x782 JUMP JUMPDEST SWAP1 POP SWAP3 SWAP2 POP POP JUMP JUMPDEST PUSH2 0x1B41 DUP1 PUSH3 0xF11 DUP4 CODECOPY ADD SWAP1 JUMP JUMPDEST PUSH0 PUSH1 0x40 MLOAD SWAP1 POP SWAP1 JUMP JUMPDEST PUSH0 DUP1 REVERT JUMPDEST PUSH0 DUP1 REVERT JUMPDEST PUSH0 DUP1 REVERT JUMPDEST PUSH0 DUP1 REVERT JUMPDEST PUSH0 PUSH1 0x1F NOT PUSH1 0x1F DUP4 ADD AND SWAP1 POP SWAP2 SWAP1 POP JUMP JUMPDEST PUSH32 0x4E487B7100000000000000000000000000000000000000000000000000000000 PUSH0 MSTORE PUSH1 0x41 PUSH1 0x4 MSTORE PUSH1 0x24 PUSH0 REVERT JUMPDEST PUSH3 0x33A DUP3 PUSH3 0x2F2 JUMP JUMPDEST DUP2 ADD DUP2 DUP2 LT PUSH8 0xFFFFFFFFFFFFFFFF DUP3 GT OR ISZERO PUSH3 0x35C JUMPI PUSH3 0x35B PUSH3 0x302 JUMP JUMPDEST JUMPDEST DUP1 PUSH1 0x40 MSTORE POP POP POP JUMP JUMPDEST PUSH0 PUSH3 0x370 PUSH3 0x2D9 JUMP JUMPDEST SWAP1 POP PUSH3 0x37E DUP3 DUP3 PUSH3 0x32F JUMP JUMPDEST SWAP2 SWAP1 POP JUMP JUMPDEST PUSH0 PUSH8 0xFFFFFFFFFFFFFFFF DUP3 GT ISZERO PUSH3 0x3A0 JUMPI PUSH3 0x39F PUSH3 0x302 JUMP JUMPDEST JUMPDEST PUSH3 0x3AB DUP3 PUSH3 0x2F2 JUMP JUMPDEST SWAP1 POP PUSH1 0x20 DUP2 ADD SWAP1 POP SWAP2 SWAP1 POP JUMP JUMPDEST PUSH0 JUMPDEST DUP4 DUP2 LT ISZERO PUSH3 0x3D7 JUMPI DUP1 DUP3 ADD MLOAD DUP2 DUP5 ADD MSTORE PUSH1 0x20 DUP2 ADD SWAP1 POP PUSH3 0x3BA JUMP JUMPDEST PUSH0 DUP5 DUP5 ADD MSTORE POP POP POP POP JUMP JUMPDEST PUSH0 PUSH3 0x3F8 PUSH3 0x3F2 DUP5 PUSH3 0x383 JUMP JUMPDEST PUSH3 0x365 JUMP JUMPDEST SWAP1 POP DUP3 DUP2 MSTORE PUSH1 0x20 DUP2 ADD DUP5 DUP5 DUP5 ADD GT ISZERO PUSH3 0x417 JUMPI PUSH3 0x416 PUSH3 0x2EE JUMP JUMPDEST JUMPDEST PUSH3 0x424 DUP5 DUP3 DUP6 PUSH3 0x3B8 JUMP JUMPDEST POP SWAP4 SWAP3 POP POP POP JUMP JUMPDEST PUSH0 DUP3 PUSH1 0x1F DUP4 ADD SLT PUSH3 0x443 JUMPI PUSH3 0x442 PUSH3 0x2EA JUMP JUMPDEST JUMPDEST DUP2 MLOAD PUSH3 0x455 DUP5 DUP3 PUSH1 0x20 DUP7 ADD PUSH3 0x3E2 JUMP JUMPDEST SWAP2 POP POP SWAP3 SWAP2 POP POP JUMP JUMPDEST PUSH0 DUP2 SWAP1 POP SWAP2 SWAP1 POP JUMP JUMPDEST PUSH3 0x472 DUP2 PUSH3 0x45E JUMP JUMPDEST DUP2 EQ PUSH3 0x47D JUMPI PUSH0 DUP1 REVERT JUMPDEST POP JUMP JUMPDEST PUSH0 DUP2 MLOAD SWAP1 POP PUSH3 0x490 DUP2 PUSH3 0x467 JUMP JUMPDEST SWAP3 SWAP2 POP POP JUMP JUMPDEST PUSH0 DUP1 PUSH0 DUP1 PUSH0 PUSH1 0xA0 DUP7 DUP9 SUB SLT ISZERO PUSH3 0x4B2 JUMPI PUSH3 0x4B1 PUSH3 0x2E2 JUMP JUMPDEST JUMPDEST PUSH0 DUP7 ADD MLOAD PUSH8 0xFFFFFFFFFFFFFFFF DUP2 GT ISZERO PUSH3 0x4D2 JUMPI PUSH3 0x4D1 PUSH3 0x2E6 JUMP JUMPDEST JUMPDEST PUSH3 0x4E0 DUP9 DUP3 DUP10 ADD PUSH3 0x42C JUMP JUMPDEST SWAP6 POP POP PUSH1 0x20 DUP7 ADD MLOAD PUSH8 0xFFFFFFFFFFFFFFFF DUP2 GT ISZERO PUSH3 0x504 JUMPI PUSH3 0x503 PUSH3 0x2E6 JUMP JUMPDEST JUMPDEST PUSH3 0x512 DUP9 DUP3 DUP10 ADD PUSH3 0x42C JUMP JUMPDEST SWAP5 POP POP PUSH1 0x40 DUP7 ADD MLOAD PUSH8 0xFFFFFFFFFFFFFFFF DUP2 GT ISZERO PUSH3 0x536 JUMPI PUSH3 0x535 PUSH3 0x2E6 JUMP JUMPDEST JUMPDEST PUSH3 0x544 DUP9 DUP3 DUP10 ADD PUSH3 0x42C JUMP JUMPDEST SWAP4 POP POP PUSH1 0x60 DUP7 ADD MLOAD PUSH8 0xFFFFFFFFFFFFFFFF DUP2 GT ISZERO PUSH3 0x568 JUMPI PUSH3 0x567 PUSH3 0x2E6 JUMP JUMPDEST JUMPDEST PUSH3 0x576 DUP9 DUP3 DUP10 ADD PUSH3 0x42C JUMP JUMPDEST SWAP3 POP POP PUSH1 0x80 PUSH3 0x589 DUP9 DUP3 DUP10 ADD PUSH3 0x480 JUMP JUMPDEST SWAP2 POP POP SWAP3 SWAP6 POP SWAP3 SWAP6 SWAP1 SWAP4 POP JUMP JUMPDEST PUSH0 PUSH20 0xFFFFFFFFFFFFFFFFFFFFFFFFFFFFFFFFFFFFFFFF DUP3 AND SWAP1 POP SWAP2 SWAP1 POP JUMP JUMPDEST PUSH0 PUSH3 0x5C1 DUP3 PUSH3 0x596 JUMP JUMPDEST SWAP1 POP SWAP2 SWAP1 POP JUMP JUMPDEST PUSH3 0x5D3 DUP2 PUSH3 0x5B5 JUMP JUMPDEST DUP3 MSTORE POP POP JUMP JUMPDEST PUSH0 PUSH1 0x20 DUP3 ADD SWAP1 POP PUSH3 0x5EE PUSH0 DUP4 ADD DUP5 PUSH3 0x5C8 JUMP JUMPDEST SWAP3 SWAP2 POP POP JUMP JUMPDEST PUSH0 DUP2 MLOAD SWAP1 POP SWAP2 SWAP1 POP JUMP JUMPDEST PUSH0 DUP3 DUP3 MSTORE PUSH1 0x20 DUP3 ADD SWAP1 POP SWAP3 SWAP2 POP POP JUMP JUMPDEST PUSH0 PUSH3 0x61A DUP3 PUSH3 0x5F4 JUMP JUMPDEST PUSH3 0x626 DUP2 DUP6 PUSH3 0x5FE JUMP JUMPDEST SWAP4 POP PUSH3 0x638 DUP2 DUP6 PUSH1 0x20 DUP7 ADD PUSH3 0x3B8 JUMP JUMPDEST PUSH3 0x643 DUP2 PUSH3 0x2F2 JUMP JUMPDEST DUP5 ADD SWAP2 POP POP SWAP3 SWAP2 POP POP JUMP JUMPDEST PUSH0 PUSH1 0x80 DUP3 ADD SWAP1 POP DUP2 DUP2 SUB PUSH0 DUP4 ADD MSTORE PUSH3 0x668 DUP2 DUP8 PUSH3 0x60E JUMP JUMPDEST SWAP1 POP DUP2 DUP2 SUB PUSH1 0x20 DUP4 ADD MSTORE PUSH3 0x67E DUP2 DUP7 PUSH3 0x60E JUMP JUMPDEST SWAP1 POP DUP2 DUP2 SUB PUSH1 0x40 DUP4 ADD MSTORE PUSH3 0x694 DUP2 DUP6 PUSH3 0x60E JUMP JUMPDEST SWAP1 POP DUP2 DUP2 SUB PUSH1 0x60 DUP4 ADD MSTORE PUSH3 0x6AA DUP2 DUP5 PUSH3 0x60E JUMP JUMPDEST SWAP1 POP SWAP6 SWAP5 POP POP POP POP POP JUMP JUMPDEST PUSH3 0x6C0 DUP2 PUSH3 0x45E JUMP JUMPDEST DUP3 MSTORE POP POP JUMP JUMPDEST PUSH0 PUSH1 0x40 DUP3 ADD SWAP1 POP PUSH3 0x6DB PUSH0 DUP4 ADD DUP6 PUSH3 0x5C8 JUMP JUMPDEST PUSH3 0x6EA PUSH1 0x20 DUP4 ADD DUP5 PUSH3 0x6B5 JUMP JUMPDEST SWAP4 SWAP3 POP POP POP JUMP JUMPDEST PUSH32 0x4E487B7100000000000000000000000000000000000000000000000000000000 PUSH0 MSTORE PUSH1 0x12 PUSH1 0x4 MSTORE PUSH1 0x24 PUSH0 REVERT JUMPDEST PUSH32 0x4E487B7100000000000000000000000000000000000000000000000000000000 PUSH0 MSTORE PUSH1 0x11 PUSH1 0x4 MSTORE PUSH1 0x24 PUSH0 REVERT JUMPDEST PUSH0 PUSH3 0x757 DUP3 PUSH3 0x45E JUMP JUMPDEST SWAP2 POP PUSH3 0x764 DUP4 PUSH3 0x45E JUMP JUMPDEST SWAP3 POP DUP3 PUSH3 0x777 JUMPI PUSH3 0x776 PUSH3 0x6F1 JUMP JUMPDEST JUMPDEST DUP3 DUP3 DIV SWAP1 POP SWAP3 SWAP2 POP POP JUMP JUMPDEST PUSH0 PUSH3 0x78E DUP3 PUSH3 0x45E JUMP JUMPDEST SWAP2 POP PUSH3 0x79B DUP4 PUSH3 0x45E JUMP JUMPDEST SWAP3 POP DUP3 DUP3 MUL PUSH3 0x7AB DUP2 PUSH3 0x45E JUMP JUMPDEST SWAP2 POP DUP3 DUP3 DIV DUP5 EQ DUP4 ISZERO OR PUSH3 0x7C5 JUMPI PUSH3 0x7C4 PUSH3 0x71E JUMP JUMPDEST JUMPDEST POP SWAP3 SWAP2 POP POP JUMP JUMPDEST PUSH2 0x737 DUP1 PUSH3 0x7DA PUSH0 CODECOPY PUSH0 RETURN INVALID PUSH1 0x80 PUSH1 0x40 MSTORE CALLVALUE DUP1 ISZERO PUSH2 0xF JUMPI PUSH0 DUP1 REVERT JUMPDEST POP PUSH1 0x4 CALLDATASIZE LT PUSH2 0xA7 JUMPI PUSH0 CALLDATALOAD PUSH1 0xE0 SHR DUP1 PUSH4 0x82B2E257 GT PUSH2 0x6F JUMPI DUP1 PUSH4 0x82B2E257 EQ PUSH2 0x12D JUMPI DUP1 PUSH4 0x8DA5CB5B EQ PUSH2 0x14B JUMPI DUP1 PUSH4 0x9F27BD87 EQ PUSH2 0x169 JUMPI DUP1 PUSH4 0xF25F4B56 EQ PUSH2 0x187 JUMPI DUP1 PUSH4 0xF2FDE38B EQ PUSH2 0x1A5 JUMPI DUP1 PUSH4 0xFC0C546A EQ PUSH2 0x1C1 JUMPI PUSH2 0xA7 JUMP JUMPDEST DUP1 PUSH4 0x391DBE5F EQ PUSH2 0xAB JUMPI DUP1 PUSH4 0x61678D60 EQ PUSH2 0xC9 JUMPI DUP1 PUSH4 0x715018A6 EQ PUSH2 0xE7 JUMPI DUP1 PUSH4 0x736A2929 EQ PUSH2 0xF1 JUMPI DUP1 PUSH4 0x7962D2F5 EQ PUSH2 0x10F JUMPI JUMPDEST PUSH0 DUP1 REVERT JUMPDEST PUSH2 0xB3 PUSH2 0x1DF JUMP JUMPDEST PUSH1 0x40 MLOAD PUSH2 0xC0 SWAP2 SWAP1 PUSH2 0x595 JUMP JUMPDEST PUSH1 0x40 MLOAD DUP1 SWAP2 SUB SWAP1 RETURN JUMPDEST PUSH2 0xD1 PUSH2 0x1F7 JUMP JUMPDEST PUSH1 0x40 MLOAD PUSH2 0xDE SWAP2 SWAP1 PUSH2 0x595 JUMP JUMPDEST PUSH1 0x40 MLOAD DUP1 SWAP2 SUB SWAP1 RETURN JUMPDEST PUSH2 0xEF PUSH2 0x21C JUMP JUMPDEST STOP JUMPDEST PUSH2 0xF9 PUSH2 0x22F JUMP JUMPDEST PUSH1 0x40 MLOAD PUSH2 0x106 SWAP2 SWAP1 PUSH2 0x595 JUMP JUMPDEST PUSH1 0x40 MLOAD DUP1 SWAP2 SUB SWAP1 RETURN JUMPDEST PUSH2 0x117 PUSH2 0x247 JUMP JUMPDEST PUSH1 0x40 MLOAD PUSH2 0x124 SWAP2 SWAP1 PUSH2 0x595 JUMP JUMPDEST PUSH1 0x40 MLOAD DUP1 SWAP2 SUB SWAP1 RETURN JUMPDEST PUSH2 0x135 PUSH2 0x26C JUMP JUMPDEST PUSH1 0x40 MLOAD PUSH2 0x142 SWAP2 SWAP1 PUSH2 0x5C6 JUMP JUMPDEST PUSH1 0x40 MLOAD DUP1 SWAP2 SUB SWAP1 RETURN JUMPDEST PUSH2 0x153 PUSH2 0x30B JUMP JUMPDEST PUSH1 0x40 MLOAD PUSH2 0x160 SWAP2 SWAP1 PUSH2 0x595 JUMP JUMPDEST PUSH1 0x40 MLOAD DUP1 SWAP2 SUB SWAP1 RETURN JUMPDEST PUSH2 0x171 PUSH2 0x332 JUMP JUMPDEST PUSH1 0x40 MLOAD PUSH2 0x17E SWAP2 SWAP1 PUSH2 0x5C6 JUMP JUMPDEST PUSH1 0x40 MLOAD DUP1 SWAP2 SUB SWAP1 RETURN JUMPDEST PUSH2 0x18F PUSH2 0x339 JUMP JUMPDEST PUSH1 0x40 MLOAD PUSH2 0x19C SWAP2 SWAP1 PUSH2 0x595 JUMP JUMPDEST PUSH1 0x40 MLOAD DUP1 SWAP2 SUB SWAP1 RETURN JUMPDEST PUSH2 0x1BF PUSH1 0x4 DUP1 CALLDATASIZE SUB DUP2 ADD SWAP1 PUSH2 0x1BA SWAP2 SWAP1 PUSH2 0x60D JUMP JUMPDEST PUSH2 0x35E JUMP JUMPDEST STOP JUMPDEST PUSH2 0x1C9 PUSH2 0x3E2 JUMP JUMPDEST PUSH1 0x40 MLOAD PUSH2 0x1D6 SWAP2 SWAP1 PUSH2 0x693 JUMP JUMPDEST PUSH1 0x40 MLOAD DUP1 SWAP2 SUB SWAP1 RETURN JUMPDEST PUSH20 0x650F14051E298EDC44DD7260F0E1D2A652457059 DUP2 JUMP JUMPDEST PUSH1 0x4 PUSH0 SWAP1 SLOAD SWAP1 PUSH2 0x100 EXP SWAP1 DIV PUSH20 0xFFFFFFFFFFFFFFFFFFFFFFFFFFFFFFFFFFFFFFFF AND DUP2 JUMP JUMPDEST PUSH2 0x224 PUSH2 0x407 JUMP JUMPDEST PUSH2 0x22D PUSH0 PUSH2 0x48E JUMP JUMPDEST JUMP JUMPDEST PUSH20 0x650F14051E298EDC44DD7260F0E1D2A652457059 DUP2 JUMP JUMPDEST PUSH1 0x3 PUSH0 SWAP1 SLOAD SWAP1 PUSH2 0x100 EXP SWAP1 DIV PUSH20 0xFFFFFFFFFFFFFFFFFFFFFFFFFFFFFFFFFFFFFFFF AND DUP2 JUMP JUMPDEST PUSH0 PUSH1 0x1 PUSH0 SWAP1 SLOAD SWAP1 PUSH2 0x100 EXP SWAP1 DIV PUSH20 0xFFFFFFFFFFFFFFFFFFFFFFFFFFFFFFFFFFFFFFFF AND PUSH20 0xFFFFFFFFFFFFFFFFFFFFFFFFFFFFFFFFFFFFFFFF AND PUSH4 0x70A08231 ADDRESS PUSH1 0x40 MLOAD DUP3 PUSH4 0xFFFFFFFF AND PUSH1 0xE0 SHL DUP2 MSTORE PUSH1 0x4 ADD PUSH2 0x2C7 SWAP2 SWAP1 PUSH2 0x595 JUMP JUMPDEST PUSH1 0x20 PUSH1 0x40 MLOAD DUP1 DUP4 SUB DUP2 DUP7 GAS STATICCALL ISZERO DUP1 ISZERO PUSH2 0x2E2 JUMPI RETURNDATASIZE PUSH0 DUP1 RETURNDATACOPY RETURNDATASIZE PUSH0 REVERT JUMPDEST POP POP POP POP PUSH1 0x40 MLOAD RETURNDATASIZE PUSH1 0x1F NOT PUSH1 0x1F DUP3 ADD AND DUP3 ADD DUP1 PUSH1 0x40 MSTORE POP DUP2 ADD SWAP1 PUSH2 0x306 SWAP2 SWAP1 PUSH2 0x6D6 JUMP JUMPDEST SWAP1 POP SWAP1 JUMP JUMPDEST PUSH0 DUP1 PUSH0 SWAP1 SLOAD SWAP1 PUSH2 0x100 EXP SWAP1 DIV PUSH20 0xFFFFFFFFFFFFFFFFFFFFFFFFFFFFFFFFFFFFFFFF AND SWAP1 POP SWAP1 JUMP JUMPDEST PUSH0 SELFBALANCE SWAP1 POP SWAP1 JUMP JUMPDEST PUSH1 0x2 PUSH0 SWAP1 SLOAD SWAP1 PUSH2 0x100 EXP SWAP1 DIV PUSH20 0xFFFFFFFFFFFFFFFFFFFFFFFFFFFFFFFFFFFFFFFF AND DUP2 JUMP JUMPDEST PUSH2 0x366 PUSH2 0x407 JUMP JUMPDEST PUSH0 PUSH20 0xFFFFFFFFFFFFFFFFFFFFFFFFFFFFFFFFFFFFFFFF AND DUP2 PUSH20 0xFFFFFFFFFFFFFFFFFFFFFFFFFFFFFFFFFFFFFFFF AND SUB PUSH2 0x3D6 JUMPI PUSH0 PUSH1 0x40 MLOAD PUSH32 0x1E4FBDF700000000000000000000000000000000000000000000000000000000 DUP2 MSTORE PUSH1 0x4 ADD PUSH2 0x3CD SWAP2 SWAP1 PUSH2 0x595 JUMP JUMPDEST PUSH1 0x40 MLOAD DUP1 SWAP2 SUB SWAP1 REVERT JUMPDEST PUSH2 0x3DF DUP2 PUSH2 0x48E JUMP JUMPDEST POP JUMP JUMPDEST PUSH1 0x1 PUSH0 SWAP1 SLOAD SWAP1 PUSH2 0x100 EXP SWAP1 DIV PUSH20 0xFFFFFFFFFFFFFFFFFFFFFFFFFFFFFFFFFFFFFFFF AND DUP2 JUMP JUMPDEST PUSH2 0x40F PUSH2 0x54F JUMP JUMPDEST PUSH20 0xFFFFFFFFFFFFFFFFFFFFFFFFFFFFFFFFFFFFFFFF AND PUSH2 0x42D PUSH2 0x30B JUMP JUMPDEST PUSH20 0xFFFFFFFFFFFFFFFFFFFFFFFFFFFFFFFFFFFFFFFF AND EQ PUSH2 0x48C JUMPI PUSH2 0x450 PUSH2 0x54F JUMP JUMPDEST PUSH1 0x40 MLOAD PUSH32 0x118CDAA700000000000000000000000000000000000000000000000000000000 DUP2 MSTORE PUSH1 0x4 ADD PUSH2 0x483 SWAP2 SWAP1 PUSH2 0x595 JUMP JUMPDEST PUSH1 0x40 MLOAD DUP1 SWAP2 SUB SWAP1 REVERT JUMPDEST JUMP JUMPDEST PUSH0 DUP1 PUSH0 SWAP1 SLOAD SWAP1 PUSH2 0x100 EXP SWAP1 DIV PUSH20 0xFFFFFFFFFFFFFFFFFFFFFFFFFFFFFFFFFFFFFFFF AND SWAP1 POP DUP2 PUSH0 DUP1 PUSH2 0x100 EXP DUP2 SLOAD DUP2 PUSH20 0xFFFFFFFFFFFFFFFFFFFFFFFFFFFFFFFFFFFFFFFF MUL NOT AND SWAP1 DUP4 PUSH20 0xFFFFFFFFFFFFFFFFFFFFFFFFFFFFFFFFFFFFFFFF AND MUL OR SWAP1 SSTORE POP DUP2 PUSH20 0xFFFFFFFFFFFFFFFFFFFFFFFFFFFFFFFFFFFFFFFF AND DUP2 PUSH20 0xFFFFFFFFFFFFFFFFFFFFFFFFFFFFFFFFFFFFFFFF AND PUSH32 0x8BE0079C531659141344CD1FD0A4F28419497F9722A3DAAFE3B4186F6B6457E0 PUSH1 0x40 MLOAD PUSH1 0x40 MLOAD DUP1 SWAP2 SUB SWAP1 LOG3 POP POP JUMP JUMPDEST PUSH0 CALLER SWAP1 POP SWAP1 JUMP JUMPDEST PUSH0 PUSH20 0xFFFFFFFFFFFFFFFFFFFFFFFFFFFFFFFFFFFFFFFF DUP3 AND SWAP1 POP SWAP2 SWAP1 POP JUMP JUMPDEST PUSH0 PUSH2 0x57F DUP3 PUSH2 0x556 JUMP JUMPDEST SWAP1 POP SWAP2 SWAP1 POP JUMP JUMPDEST PUSH2 0x58F DUP2 PUSH2 0x575 JUMP JUMPDEST DUP3 MSTORE POP POP JUMP JUMPDEST PUSH0 PUSH1 0x20 DUP3 ADD SWAP1 POP PUSH2 0x5A8 PUSH0 DUP4 ADD DUP5 PUSH2 0x586 JUMP JUMPDEST SWAP3 SWAP2 POP POP JUMP JUMPDEST PUSH0 DUP2 SWAP1 POP SWAP2 SWAP1 POP JUMP JUMPDEST PUSH2 0x5C0 DUP2 PUSH2 0x5AE JUMP JUMPDEST DUP3 MSTORE POP POP JUMP JUMPDEST PUSH0 PUSH1 0x20 DUP3 ADD SWAP1 POP PUSH2 0x5D9 PUSH0 DUP4 ADD DUP5 PUSH2 0x5B7 JUMP JUMPDEST SWAP3 SWAP2 POP POP JUMP JUMPDEST PUSH0 DUP1 REVERT JUMPDEST PUSH2 0x5EC DUP2 PUSH2 0x575 JUMP JUMPDEST DUP2 EQ PUSH2 0x5F6 JUMPI PUSH0 DUP1 REVERT JUMPDEST POP JUMP JUMPDEST PUSH0 DUP2 CALLDATALOAD SWAP1 POP PUSH2 0x607 DUP2 PUSH2 0x5E3 JUMP JUMPDEST SWAP3 SWAP2 POP POP JUMP JUMPDEST PUSH0 PUSH1 0x20 DUP3 DUP5 SUB SLT ISZERO PUSH2 0x622 JUMPI PUSH2 0x621 PUSH2 0x5DF JUMP JUMPDEST JUMPDEST PUSH0 PUSH2 0x62F DUP5 DUP3 DUP6 ADD PUSH2 0x5F9 JUMP JUMPDEST SWAP2 POP POP SWAP3 SWAP2 POP POP JUMP JUMPDEST PUSH0 DUP2 SWAP1 POP SWAP2 SWAP1 POP JUMP JUMPDEST PUSH0 PUSH2 0x65B PUSH2 0x656 PUSH2 0x651 DUP5 PUSH2 0x556 JUMP JUMPDEST PUSH2 0x638 JUMP JUMPDEST PUSH2 0x556 JUMP JUMPDEST SWAP1 POP SWAP2 SWAP1 POP JUMP JUMPDEST PUSH0 PUSH2 0x66C DUP3 PUSH2 0x641 JUMP JUMPDEST SWAP1 POP SWAP2 SWAP1 POP JUMP JUMPDEST PUSH0 PUSH2 0x67D DUP3 PUSH2 0x662 JUMP JUMPDEST SWAP1 POP SWAP2 SWAP1 POP JUMP JUMPDEST PUSH2 0x68D DUP2 PUSH2 0x673 JUMP JUMPDEST DUP3 MSTORE POP POP JUMP JUMPDEST PUSH0 PUSH1 0x20 DUP3 ADD SWAP1 POP PUSH2 0x6A6 PUSH0 DUP4 ADD DUP5 PUSH2 0x684 JUMP JUMPDEST SWAP3 SWAP2 POP POP JUMP JUMPDEST PUSH2 0x6B5 DUP2 PUSH2 0x5AE JUMP JUMPDEST DUP2 EQ PUSH2 0x6BF JUMPI PUSH0 DUP1 REVERT JUMPDEST POP JUMP JUMPDEST PUSH0 DUP2 MLOAD SWAP1 POP PUSH2 0x6D0 DUP2 PUSH2 0x6AC JUMP JUMPDEST SWAP3 SWAP2 POP POP JUMP JUMPDEST PUSH0 PUSH1 0x20 DUP3 DUP5 SUB SLT ISZERO PUSH2 0x6EB JUMPI PUSH2 0x6EA PUSH2 0x5DF JUMP JUMPDEST JUMPDEST PUSH0 PUSH2 0x6F8 DUP5 DUP3 DUP6 ADD PUSH2 0x6C2 JUMP JUMPDEST SWAP2 POP POP SWAP3 SWAP2 POP POP JUMP INVALID LOG2 PUSH5 0x6970667358 0x22 SLT KECCAK256 SMOD 0x4C 0xB5 0xB7 SWAP1 0xE2 0xEF 0xBE GASLIMIT 0xA5 PUSH32 0x28FF4EDEAA109158F023C713A48F389D4A9E0D66B64736F6C63430008140033 PUSH1 0x80 PUSH1 0x40 MSTORE CALLVALUE DUP1 ISZERO PUSH3 0x10 JUMPI PUSH0 DUP1 REVERT JUMPDEST POP PUSH1 0x40 MLOAD PUSH3 0x1B41 CODESIZE SUB DUP1 PUSH3 0x1B41 DUP4 CODECOPY DUP2 DUP2 ADD PUSH1 0x40 MSTORE DUP2 ADD SWAP1 PUSH3 0x36 SWAP2 SWAP1 PUSH3 0x3A2 JUMP JUMPDEST CALLER DUP5 DUP5 DUP2 PUSH1 0x3 SWAP1 DUP2 PUSH3 0x4A SWAP2 SWAP1 PUSH3 0x6C4 JUMP JUMPDEST POP DUP1 PUSH1 0x4 SWAP1 DUP2 PUSH3 0x5C SWAP2 SWAP1 PUSH3 0x6C4 JUMP JUMPDEST POP POP POP PUSH0 PUSH20 0xFFFFFFFFFFFFFFFFFFFFFFFFFFFFFFFFFFFFFFFF AND DUP2 PUSH20 0xFFFFFFFFFFFFFFFFFFFFFFFFFFFFFFFFFFFFFFFF AND SUB PUSH3 0xD2 JUMPI PUSH0 PUSH1 0x40 MLOAD PUSH32 0x1E4FBDF700000000000000000000000000000000000000000000000000000000 DUP2 MSTORE PUSH1 0x4 ADD PUSH3 0xC9 SWAP2 SWAP1 PUSH3 0x7EB JUMP JUMPDEST PUSH1 0x40 MLOAD DUP1 SWAP2 SUB SWAP1 REVERT JUMPDEST PUSH3 0xE3 DUP2 PUSH3 0x15A PUSH1 0x20 SHL PUSH1 0x20 SHR JUMP JUMPDEST POP PUSH1 0xFA DUP3 MLOAD GT ISZERO PUSH3 0x12C JUMPI PUSH1 0x40 MLOAD PUSH32 0x8C379A000000000000000000000000000000000000000000000000000000000 DUP2 MSTORE PUSH1 0x4 ADD PUSH3 0x123 SWAP1 PUSH3 0x864 JUMP JUMPDEST PUSH1 0x40 MLOAD DUP1 SWAP2 SUB SWAP1 REVERT JUMPDEST DUP2 PUSH1 0x6 SWAP1 DUP2 PUSH3 0x13D SWAP2 SWAP1 PUSH3 0x6C4 JUMP JUMPDEST POP DUP1 PUSH1 0x7 SWAP1 DUP2 PUSH3 0x14F SWAP2 SWAP1 PUSH3 0x6C4 JUMP JUMPDEST POP POP POP POP POP PUSH3 0x884 JUMP JUMPDEST PUSH0 PUSH1 0x5 PUSH0 SWAP1 SLOAD SWAP1 PUSH2 0x100 EXP SWAP1 DIV PUSH20 0xFFFFFFFFFFFFFFFFFFFFFFFFFFFFFFFFFFFFFFFF AND SWAP1 POP DUP2 PUSH1 0x5 PUSH0 PUSH2 0x100 EXP DUP2 SLOAD DUP2 PUSH20 0xFFFFFFFFFFFFFFFFFFFFFFFFFFFFFFFFFFFFFFFF MUL NOT AND SWAP1 DUP4 PUSH20 0xFFFFFFFFFFFFFFFFFFFFFFFFFFFFFFFFFFFFFFFF AND MUL OR SWAP1 SSTORE POP DUP2 PUSH20 0xFFFFFFFFFFFFFFFFFFFFFFFFFFFFFFFFFFFFFFFF AND DUP2 PUSH20 0xFFFFFFFFFFFFFFFFFFFFFFFFFFFFFFFFFFFFFFFF AND PUSH32 0x8BE0079C531659141344CD1FD0A4F28419497F9722A3DAAFE3B4186F6B6457E0 PUSH1 0x40 MLOAD PUSH1 0x40 MLOAD DUP1 SWAP2 SUB SWAP1 LOG3 POP POP JUMP JUMPDEST PUSH0 PUSH1 0x40 MLOAD SWAP1 POP SWAP1 JUMP JUMPDEST PUSH0 DUP1 REVERT JUMPDEST PUSH0 DUP1 REVERT JUMPDEST PUSH0 DUP1 REVERT JUMPDEST PUSH0 DUP1 REVERT JUMPDEST PUSH0 PUSH1 0x1F NOT PUSH1 0x1F DUP4 ADD AND SWAP1 POP SWAP2 SWAP1 POP JUMP JUMPDEST PUSH32 0x4E487B7100000000000000000000000000000000000000000000000000000000 PUSH0 MSTORE PUSH1 0x41 PUSH1 0x4 MSTORE PUSH1 0x24 PUSH0 REVERT JUMPDEST PUSH3 0x27E DUP3 PUSH3 0x236 JUMP JUMPDEST DUP2 ADD DUP2 DUP2 LT PUSH8 0xFFFFFFFFFFFFFFFF DUP3 GT OR ISZERO PUSH3 0x2A0 JUMPI PUSH3 0x29F PUSH3 0x246 JUMP JUMPDEST JUMPDEST DUP1 PUSH1 0x40 MSTORE POP POP POP JUMP JUMPDEST PUSH0 PUSH3 0x2B4 PUSH3 0x21D JUMP JUMPDEST SWAP1 POP PUSH3 0x2C2 DUP3 DUP3 PUSH3 0x273 JUMP JUMPDEST SWAP2 SWAP1 POP JUMP JUMPDEST PUSH0 PUSH8 0xFFFFFFFFFFFFFFFF DUP3 GT ISZERO PUSH3 0x2E4 JUMPI PUSH3 0x2E3 PUSH3 0x246 JUMP JUMPDEST JUMPDEST PUSH3 0x2EF DUP3 PUSH3 0x236 JUMP JUMPDEST SWAP1 POP PUSH1 0x20 DUP2 ADD SWAP1 POP SWAP2 SWAP1 POP JUMP JUMPDEST PUSH0 JUMPDEST DUP4 DUP2 LT ISZERO PUSH3 0x31B JUMPI DUP1 DUP3 ADD MLOAD DUP2 DUP5 ADD MSTORE PUSH1 0x20 DUP2 ADD SWAP1 POP PUSH3 0x2FE JUMP JUMPDEST PUSH0 DUP5 DUP5 ADD MSTORE POP POP POP POP JUMP JUMPDEST PUSH0 PUSH3 0x33C PUSH3 0x336 DUP5 PUSH3 0x2C7 JUMP JUMPDEST PUSH3 0x2A9 JUMP JUMPDEST SWAP1 POP DUP3 DUP2 MSTORE PUSH1 0x20 DUP2 ADD DUP5 DUP5 DUP5 ADD GT ISZERO PUSH3 0x35B JUMPI PUSH3 0x35A PUSH3 0x232 JUMP JUMPDEST JUMPDEST PUSH3 0x368 DUP5 DUP3 DUP6 PUSH3 0x2FC JUMP JUMPDEST POP SWAP4 SWAP3 POP POP POP JUMP JUMPDEST PUSH0 DUP3 PUSH1 0x1F DUP4 ADD SLT PUSH3 0x387 JUMPI PUSH3 0x386 PUSH3 0x22E JUMP JUMPDEST JUMPDEST DUP2 MLOAD PUSH3 0x399 DUP5 DUP3 PUSH1 0x20 DUP7 ADD PUSH3 0x326 JUMP JUMPDEST SWAP2 POP POP SWAP3 SWAP2 POP POP JUMP JUMPDEST PUSH0 DUP1 PUSH0 DUP1 PUSH1 0x80 DUP6 DUP8 SUB SLT ISZERO PUSH3 0x3BD JUMPI PUSH3 0x3BC PUSH3 0x226 JUMP JUMPDEST JUMPDEST PUSH0 DUP6 ADD MLOAD PUSH8 0xFFFFFFFFFFFFFFFF DUP2 GT ISZERO PUSH3 0x3DD JUMPI PUSH3 0x3DC PUSH3 0x22A JUMP JUMPDEST JUMPDEST PUSH3 0x3EB DUP8 DUP3 DUP9 ADD PUSH3 0x370 JUMP JUMPDEST SWAP5 POP POP PUSH1 0x20 DUP6 ADD MLOAD PUSH8 0xFFFFFFFFFFFFFFFF DUP2 GT ISZERO PUSH3 0x40F JUMPI PUSH3 0x40E PUSH3 0x22A JUMP JUMPDEST JUMPDEST PUSH3 0x41D DUP8 DUP3 DUP9 ADD PUSH3 0x370 JUMP JUMPDEST SWAP4 POP POP PUSH1 0x40 DUP6 ADD MLOAD PUSH8 0xFFFFFFFFFFFFFFFF DUP2 GT ISZERO PUSH3 0x441 JUMPI PUSH3 0x440 PUSH3 0x22A JUMP JUMPDEST JUMPDEST PUSH3 0x44F DUP8 DUP3 DUP9 ADD PUSH3 0x370 JUMP JUMPDEST SWAP3 POP POP PUSH1 0x60 DUP6 ADD MLOAD PUSH8 0xFFFFFFFFFFFFFFFF DUP2 GT ISZERO PUSH3 0x473 JUMPI PUSH3 0x472 PUSH3 0x22A JUMP JUMPDEST JUMPDEST PUSH3 0x481 DUP8 DUP3 DUP9 ADD PUSH3 0x370 JUMP JUMPDEST SWAP2 POP POP SWAP3 SWAP6 SWAP2 SWAP5 POP SWAP3 POP JUMP JUMPDEST PUSH0 DUP2 MLOAD SWAP1 POP SWAP2 SWAP1 POP JUMP JUMPDEST PUSH32 0x4E487B7100000000000000000000000000000000000000000000000000000000 PUSH0 MSTORE PUSH1 0x22 PUSH1 0x4 MSTORE PUSH1 0x24 PUSH0 REVERT JUMPDEST PUSH0 PUSH1 0x2 DUP3 DIV SWAP1 POP PUSH1 0x1 DUP3 AND DUP1 PUSH3 0x4DC JUMPI PUSH1 0x7F DUP3 AND SWAP2 POP JUMPDEST PUSH1 0x20 DUP3 LT DUP2 SUB PUSH3 0x4F2 JUMPI PUSH3 0x4F1 PUSH3 0x497 JUMP JUMPDEST JUMPDEST POP SWAP2 SWAP1 POP JUMP JUMPDEST PUSH0 DUP2 SWAP1 POP DUP2 PUSH0 MSTORE PUSH1 0x20 PUSH0 KECCAK256 SWAP1 POP SWAP2 SWAP1 POP JUMP JUMPDEST PUSH0 PUSH1 0x20 PUSH1 0x1F DUP4 ADD DIV SWAP1 POP SWAP2 SWAP1 POP JUMP JUMPDEST PUSH0 DUP3 DUP3 SHL SWAP1 POP SWAP3 SWAP2 POP POP JUMP JUMPDEST PUSH0 PUSH1 0x8 DUP4 MUL PUSH3 0x556 PUSH32 0xFFFFFFFFFFFFFFFFFFFFFFFFFFFFFFFFFFFFFFFFFFFFFFFFFFFFFFFFFFFFFFFF DUP3 PUSH3 0x519 JUMP JUMPDEST PUSH3 0x562 DUP7 DUP4 PUSH3 0x519 JUMP JUMPDEST SWAP6 POP DUP1 NOT DUP5 AND SWAP4 POP DUP1 DUP7 AND DUP5 OR SWAP3 POP POP POP SWAP4 SWAP3 POP POP POP JUMP JUMPDEST PUSH0 DUP2 SWAP1 POP SWAP2 SWAP1 POP JUMP JUMPDEST PUSH0 DUP2 SWAP1 POP SWAP2 SWAP1 POP JUMP JUMPDEST PUSH0 PUSH3 0x5AC PUSH3 0x5A6 PUSH3 0x5A0 DUP5 PUSH3 0x57A JUMP JUMPDEST PUSH3 0x583 JUMP JUMPDEST PUSH3 0x57A JUMP JUMPDEST SWAP1 POP SWAP2 SWAP1 POP JUMP JUMPDEST PUSH0 DUP2 SWAP1 POP SWAP2 SWAP1 POP JUMP JUMPDEST PUSH3 0x5C7 DUP4 PUSH3 0x58C JUMP JUMPDEST PUSH3 0x5DF PUSH3 0x5D6 DUP3 PUSH3 0x5B3 JUMP JUMPDEST DUP5 DUP5 SLOAD PUSH3 0x525 JUMP JUMPDEST DUP3 SSTORE POP POP POP POP JUMP JUMPDEST PUSH0 SWAP1 JUMP JUMPDEST PUSH3 0x5F5 PUSH3 0x5E7 JUMP JUMPDEST PUSH3 0x602 DUP2 DUP5 DUP5 PUSH3 0x5BC JUMP JUMPDEST POP POP POP JUMP JUMPDEST JUMPDEST DUP2 DUP2 LT ISZERO PUSH3 0x629 JUMPI PUSH3 0x61D PUSH0 DUP3 PUSH3 0x5EB JUMP JUMPDEST PUSH1 0x1 DUP2 ADD SWAP1 POP PUSH3 0x608 JUMP JUMPDEST POP POP JUMP JUMPDEST PUSH1 0x1F DUP3 GT ISZERO PUSH3 0x678 JUMPI PUSH3 0x642 DUP2 PUSH3 0x4F8 JUMP JUMPDEST PUSH3 0x64D DUP5 PUSH3 0x50A JUMP JUMPDEST DUP2 ADD PUSH1 0x20 DUP6 LT ISZERO PUSH3 0x65D JUMPI DUP2 SWAP1 POP JUMPDEST PUSH3 0x675 PUSH3 0x66C DUP6 PUSH3 0x50A JUMP JUMPDEST DUP4 ADD DUP3 PUSH3 0x607 JUMP JUMPDEST POP POP JUMPDEST POP POP POP JUMP JUMPDEST PUSH0 DUP3 DUP3 SHR SWAP1 POP SWAP3 SWAP2 POP POP JUMP JUMPDEST PUSH0 PUSH3 0x69A PUSH0 NOT DUP5 PUSH1 0x8 MUL PUSH3 0x67D JUMP JUMPDEST NOT DUP1 DUP4 AND SWAP2 POP POP SWAP3 SWAP2 POP POP JUMP JUMPDEST PUSH0 PUSH3 0x6B4 DUP4 DUP4 PUSH3 0x689 JUMP JUMPDEST SWAP2 POP DUP3 PUSH1 0x2 MUL DUP3 OR SWAP1 POP SWAP3 SWAP2 POP POP JUMP JUMPDEST PUSH3 0x6CF DUP3 PUSH3 0x48D JUMP JUMPDEST PUSH8 0xFFFFFFFFFFFFFFFF DUP2 GT ISZERO PUSH3 0x6EB JUMPI PUSH3 0x6EA PUSH3 0x246 JUMP JUMPDEST JUMPDEST PUSH3 0x6F7 DUP3 SLOAD PUSH3 0x4C4 JUMP JUMPDEST PUSH3 0x704 DUP3 DUP3 DUP6 PUSH3 0x62D JUMP JUMPDEST PUSH0 PUSH1 0x20 SWAP1 POP PUSH1 0x1F DUP4 GT PUSH1 0x1 DUP2 EQ PUSH3 0x73A JUMPI PUSH0 DUP5 ISZERO PUSH3 0x725 JUMPI DUP3 DUP8 ADD MLOAD SWAP1 POP JUMPDEST PUSH3 0x731 DUP6 DUP3 PUSH3 0x6A7 JUMP JUMPDEST DUP7 SSTORE POP PUSH3 0x7A0 JUMP JUMPDEST PUSH1 0x1F NOT DUP5 AND PUSH3 0x74A DUP7 PUSH3 0x4F8 JUMP JUMPDEST PUSH0 JUMPDEST DUP3 DUP2 LT ISZERO PUSH3 0x773 JUMPI DUP5 DUP10 ADD MLOAD DUP3 SSTORE PUSH1 0x1 DUP3 ADD SWAP2 POP PUSH1 0x20 DUP6 ADD SWAP5 POP PUSH1 0x20 DUP2 ADD SWAP1 POP PUSH3 0x74C JUMP JUMPDEST DUP7 DUP4 LT ISZERO PUSH3 0x793 JUMPI DUP5 DUP10 ADD MLOAD PUSH3 0x78F PUSH1 0x1F DUP10 AND DUP3 PUSH3 0x689 JUMP JUMPDEST DUP4 SSTORE POP JUMPDEST PUSH1 0x1 PUSH1 0x2 DUP9 MUL ADD DUP9 SSTORE POP POP POP JUMPDEST POP POP POP POP POP POP JUMP JUMPDEST PUSH0 PUSH20 0xFFFFFFFFFFFFFFFFFFFFFFFFFFFFFFFFFFFFFFFF DUP3 AND SWAP1 POP SWAP2 SWAP1 POP JUMP JUMPDEST PUSH0 PUSH3 0x7D3 DUP3 PUSH3 0x7A8 JUMP JUMPDEST SWAP1 POP SWAP2 SWAP1 POP JUMP JUMPDEST PUSH3 0x7E5 DUP2 PUSH3 0x7C7 JUMP JUMPDEST DUP3 MSTORE POP POP JUMP JUMPDEST PUSH0 PUSH1 0x20 DUP3 ADD SWAP1 POP PUSH3 0x800 PUSH0 DUP4 ADD DUP5 PUSH3 0x7DA JUMP JUMPDEST SWAP3 SWAP2 POP POP JUMP JUMPDEST PUSH0 DUP3 DUP3 MSTORE PUSH1 0x20 DUP3 ADD SWAP1 POP SWAP3 SWAP2 POP POP JUMP JUMPDEST PUSH32 0x4465736372697074696F6E20746F6F206C6F6E67000000000000000000000000 PUSH0 DUP3 ADD MSTORE POP JUMP JUMPDEST PUSH0 PUSH3 0x84C PUSH1 0x14 DUP4 PUSH3 0x806 JUMP JUMPDEST SWAP2 POP PUSH3 0x859 DUP3 PUSH3 0x816 JUMP JUMPDEST PUSH1 0x20 DUP3 ADD SWAP1 POP SWAP2 SWAP1 POP JUMP JUMPDEST PUSH0 PUSH1 0x20 DUP3 ADD SWAP1 POP DUP2 DUP2 SUB PUSH0 DUP4 ADD MSTORE PUSH3 0x87D DUP2 PUSH3 0x83E JUMP JUMPDEST SWAP1 POP SWAP2 SWAP1 POP JUMP JUMPDEST PUSH2 0x12AF DUP1 PUSH3 0x892 PUSH0 CODECOPY PUSH0 RETURN INVALID PUSH1 0x80 PUSH1 0x40 MSTORE CALLVALUE DUP1 ISZERO PUSH2 0xF JUMPI PUSH0 DUP1 REVERT JUMPDEST POP PUSH1 0x4 CALLDATASIZE LT PUSH2 0xF3 JUMPI PUSH0 CALLDATALOAD PUSH1 0xE0 SHR DUP1 PUSH4 0x715018A6 GT PUSH2 0x95 JUMPI DUP1 PUSH4 0xA9059CBB GT PUSH2 0x64 JUMPI DUP1 PUSH4 0xA9059CBB EQ PUSH2 0x261 JUMPI DUP1 PUSH4 0xDD62ED3E EQ PUSH2 0x291 JUMPI DUP1 PUSH4 0xF2FDE38B EQ PUSH2 0x2C1 JUMPI DUP1 PUSH4 0xF3CCAAC0 EQ PUSH2 0x2DD JUMPI PUSH2 0xF3 JUMP JUMPDEST DUP1 PUSH4 0x715018A6 EQ PUSH2 0x1FD JUMPI DUP1 PUSH4 0x7284E416 EQ PUSH2 0x207 JUMPI DUP1 PUSH4 0x8DA5CB5B EQ PUSH2 0x225 JUMPI DUP1 PUSH4 0x95D89B41 EQ PUSH2 0x243 JUMPI PUSH2 0xF3 JUMP JUMPDEST DUP1 PUSH4 0x23B872DD GT PUSH2 0xD1 JUMPI DUP1 PUSH4 0x23B872DD EQ PUSH2 0x163 JUMPI DUP1 PUSH4 0x313CE567 EQ PUSH2 0x193 JUMPI DUP1 PUSH4 0x40C10F19 EQ PUSH2 0x1B1 JUMPI DUP1 PUSH4 0x70A08231 EQ PUSH2 0x1CD JUMPI PUSH2 0xF3 JUMP JUMPDEST DUP1 PUSH4 0x6FDDE03 EQ PUSH2 0xF7 JUMPI DUP1 PUSH4 0x95EA7B3 EQ PUSH2 0x115 JUMPI DUP1 PUSH4 0x18160DDD EQ PUSH2 0x145 JUMPI JUMPDEST PUSH0 DUP1 REVERT JUMPDEST PUSH2 0xFF PUSH2 0x2FB JUMP JUMPDEST PUSH1 0x40 MLOAD PUSH2 0x10C SWAP2 SWAP1 PUSH2 0xF28 JUMP JUMPDEST PUSH1 0x40 MLOAD DUP1 SWAP2 SUB SWAP1 RETURN JUMPDEST PUSH2 0x12F PUSH1 0x4 DUP1 CALLDATASIZE SUB DUP2 ADD SWAP1 PUSH2 0x12A SWAP2 SWAP1 PUSH2 0xFD9 JUMP JUMPDEST PUSH2 0x38B JUMP JUMPDEST PUSH1 0x40 MLOAD PUSH2 0x13C SWAP2 SWAP1 PUSH2 0x1031 JUMP JUMPDEST PUSH1 0x40 MLOAD DUP1 SWAP2 SUB SWAP1 RETURN JUMPDEST PUSH2 0x14D PUSH2 0x3AD JUMP JUMPDEST PUSH1 0x40 MLOAD PUSH2 0x15A SWAP2 SWAP1 PUSH2 0x1059 JUMP JUMPDEST PUSH1 0x40 MLOAD DUP1 SWAP2 SUB SWAP1 RETURN JUMPDEST PUSH2 0x17D PUSH1 0x4 DUP1 CALLDATASIZE SUB DUP2 ADD SWAP1 PUSH2 0x178 SWAP2 SWAP1 PUSH2 0x1072 JUMP JUMPDEST PUSH2 0x3B6 JUMP JUMPDEST PUSH1 0x40 MLOAD PUSH2 0x18A SWAP2 SWAP1 PUSH2 0x1031 JUMP JUMPDEST PUSH1 0x40 MLOAD DUP1 SWAP2 SUB SWAP1 RETURN JUMPDEST PUSH2 0x19B PUSH2 0x3E4 JUMP JUMPDEST PUSH1 0x40 MLOAD PUSH2 0x1A8 SWAP2 SWAP1 PUSH2 0x10DD JUMP JUMPDEST PUSH1 0x40 MLOAD DUP1 SWAP2 SUB SWAP1 RETURN JUMPDEST PUSH2 0x1CB PUSH1 0x4 DUP1 CALLDATASIZE SUB DUP2 ADD SWAP1 PUSH2 0x1C6 SWAP2 SWAP1 PUSH2 0xFD9 JUMP JUMPDEST PUSH2 0x3EC JUMP JUMPDEST STOP JUMPDEST PUSH2 0x1E7 PUSH1 0x4 DUP1 CALLDATASIZE SUB DUP2 ADD SWAP1 PUSH2 0x1E2 SWAP2 SWAP1 PUSH2 0x10F6 JUMP JUMPDEST PUSH2 0x402 JUMP JUMPDEST PUSH1 0x40 MLOAD PUSH2 0x1F4 SWAP2 SWAP1 PUSH2 0x1059 JUMP JUMPDEST PUSH1 0x40 MLOAD DUP1 SWAP2 SUB SWAP1 RETURN JUMPDEST PUSH2 0x205 PUSH2 0x447 JUMP JUMPDEST STOP JUMPDEST PUSH2 0x20F PUSH2 0x45A JUMP JUMPDEST PUSH1 0x40 MLOAD PUSH2 0x21C SWAP2 SWAP1 PUSH2 0xF28 JUMP JUMPDEST PUSH1 0x40 MLOAD DUP1 SWAP2 SUB SWAP1 RETURN JUMPDEST PUSH2 0x22D PUSH2 0x4E6 JUMP JUMPDEST PUSH1 0x40 MLOAD PUSH2 0x23A SWAP2 SWAP1 PUSH2 0x1130 JUMP JUMPDEST PUSH1 0x40 MLOAD DUP1 SWAP2 SUB SWAP1 RETURN JUMPDEST PUSH2 0x24B PUSH2 0x50E JUMP JUMPDEST PUSH1 0x40 MLOAD PUSH2 0x258 SWAP2 SWAP1 PUSH2 0xF28 JUMP JUMPDEST PUSH1 0x40 MLOAD DUP1 SWAP2 SUB SWAP1 RETURN JUMPDEST PUSH2 0x27B PUSH1 0x4 DUP1 CALLDATASIZE SUB DUP2 ADD SWAP1 PUSH2 0x276 SWAP2 SWAP1 PUSH2 0xFD9 JUMP JUMPDEST PUSH2 0x59E JUMP JUMPDEST PUSH1 0x40 MLOAD PUSH2 0x288 SWAP2 SWAP1 PUSH2 0x1031 JUMP JUMPDEST PUSH1 0x40 MLOAD DUP1 SWAP2 SUB SWAP1 RETURN JUMPDEST PUSH2 0x2AB PUSH1 0x4 DUP1 CALLDATASIZE SUB DUP2 ADD SWAP1 PUSH2 0x2A6 SWAP2 SWAP1 PUSH2 0x1149 JUMP JUMPDEST PUSH2 0x5C0 JUMP JUMPDEST PUSH1 0x40 MLOAD PUSH2 0x2B8 SWAP2 SWAP1 PUSH2 0x1059 JUMP JUMPDEST PUSH1 0x40 MLOAD DUP1 SWAP2 SUB SWAP1 RETURN JUMPDEST PUSH2 0x2DB PUSH1 0x4 DUP1 CALLDATASIZE SUB DUP2 ADD SWAP1 PUSH2 0x2D6 SWAP2 SWAP1 PUSH2 0x10F6 JUMP JUMPDEST PUSH2 0x642 JUMP JUMPDEST STOP JUMPDEST PUSH2 0x2E5 PUSH2 0x6C6 JUMP JUMPDEST PUSH1 0x40 MLOAD PUSH2 0x2F2 SWAP2 SWAP1 PUSH2 0xF28 JUMP JUMPDEST PUSH1 0x40 MLOAD DUP1 SWAP2 SUB SWAP1 RETURN JUMPDEST PUSH1 0x60 PUSH1 0x3 DUP1 SLOAD PUSH2 0x30A SWAP1 PUSH2 0x11B4 JUMP JUMPDEST DUP1 PUSH1 0x1F ADD PUSH1 0x20 DUP1 SWAP2 DIV MUL PUSH1 0x20 ADD PUSH1 0x40 MLOAD SWAP1 DUP2 ADD PUSH1 0x40 MSTORE DUP1 SWAP3 SWAP2 SWAP1 DUP2 DUP2 MSTORE PUSH1 0x20 ADD DUP3 DUP1 SLOAD PUSH2 0x336 SWAP1 PUSH2 0x11B4 JUMP JUMPDEST DUP1 ISZERO PUSH2 0x381 JUMPI DUP1 PUSH1 0x1F LT PUSH2 0x358 JUMPI PUSH2 0x100 DUP1 DUP4 SLOAD DIV MUL DUP4 MSTORE SWAP2 PUSH1 0x20 ADD SWAP2 PUSH2 0x381 JUMP JUMPDEST DUP3 ADD SWAP2 SWAP1 PUSH0 MSTORE PUSH1 0x20 PUSH0 KECCAK256 SWAP1 JUMPDEST DUP2 SLOAD DUP2 MSTORE SWAP1 PUSH1 0x1 ADD SWAP1 PUSH1 0x20 ADD DUP1 DUP4 GT PUSH2 0x364 JUMPI DUP3 SWAP1 SUB PUSH1 0x1F AND DUP3 ADD SWAP2 JUMPDEST POP POP POP POP POP SWAP1 POP SWAP1 JUMP JUMPDEST PUSH0 DUP1 PUSH2 0x395 PUSH2 0x752 JUMP JUMPDEST SWAP1 POP PUSH2 0x3A2 DUP2 DUP6 DUP6 PUSH2 0x759 JUMP JUMPDEST PUSH1 0x1 SWAP2 POP POP SWAP3 SWAP2 POP POP JUMP JUMPDEST PUSH0 PUSH1 0x2 SLOAD SWAP1 POP SWAP1 JUMP JUMPDEST PUSH0 DUP1 PUSH2 0x3C0 PUSH2 0x752 JUMP JUMPDEST SWAP1 POP PUSH2 0x3CD DUP6 DUP3 DUP6 PUSH2 0x76B JUMP JUMPDEST PUSH2 0x3D8 DUP6 DUP6 DUP6 PUSH2 0x7FD JUMP JUMPDEST PUSH1 0x1 SWAP2 POP POP SWAP4 SWAP3 POP POP POP JUMP JUMPDEST PUSH0 PUSH1 0x12 SWAP1 POP SWAP1 JUMP JUMPDEST PUSH2 0x3F4 PUSH2 0x8ED JUMP JUMPDEST PUSH2 0x3FE DUP3 DUP3 PUSH2 0x974 JUMP JUMPDEST POP POP JUMP JUMPDEST PUSH0 DUP1 PUSH0 DUP4 PUSH20 0xFFFFFFFFFFFFFFFFFFFFFFFFFFFFFFFFFFFFFFFF AND PUSH20 0xFFFFFFFFFFFFFFFFFFFFFFFFFFFFFFFFFFFFFFFF AND DUP2 MSTORE PUSH1 0x20 ADD SWAP1 DUP2 MSTORE PUSH1 0x20 ADD PUSH0 KECCAK256 SLOAD SWAP1 POP SWAP2 SWAP1 POP JUMP JUMPDEST PUSH2 0x44F PUSH2 0x8ED JUMP JUMPDEST PUSH2 0x458 PUSH0 PUSH2 0x9F3 JUMP JUMPDEST JUMP JUMPDEST PUSH1 0x6 DUP1 SLOAD PUSH2 0x467 SWAP1 PUSH2 0x11B4 JUMP JUMPDEST DUP1 PUSH1 0x1F ADD PUSH1 0x20 DUP1 SWAP2 DIV MUL PUSH1 0x20 ADD PUSH1 0x40 MLOAD SWAP1 DUP2 ADD PUSH1 0x40 MSTORE DUP1 SWAP3 SWAP2 SWAP1 DUP2 DUP2 MSTORE PUSH1 0x20 ADD DUP3 DUP1 SLOAD PUSH2 0x493 SWAP1 PUSH2 0x11B4 JUMP JUMPDEST DUP1 ISZERO PUSH2 0x4DE JUMPI DUP1 PUSH1 0x1F LT PUSH2 0x4B5 JUMPI PUSH2 0x100 DUP1 DUP4 SLOAD DIV MUL DUP4 MSTORE SWAP2 PUSH1 0x20 ADD SWAP2 PUSH2 0x4DE JUMP JUMPDEST DUP3 ADD SWAP2 SWAP1 PUSH0 MSTORE PUSH1 0x20 PUSH0 KECCAK256 SWAP1 JUMPDEST DUP2 SLOAD DUP2 MSTORE SWAP1 PUSH1 0x1 ADD SWAP1 PUSH1 0x20 ADD DUP1 DUP4 GT PUSH2 0x4C1 JUMPI DUP3 SWAP1 SUB PUSH1 0x1F AND DUP3 ADD SWAP2 JUMPDEST POP POP POP POP POP DUP2 JUMP JUMPDEST PUSH0 PUSH1 0x5 PUSH0 SWAP1 SLOAD SWAP1 PUSH2 0x100 EXP SWAP1 DIV PUSH20 0xFFFFFFFFFFFFFFFFFFFFFFFFFFFFFFFFFFFFFFFF AND SWAP1 POP SWAP1 JUMP JUMPDEST PUSH1 0x60 PUSH1 0x4 DUP1 SLOAD PUSH2 0x51D SWAP1 PUSH2 0x11B4 JUMP JUMPDEST DUP1 PUSH1 0x1F ADD PUSH1 0x20 DUP1 SWAP2 DIV MUL PUSH1 0x20 ADD PUSH1 0x40 MLOAD SWAP1 DUP2 ADD PUSH1 0x40 MSTORE DUP1 SWAP3 SWAP2 SWAP1 DUP2 DUP2 MSTORE PUSH1 0x20 ADD DUP3 DUP1 SLOAD PUSH2 0x549 SWAP1 PUSH2 0x11B4 JUMP JUMPDEST DUP1 ISZERO PUSH2 0x594 JUMPI DUP1 PUSH1 0x1F LT PUSH2 0x56B JUMPI PUSH2 0x100 DUP1 DUP4 SLOAD DIV MUL DUP4 MSTORE SWAP2 PUSH1 0x20 ADD SWAP2 PUSH2 0x594 JUMP JUMPDEST DUP3 ADD SWAP2 SWAP1 PUSH0 MSTORE PUSH1 0x20 PUSH0 KECCAK256 SWAP1 JUMPDEST DUP2 SLOAD DUP2 MSTORE SWAP1 PUSH1 0x1 ADD SWAP1 PUSH1 0x20 ADD DUP1 DUP4 GT PUSH2 0x577 JUMPI DUP3 SWAP1 SUB PUSH1 0x1F AND DUP3 ADD SWAP2 JUMPDEST POP POP POP POP POP SWAP1 POP SWAP1 JUMP JUMPDEST PUSH0 DUP1 PUSH2 0x5A8 PUSH2 0x752 JUMP JUMPDEST SWAP1 POP PUSH2 0x5B5 DUP2 DUP6 DUP6 PUSH2 0x7FD JUMP JUMPDEST PUSH1 0x1 SWAP2 POP POP SWAP3 SWAP2 POP POP JUMP JUMPDEST PUSH0 PUSH1 0x1 PUSH0 DUP5 PUSH20 0xFFFFFFFFFFFFFFFFFFFFFFFFFFFFFFFFFFFFFFFF AND PUSH20 0xFFFFFFFFFFFFFFFFFFFFFFFFFFFFFFFFFFFFFFFF AND DUP2 MSTORE PUSH1 0x20 ADD SWAP1 DUP2 MSTORE PUSH1 0x20 ADD PUSH0 KECCAK256 PUSH0 DUP4 PUSH20 0xFFFFFFFFFFFFFFFFFFFFFFFFFFFFFFFFFFFFFFFF AND PUSH20 0xFFFFFFFFFFFFFFFFFFFFFFFFFFFFFFFFFFFFFFFF AND DUP2 MSTORE PUSH1 0x20 ADD SWAP1 DUP2 MSTORE PUSH1 0x20 ADD PUSH0 KECCAK256 SLOAD SWAP1 POP SWAP3 SWAP2 POP POP JUMP JUMPDEST PUSH2 0x64A PUSH2 0x8ED JUMP JUMPDEST PUSH0 PUSH20 0xFFFFFFFFFFFFFFFFFFFFFFFFFFFFFFFFFFFFFFFF AND DUP2 PUSH20 0xFFFFFFFFFFFFFFFFFFFFFFFFFFFFFFFFFFFFFFFF AND SUB PUSH2 0x6BA JUMPI PUSH0 PUSH1 0x40 MLOAD PUSH32 0x1E4FBDF700000000000000000000000000000000000000000000000000000000 DUP2 MSTORE PUSH1 0x4 ADD PUSH2 0x6B1 SWAP2 SWAP1 PUSH2 0x1130 JUMP JUMPDEST PUSH1 0x40 MLOAD DUP1 SWAP2 SUB SWAP1 REVERT JUMPDEST PUSH2 0x6C3 DUP2 PUSH2 0x9F3 JUMP JUMPDEST POP JUMP JUMPDEST PUSH1 0x7 DUP1 SLOAD PUSH2 0x6D3 SWAP1 PUSH2 0x11B4 JUMP JUMPDEST DUP1 PUSH1 0x1F ADD PUSH1 0x20 DUP1 SWAP2 DIV MUL PUSH1 0x20 ADD PUSH1 0x40 MLOAD SWAP1 DUP2 ADD PUSH1 0x40 MSTORE DUP1 SWAP3 SWAP2 SWAP1 DUP2 DUP2 MSTORE PUSH1 0x20 ADD DUP3 DUP1 SLOAD PUSH2 0x6FF SWAP1 PUSH2 0x11B4 JUMP JUMPDEST DUP1 ISZERO PUSH2 0x74A JUMPI DUP1 PUSH1 0x1F LT PUSH2 0x721 JUMPI PUSH2 0x100 DUP1 DUP4 SLOAD DIV MUL DUP4 MSTORE SWAP2 PUSH1 0x20 ADD SWAP2 PUSH2 0x74A JUMP JUMPDEST DUP3 ADD SWAP2 SWAP1 PUSH0 MSTORE PUSH1 0x20 PUSH0 KECCAK256 SWAP1 JUMPDEST DUP2 SLOAD DUP2 MSTORE SWAP1 PUSH1 0x1 ADD SWAP1 PUSH1 0x20 ADD DUP1 DUP4 GT PUSH2 0x72D JUMPI DUP3 SWAP1 SUB PUSH1 0x1F AND DUP3 ADD SWAP2 JUMPDEST POP POP POP POP POP DUP2 JUMP JUMPDEST PUSH0 CALLER SWAP1 POP SWAP1 JUMP JUMPDEST PUSH2 0x766 DUP4 DUP4 DUP4 PUSH1 0x1 PUSH2 0xAB6 JUMP JUMPDEST POP POP POP JUMP JUMPDEST PUSH0 PUSH2 0x776 DUP5 DUP5 PUSH2 0x5C0 JUMP JUMPDEST SWAP1 POP PUSH32 0xFFFFFFFFFFFFFFFFFFFFFFFFFFFFFFFFFFFFFFFFFFFFFFFFFFFFFFFFFFFFFFFF DUP2 EQ PUSH2 0x7F7 JUMPI DUP2 DUP2 LT ISZERO PUSH2 0x7E8 JUMPI DUP3 DUP2 DUP4 PUSH1 0x40 MLOAD PUSH32 0xFB8F41B200000000000000000000000000000000000000000000000000000000 DUP2 MSTORE PUSH1 0x4 ADD PUSH2 0x7DF SWAP4 SWAP3 SWAP2 SWAP1 PUSH2 0x11E4 JUMP JUMPDEST PUSH1 0x40 MLOAD DUP1 SWAP2 SUB SWAP1 REVERT JUMPDEST PUSH2 0x7F6 DUP5 DUP5 DUP5 DUP5 SUB PUSH0 PUSH2 0xAB6 JUMP JUMPDEST JUMPDEST POP POP POP POP JUMP JUMPDEST PUSH0 PUSH20 0xFFFFFFFFFFFFFFFFFFFFFFFFFFFFFFFFFFFFFFFF AND DUP4 PUSH20 0xFFFFFFFFFFFFFFFFFFFFFFFFFFFFFFFFFFFFFFFF AND SUB PUSH2 0x86D JUMPI PUSH0 PUSH1 0x40 MLOAD PUSH32 0x96C6FD1E00000000000000000000000000000000000000000000000000000000 DUP2 MSTORE PUSH1 0x4 ADD PUSH2 0x864 SWAP2 SWAP1 PUSH2 0x1130 JUMP JUMPDEST PUSH1 0x40 MLOAD DUP1 SWAP2 SUB SWAP1 REVERT JUMPDEST PUSH0 PUSH20 0xFFFFFFFFFFFFFFFFFFFFFFFFFFFFFFFFFFFFFFFF AND DUP3 PUSH20 0xFFFFFFFFFFFFFFFFFFFFFFFFFFFFFFFFFFFFFFFF AND SUB PUSH2 0x8DD JUMPI PUSH0 PUSH1 0x40 MLOAD PUSH32 0xEC442F0500000000000000000000000000000000000000000000000000000000 DUP2 MSTORE PUSH1 0x4 ADD PUSH2 0x8D4 SWAP2 SWAP1 PUSH2 0x1130 JUMP JUMPDEST PUSH1 0x40 MLOAD DUP1 SWAP2 SUB SWAP1 REVERT JUMPDEST PUSH2 0x8E8 DUP4 DUP4 DUP4 PUSH2 0xC85 JUMP JUMPDEST POP POP POP JUMP JUMPDEST PUSH2 0x8F5 PUSH2 0x752 JUMP JUMPDEST PUSH20 0xFFFFFFFFFFFFFFFFFFFFFFFFFFFFFFFFFFFFFFFF AND PUSH2 0x913 PUSH2 0x4E6 JUMP JUMPDEST PUSH20 0xFFFFFFFFFFFFFFFFFFFFFFFFFFFFFFFFFFFFFFFF AND EQ PUSH2 0x972 JUMPI PUSH2 0x936 PUSH2 0x752 JUMP JUMPDEST PUSH1 0x40 MLOAD PUSH32 0x118CDAA700000000000000000000000000000000000000000000000000000000 DUP2 MSTORE PUSH1 0x4 ADD PUSH2 0x969 SWAP2 SWAP1 PUSH2 0x1130 JUMP JUMPDEST PUSH1 0x40 MLOAD DUP1 SWAP2 SUB SWAP1 REVERT JUMPDEST JUMP JUMPDEST PUSH0 PUSH20 0xFFFFFFFFFFFFFFFFFFFFFFFFFFFFFFFFFFFFFFFF AND DUP3 PUSH20 0xFFFFFFFFFFFFFFFFFFFFFFFFFFFFFFFFFFFFFFFF AND SUB PUSH2 0x9E4 JUMPI PUSH0 PUSH1 0x40 MLOAD PUSH32 0xEC442F0500000000000000000000000000000000000000000000000000000000 DUP2 MSTORE PUSH1 0x4 ADD PUSH2 0x9DB SWAP2 SWAP1 PUSH2 0x1130 JUMP JUMPDEST PUSH1 0x40 MLOAD DUP1 SWAP2 SUB SWAP1 REVERT JUMPDEST PUSH2 0x9EF PUSH0 DUP4 DUP4 PUSH2 0xC85 JUMP JUMPDEST POP POP JUMP JUMPDEST PUSH0 PUSH1 0x5 PUSH0 SWAP1 SLOAD SWAP1 PUSH2 0x100 EXP SWAP1 DIV PUSH20 0xFFFFFFFFFFFFFFFFFFFFFFFFFFFFFFFFFFFFFFFF AND SWAP1 POP DUP2 PUSH1 0x5 PUSH0 PUSH2 0x100 EXP DUP2 SLOAD DUP2 PUSH20 0xFFFFFFFFFFFFFFFFFFFFFFFFFFFFFFFFFFFFFFFF MUL NOT AND SWAP1 DUP4 PUSH20 0xFFFFFFFFFFFFFFFFFFFFFFFFFFFFFFFFFFFFFFFF AND MUL OR SWAP1 SSTORE POP DUP2 PUSH20 0xFFFFFFFFFFFFFFFFFFFFFFFFFFFFFFFFFFFFFFFF AND DUP2 PUSH20 0xFFFFFFFFFFFFFFFFFFFFFFFFFFFFFFFFFFFFFFFF AND PUSH32 0x8BE0079C531659141344CD1FD0A4F28419497F9722A3DAAFE3B4186F6B6457E0 PUSH1 0x40 MLOAD PUSH1 0x40 MLOAD DUP1 SWAP2 SUB SWAP1 LOG3 POP POP JUMP JUMPDEST PUSH0 PUSH20 0xFFFFFFFFFFFFFFFFFFFFFFFFFFFFFFFFFFFFFFFF AND DUP5 PUSH20 0xFFFFFFFFFFFFFFFFFFFFFFFFFFFFFFFFFFFFFFFF AND SUB PUSH2 0xB26 JUMPI PUSH0 PUSH1 0x40 MLOAD PUSH32 0xE602DF0500000000000000000000000000000000000000000000000000000000 DUP2 MSTORE PUSH1 0x4 ADD PUSH2 0xB1D SWAP2 SWAP1 PUSH2 0x1130 JUMP JUMPDEST PUSH1 0x40 MLOAD DUP1 SWAP2 SUB SWAP1 REVERT JUMPDEST PUSH0 PUSH20 0xFFFFFFFFFFFFFFFFFFFFFFFFFFFFFFFFFFFFFFFF AND DUP4 PUSH20 0xFFFFFFFFFFFFFFFFFFFFFFFFFFFFFFFFFFFFFFFF AND SUB PUSH2 0xB96 JUMPI PUSH0 PUSH1 0x40 MLOAD PUSH32 0x94280D6200000000000000000000000000000000000000000000000000000000 DUP2 MSTORE PUSH1 0x4 ADD PUSH2 0xB8D SWAP2 SWAP1 PUSH2 0x1130 JUMP JUMPDEST PUSH1 0x40 MLOAD DUP1 SWAP2 SUB SWAP1 REVERT JUMPDEST DUP2 PUSH1 0x1 PUSH0 DUP7 PUSH20 0xFFFFFFFFFFFFFFFFFFFFFFFFFFFFFFFFFFFFFFFF AND PUSH20 0xFFFFFFFFFFFFFFFFFFFFFFFFFFFFFFFFFFFFFFFF AND DUP2 MSTORE PUSH1 0x20 ADD SWAP1 DUP2 MSTORE PUSH1 0x20 ADD PUSH0 KECCAK256 PUSH0 DUP6 PUSH20 0xFFFFFFFFFFFFFFFFFFFFFFFFFFFFFFFFFFFFFFFF AND PUSH20 0xFFFFFFFFFFFFFFFFFFFFFFFFFFFFFFFFFFFFFFFF AND DUP2 MSTORE PUSH1 0x20 ADD SWAP1 DUP2 MSTORE PUSH1 0x20 ADD PUSH0 KECCAK256 DUP2 SWAP1 SSTORE POP DUP1 ISZERO PUSH2 0xC7F JUMPI DUP3 PUSH20 0xFFFFFFFFFFFFFFFFFFFFFFFFFFFFFFFFFFFFFFFF AND DUP5 PUSH20 0xFFFFFFFFFFFFFFFFFFFFFFFFFFFFFFFFFFFFFFFF AND PUSH32 0x8C5BE1E5EBEC7D5BD14F71427D1E84F3DD0314C0F7B2291E5B200AC8C7C3B925 DUP5 PUSH1 0x40 MLOAD PUSH2 0xC76 SWAP2 SWAP1 PUSH2 0x1059 JUMP JUMPDEST PUSH1 0x40 MLOAD DUP1 SWAP2 SUB SWAP1 LOG3 JUMPDEST POP POP POP POP JUMP JUMPDEST PUSH0 PUSH20 0xFFFFFFFFFFFFFFFFFFFFFFFFFFFFFFFFFFFFFFFF AND DUP4 PUSH20 0xFFFFFFFFFFFFFFFFFFFFFFFFFFFFFFFFFFFFFFFF AND SUB PUSH2 0xCD5 JUMPI DUP1 PUSH1 0x2 PUSH0 DUP3 DUP3 SLOAD PUSH2 0xCC9 SWAP2 SWAP1 PUSH2 0x1246 JUMP JUMPDEST SWAP3 POP POP DUP2 SWAP1 SSTORE POP PUSH2 0xDA3 JUMP JUMPDEST PUSH0 DUP1 PUSH0 DUP6 PUSH20 0xFFFFFFFFFFFFFFFFFFFFFFFFFFFFFFFFFFFFFFFF AND PUSH20 0xFFFFFFFFFFFFFFFFFFFFFFFFFFFFFFFFFFFFFFFF AND DUP2 MSTORE PUSH1 0x20 ADD SWAP1 DUP2 MSTORE PUSH1 0x20 ADD PUSH0 KECCAK256 SLOAD SWAP1 POP DUP2 DUP2 LT ISZERO PUSH2 0xD5E JUMPI DUP4 DUP2 DUP4 PUSH1 0x40 MLOAD PUSH32 0xE450D38C00000000000000000000000000000000000000000000000000000000 DUP2 MSTORE PUSH1 0x4 ADD PUSH2 0xD55 SWAP4 SWAP3 SWAP2 SWAP1 PUSH2 0x11E4 JUMP JUMPDEST PUSH1 0x40 MLOAD DUP1 SWAP2 SUB SWAP1 REVERT JUMPDEST DUP2 DUP2 SUB PUSH0 DUP1 DUP7 PUSH20 0xFFFFFFFFFFFFFFFFFFFFFFFFFFFFFFFFFFFFFFFF AND PUSH20 0xFFFFFFFFFFFFFFFFFFFFFFFFFFFFFFFFFFFFFFFF AND DUP2 MSTORE PUSH1 0x20 ADD SWAP1 DUP2 MSTORE PUSH1 0x20 ADD PUSH0 KECCAK256 DUP2 SWAP1 SSTORE POP POP JUMPDEST PUSH0 PUSH20 0xFFFFFFFFFFFFFFFFFFFFFFFFFFFFFFFFFFFFFFFF AND DUP3 PUSH20 0xFFFFFFFFFFFFFFFFFFFFFFFFFFFFFFFFFFFFFFFF AND SUB PUSH2 0xDEA JUMPI DUP1 PUSH1 0x2 PUSH0 DUP3 DUP3 SLOAD SUB SWAP3 POP POP DUP2 SWAP1 SSTORE POP PUSH2 0xE34 JUMP JUMPDEST DUP1 PUSH0 DUP1 DUP5 PUSH20 0xFFFFFFFFFFFFFFFFFFFFFFFFFFFFFFFFFFFFFFFF AND PUSH20 0xFFFFFFFFFFFFFFFFFFFFFFFFFFFFFFFFFFFFFFFF AND DUP2 MSTORE PUSH1 0x20 ADD SWAP1 DUP2 MSTORE PUSH1 0x20 ADD PUSH0 KECCAK256 PUSH0 DUP3 DUP3 SLOAD ADD SWAP3 POP POP DUP2 SWAP1 SSTORE POP JUMPDEST DUP2 PUSH20 0xFFFFFFFFFFFFFFFFFFFFFFFFFFFFFFFFFFFFFFFF AND DUP4 PUSH20 0xFFFFFFFFFFFFFFFFFFFFFFFFFFFFFFFFFFFFFFFF AND PUSH32 0xDDF252AD1BE2C89B69C2B068FC378DAA952BA7F163C4A11628F55A4DF523B3EF DUP4 PUSH1 0x40 MLOAD PUSH2 0xE91 SWAP2 SWAP1 PUSH2 0x1059 JUMP JUMPDEST PUSH1 0x40 MLOAD DUP1 SWAP2 SUB SWAP1 LOG3 POP POP POP JUMP JUMPDEST PUSH0 DUP2 MLOAD SWAP1 POP SWAP2 SWAP1 POP JUMP JUMPDEST PUSH0 DUP3 DUP3 MSTORE PUSH1 0x20 DUP3 ADD SWAP1 POP SWAP3 SWAP2 POP POP JUMP JUMPDEST PUSH0 JUMPDEST DUP4 DUP2 LT ISZERO PUSH2 0xED5 JUMPI DUP1 DUP3 ADD MLOAD DUP2 DUP5 ADD MSTORE PUSH1 0x20 DUP2 ADD SWAP1 POP PUSH2 0xEBA JUMP JUMPDEST PUSH0 DUP5 DUP5 ADD MSTORE POP POP POP POP JUMP JUMPDEST PUSH0 PUSH1 0x1F NOT PUSH1 0x1F DUP4 ADD AND SWAP1 POP SWAP2 SWAP1 POP JUMP JUMPDEST PUSH0 PUSH2 0xEFA DUP3 PUSH2 0xE9E JUMP JUMPDEST PUSH2 0xF04 DUP2 DUP6 PUSH2 0xEA8 JUMP JUMPDEST SWAP4 POP PUSH2 0xF14 DUP2 DUP6 PUSH1 0x20 DUP7 ADD PUSH2 0xEB8 JUMP JUMPDEST PUSH2 0xF1D DUP2 PUSH2 0xEE0 JUMP JUMPDEST DUP5 ADD SWAP2 POP POP SWAP3 SWAP2 POP POP JUMP JUMPDEST PUSH0 PUSH1 0x20 DUP3 ADD SWAP1 POP DUP2 DUP2 SUB PUSH0 DUP4 ADD MSTORE PUSH2 0xF40 DUP2 DUP5 PUSH2 0xEF0 JUMP JUMPDEST SWAP1 POP SWAP3 SWAP2 POP POP JUMP JUMPDEST PUSH0 DUP1 REVERT JUMPDEST PUSH0 PUSH20 0xFFFFFFFFFFFFFFFFFFFFFFFFFFFFFFFFFFFFFFFF DUP3 AND SWAP1 POP SWAP2 SWAP1 POP JUMP JUMPDEST PUSH0 PUSH2 0xF75 DUP3 PUSH2 0xF4C JUMP JUMPDEST SWAP1 POP SWAP2 SWAP1 POP JUMP JUMPDEST PUSH2 0xF85 DUP2 PUSH2 0xF6B JUMP JUMPDEST DUP2 EQ PUSH2 0xF8F JUMPI PUSH0 DUP1 REVERT JUMPDEST POP JUMP JUMPDEST PUSH0 DUP2 CALLDATALOAD SWAP1 POP PUSH2 0xFA0 DUP2 PUSH2 0xF7C JUMP JUMPDEST SWAP3 SWAP2 POP POP JUMP JUMPDEST PUSH0 DUP2 SWAP1 POP SWAP2 SWAP1 POP JUMP JUMPDEST PUSH2 0xFB8 DUP2 PUSH2 0xFA6 JUMP JUMPDEST DUP2 EQ PUSH2 0xFC2 JUMPI PUSH0 DUP1 REVERT JUMPDEST POP JUMP JUMPDEST PUSH0 DUP2 CALLDATALOAD SWAP1 POP PUSH2 0xFD3 DUP2 PUSH2 0xFAF JUMP JUMPDEST SWAP3 SWAP2 POP POP JUMP JUMPDEST PUSH0 DUP1 PUSH1 0x40 DUP4 DUP6 SUB SLT ISZERO PUSH2 0xFEF JUMPI PUSH2 0xFEE PUSH2 0xF48 JUMP JUMPDEST JUMPDEST PUSH0 PUSH2 0xFFC DUP6 DUP3 DUP7 ADD PUSH2 0xF92 JUMP JUMPDEST SWAP3 POP POP PUSH1 0x20 PUSH2 0x100D DUP6 DUP3 DUP7 ADD PUSH2 0xFC5 JUMP JUMPDEST SWAP2 POP POP SWAP3 POP SWAP3 SWAP1 POP JUMP JUMPDEST PUSH0 DUP2 ISZERO ISZERO SWAP1 POP SWAP2 SWAP1 POP JUMP JUMPDEST PUSH2 0x102B DUP2 PUSH2 0x1017 JUMP JUMPDEST DUP3 MSTORE POP POP JUMP JUMPDEST PUSH0 PUSH1 0x20 DUP3 ADD SWAP1 POP PUSH2 0x1044 PUSH0 DUP4 ADD DUP5 PUSH2 0x1022 JUMP JUMPDEST SWAP3 SWAP2 POP POP JUMP JUMPDEST PUSH2 0x1053 DUP2 PUSH2 0xFA6 JUMP JUMPDEST DUP3 MSTORE POP POP JUMP JUMPDEST PUSH0 PUSH1 0x20 DUP3 ADD SWAP1 POP PUSH2 0x106C PUSH0 DUP4 ADD DUP5 PUSH2 0x104A JUMP JUMPDEST SWAP3 SWAP2 POP POP JUMP JUMPDEST PUSH0 DUP1 PUSH0 PUSH1 0x60 DUP5 DUP7 SUB SLT ISZERO PUSH2 0x1089 JUMPI PUSH2 0x1088 PUSH2 0xF48 JUMP JUMPDEST JUMPDEST PUSH0 PUSH2 0x1096 DUP7 DUP3 DUP8 ADD PUSH2 0xF92 JUMP JUMPDEST SWAP4 POP POP PUSH1 0x20 PUSH2 0x10A7 DUP7 DUP3 DUP8 ADD PUSH2 0xF92 JUMP JUMPDEST SWAP3 POP POP PUSH1 0x40 PUSH2 0x10B8 DUP7 DUP3 DUP8 ADD PUSH2 0xFC5 JUMP JUMPDEST SWAP2 POP POP SWAP3 POP SWAP3 POP SWAP3 JUMP JUMPDEST PUSH0 PUSH1 0xFF DUP3 AND SWAP1 POP SWAP2 SWAP1 POP JUMP JUMPDEST PUSH2 0x10D7 DUP2 PUSH2 0x10C2 JUMP JUMPDEST DUP3 MSTORE POP POP JUMP JUMPDEST PUSH0 PUSH1 0x20 DUP3 ADD SWAP1 POP PUSH2 0x10F0 PUSH0 DUP4 ADD DUP5 PUSH2 0x10CE JUMP JUMPDEST SWAP3 SWAP2 POP POP JUMP JUMPDEST PUSH0 PUSH1 0x20 DUP3 DUP5 SUB SLT ISZERO PUSH2 0x110B JUMPI PUSH2 0x110A PUSH2 0xF48 JUMP JUMPDEST JUMPDEST PUSH0 PUSH2 0x1118 DUP5 DUP3 DUP6 ADD PUSH2 0xF92 JUMP JUMPDEST SWAP2 POP POP SWAP3 SWAP2 POP POP JUMP JUMPDEST PUSH2 0x112A DUP2 PUSH2 0xF6B JUMP JUMPDEST DUP3 MSTORE POP POP JUMP JUMPDEST PUSH0 PUSH1 0x20 DUP3 ADD SWAP1 POP PUSH2 0x1143 PUSH0 DUP4 ADD DUP5 PUSH2 0x1121 JUMP JUMPDEST SWAP3 SWAP2 POP POP JUMP JUMPDEST PUSH0 DUP1 PUSH1 0x40 DUP4 DUP6 SUB SLT ISZERO PUSH2 0x115F JUMPI PUSH2 0x115E PUSH2 0xF48 JUMP JUMPDEST JUMPDEST PUSH0 PUSH2 0x116C DUP6 DUP3 DUP7 ADD PUSH2 0xF92 JUMP JUMPDEST SWAP3 POP POP PUSH1 0x20 PUSH2 0x117D DUP6 DUP3 DUP7 ADD PUSH2 0xF92 JUMP JUMPDEST SWAP2 POP POP SWAP3 POP SWAP3 SWAP1 POP JUMP JUMPDEST PUSH32 0x4E487B7100000000000000000000000000000000000000000000000000000000 PUSH0 MSTORE PUSH1 0x22 PUSH1 0x4 MSTORE PUSH1 0x24 PUSH0 REVERT JUMPDEST PUSH0 PUSH1 0x2 DUP3 DIV SWAP1 POP PUSH1 0x1 DUP3 AND DUP1 PUSH2 0x11CB JUMPI PUSH1 0x7F DUP3 AND SWAP2 POP JUMPDEST PUSH1 0x20 DUP3 LT DUP2 SUB PUSH2 0x11DE JUMPI PUSH2 0x11DD PUSH2 0x1187 JUMP JUMPDEST JUMPDEST POP SWAP2 SWAP1 POP JUMP JUMPDEST PUSH0 PUSH1 0x60 DUP3 ADD SWAP1 POP PUSH2 0x11F7 PUSH0 DUP4 ADD DUP7 PUSH2 0x1121 JUMP JUMPDEST PUSH2 0x1204 PUSH1 0x20 DUP4 ADD DUP6 PUSH2 0x104A JUMP JUMPDEST PUSH2 0x1211 PUSH1 0x40 DUP4 ADD DUP5 PUSH2 0x104A JUMP JUMPDEST SWAP5 SWAP4 POP POP POP POP JUMP JUMPDEST PUSH32 0x4E487B7100000000000000000000000000000000000000000000000000000000 PUSH0 MSTORE PUSH1 0x11 PUSH1 0x4 MSTORE PUSH1 0x24 PUSH0 REVERT JUMPDEST PUSH0 PUSH2 0x1250 DUP3 PUSH2 0xFA6 JUMP JUMPDEST SWAP2 POP PUSH2 0x125B DUP4 PUSH2 0xFA6 JUMP JUMPDEST SWAP3 POP DUP3 DUP3 ADD SWAP1 POP DUP1 DUP3 GT ISZERO PUSH2 0x1273 JUMPI PUSH2 0x1272 PUSH2 0x1219 JUMP JUMPDEST JUMPDEST SWAP3 SWAP2 POP POP JUMP INVALID LOG2 PUSH5 0x6970667358 0x22 SLT KECCAK256 0xBC KECCAK256 DUP16 0xC7 0xCE 0xDC MOD RETURNDATASIZE 0xAC JUMP SWAP5 PUSH10 0x5A104E81ED5079173F0F 0xE5 CHAINID 0x25 STATICCALL DELEGATECALL CREATE2 EXTCODEHASH 0x4A PREVRANDAO SMOD PUSH5 0x736F6C6343 STOP ADDMOD EQ STOP CALLER LOG2 PUSH5 0x6970667358 0x22 SLT KECCAK256 PUSH29 0xE49602A84BB4673E9D243889166698C43BAF26C603A7F407830E91CEF5 0x1E SGT PUSH5 0x736F6C6343 STOP ADDMOD EQ STOP CALLER "
		},
		"gasEstimates": {
			"creation": {
				"codeDepositCost": "3023800",
				"executionCost": "infinite",
				"totalCost": "infinite"
			},
			"external": {
				"createPoolWithToken(string,string,string,string,uint256)": "infinite",
				"getContractPrice()": "infinite",
				"getUserTokens(address)": "infinite",
				"gnosisWallet1()": "infinite",
				"owner()": "2537",
				"renounceOwnership()": "infinite",
				"setAmountToLP(uint256)": "infinite",
				"setContractPrice(uint256)": "infinite",
				"transferOwnership(address)": "infinite"
			}
		},
		"methodIdentifiers": {
			"createPoolWithToken(string,string,string,string,uint256)": "30c25528",
			"getContractPrice()": "13ec2e9b",
			"getUserTokens(address)": "519dc8d2",
			"gnosisWallet1()": "d07a8946",
			"owner()": "8da5cb5b",
			"renounceOwnership()": "715018a6",
			"setAmountToLP(uint256)": "d21bdc5c",
			"setContractPrice(uint256)": "132c3bea",
			"transferOwnership(address)": "f2fde38b"
		}
	},
	"abi": [
		{
			"inputs": [
				{
					"internalType": "address",
					"name": "_walletToReceiveFee",
					"type": "address"
				},
				{
					"internalType": "uint256",
					"name": "_contractPrice",
					"type": "uint256"
				},
				{
					"internalType": "uint256",
					"name": "_coinsToLP",
					"type": "uint256"
				}
			],
			"stateMutability": "nonpayable",
			"type": "constructor"
		},
		{
			"inputs": [
				{
					"internalType": "address",
					"name": "owner",
					"type": "address"
				}
			],
			"name": "OwnableInvalidOwner",
			"type": "error"
		},
		{
			"inputs": [
				{
					"internalType": "address",
					"name": "account",
					"type": "address"
				}
			],
			"name": "OwnableUnauthorizedAccount",
			"type": "error"
		},
		{
			"anonymous": false,
			"inputs": [
				{
					"indexed": true,
					"internalType": "address",
					"name": "previousOwner",
					"type": "address"
				},
				{
					"indexed": true,
					"internalType": "address",
					"name": "newOwner",
					"type": "address"
				}
			],
			"name": "OwnershipTransferred",
			"type": "event"
		},
		{
			"anonymous": false,
			"inputs": [
				{
					"indexed": true,
					"internalType": "address",
					"name": "creator",
					"type": "address"
				},
				{
					"indexed": false,
					"internalType": "string",
					"name": "name",
					"type": "string"
				},
				{
					"indexed": false,
					"internalType": "string",
					"name": "ticker",
					"type": "string"
				},
				{
					"indexed": false,
					"internalType": "string",
					"name": "description",
					"type": "string"
				},
				{
					"indexed": false,
					"internalType": "string",
					"name": "image",
					"type": "string"
				},
				{
					"indexed": false,
					"internalType": "uint256",
					"name": "amount",
					"type": "uint256"
				}
			],
			"name": "TokenCreated",
			"type": "event"
		},
		{
			"inputs": [
				{
					"internalType": "string",
					"name": "_name",
					"type": "string"
				},
				{
					"internalType": "string",
					"name": "_ticker",
					"type": "string"
				},
				{
					"internalType": "string",
					"name": "_description",
					"type": "string"
				},
				{
					"internalType": "string",
					"name": "_image",
					"type": "string"
				},
				{
					"internalType": "uint256",
					"name": "_amount",
					"type": "uint256"
				}
			],
			"name": "createPoolWithToken",
			"outputs": [],
			"stateMutability": "payable",
			"type": "function"
		},
		{
			"inputs": [],
			"name": "getContractPrice",
			"outputs": [
				{
					"internalType": "uint256",
					"name": "",
					"type": "uint256"
				}
			],
			"stateMutability": "view",
			"type": "function"
		},
		{
			"inputs": [
				{
					"internalType": "address",
					"name": "_user",
					"type": "address"
				}
			],
			"name": "getUserTokens",
			"outputs": [
				{
					"internalType": "address[]",
					"name": "",
					"type": "address[]"
				}
			],
			"stateMutability": "view",
			"type": "function"
		},
		{
			"inputs": [],
			"name": "gnosisWallet1",
			"outputs": [
				{
					"internalType": "address",
					"name": "",
					"type": "address"
				}
			],
			"stateMutability": "view",
			"type": "function"
		},
		{
			"inputs": [],
			"name": "owner",
			"outputs": [
				{
					"internalType": "address",
					"name": "",
					"type": "address"
				}
			],
			"stateMutability": "view",
			"type": "function"
		},
		{
			"inputs": [],
			"name": "renounceOwnership",
			"outputs": [],
			"stateMutability": "nonpayable",
			"type": "function"
		},
		{
			"inputs": [
				{
					"internalType": "uint256",
					"name": "_amount",
					"type": "uint256"
				}
			],
			"name": "setAmountToLP",
			"outputs": [
				{
					"internalType": "bool",
					"name": "",
					"type": "bool"
				}
			],
			"stateMutability": "nonpayable",
			"type": "function"
		},
		{
			"inputs": [
				{
					"internalType": "uint256",
					"name": "price",
					"type": "uint256"
				}
			],
			"name": "setContractPrice",
			"outputs": [
				{
					"internalType": "bool",
					"name": "",
					"type": "bool"
				}
			],
			"stateMutability": "nonpayable",
			"type": "function"
		},
		{
			"inputs": [
				{
					"internalType": "address",
					"name": "newOwner",
					"type": "address"
				}
			],
			"name": "transferOwnership",
			"outputs": [],
			"stateMutability": "nonpayable",
			"type": "function"
		},
		{
			"stateMutability": "payable",
			"type": "receive"
		}
	]
}